{
  "contractName": "Express",
  "abi": [
    {
      "inputs": [],
      "payable": false,
      "stateMutability": "nonpayable",
      "type": "constructor"
    },
    {
      "anonymous": false,
      "inputs": [
        {
          "indexed": false,
          "internalType": "uint256[]",
          "name": "courierOrders",
          "type": "uint256[]"
        },
        {
          "indexed": false,
          "internalType": "uint256",
          "name": "curOrdersNum",
          "type": "uint256"
        }
      ],
      "name": "courierDelivered",
      "type": "event"
    },
    {
      "anonymous": false,
      "inputs": [
        {
          "indexed": false,
          "internalType": "uint256[]",
          "name": "courierOrders",
          "type": "uint256[]"
        },
        {
          "indexed": false,
          "internalType": "uint256",
          "name": "curOrdersNum",
          "type": "uint256"
        }
      ],
      "name": "courierTaken",
      "type": "event"
    },
    {
      "anonymous": false,
      "inputs": [
        {
          "indexed": false,
          "internalType": "uint256",
          "name": "orderId",
          "type": "uint256"
        },
        {
          "indexed": false,
          "internalType": "address payable",
          "name": "parcelSender",
          "type": "address"
        },
        {
          "indexed": false,
          "internalType": "address",
          "name": "receiver",
          "type": "address"
        },
        {
          "indexed": false,
          "internalType": "uint256",
          "name": "orderStatus",
          "type": "uint256"
        }
      ],
      "name": "orderCancelled",
      "type": "event"
    },
    {
      "anonymous": false,
      "inputs": [
        {
          "indexed": false,
          "internalType": "uint256",
          "name": "orderId",
          "type": "uint256"
        },
        {
          "indexed": false,
          "internalType": "address payable",
          "name": "parcelSender",
          "type": "address"
        },
        {
          "indexed": false,
          "internalType": "address payable",
          "name": "courier",
          "type": "address"
        },
        {
          "indexed": false,
          "internalType": "address",
          "name": "receiver",
          "type": "address"
        },
        {
          "indexed": false,
          "internalType": "uint256",
          "name": "orderStatus",
          "type": "uint256"
        },
        {
          "indexed": false,
          "internalType": "uint256",
          "name": "grade",
          "type": "uint256"
        }
      ],
      "name": "orderComplete",
      "type": "event"
    },
    {
      "anonymous": false,
      "inputs": [
        {
          "indexed": false,
          "internalType": "uint256",
          "name": "orderId",
          "type": "uint256"
        },
        {
          "indexed": false,
          "internalType": "address payable",
          "name": "parcelSender",
          "type": "address"
        },
        {
          "indexed": false,
          "internalType": "address payable",
          "name": "courier",
          "type": "address"
        },
        {
          "indexed": false,
          "internalType": "address",
          "name": "receiver",
          "type": "address"
        },
        {
          "indexed": false,
          "internalType": "uint256",
          "name": "orderStatus",
          "type": "uint256"
        }
      ],
      "name": "orderConfirmed",
      "type": "event"
    },
    {
      "anonymous": false,
      "inputs": [
        {
          "indexed": false,
          "internalType": "uint256",
          "name": "orderId",
          "type": "uint256"
        },
        {
          "indexed": false,
          "internalType": "string",
          "name": "senderName",
          "type": "string"
        },
        {
          "indexed": false,
          "internalType": "uint256",
          "name": "senderPhone",
          "type": "uint256"
        },
        {
          "indexed": false,
          "internalType": "string",
          "name": "pickupAddr",
          "type": "string"
        },
        {
          "indexed": false,
          "internalType": "string",
          "name": "shippingAddr",
          "type": "string"
        },
        {
          "indexed": false,
          "internalType": "string",
          "name": "receiverName",
          "type": "string"
        },
        {
          "indexed": false,
          "internalType": "uint256",
          "name": "receiverPhone",
          "type": "uint256"
        }
      ],
      "name": "orderCreated1",
      "type": "event"
    },
    {
      "anonymous": false,
      "inputs": [
        {
          "indexed": false,
          "internalType": "uint256",
          "name": "orderId",
          "type": "uint256"
        },
        {
          "indexed": false,
          "internalType": "uint256",
          "name": "startTime",
          "type": "uint256"
        },
        {
          "indexed": false,
          "internalType": "uint256",
          "name": "endTime",
          "type": "uint256"
        },
        {
          "indexed": false,
          "internalType": "uint256",
          "name": "orderWeight",
          "type": "uint256"
        },
        {
          "indexed": false,
          "internalType": "string",
          "name": "orderType",
          "type": "string"
        },
        {
          "indexed": false,
          "internalType": "uint256",
          "name": "orderPrice",
          "type": "uint256"
        }
      ],
      "name": "orderCreated2",
      "type": "event"
    },
    {
      "anonymous": false,
      "inputs": [
        {
          "indexed": false,
          "internalType": "address payable",
          "name": "parcelSender",
          "type": "address"
        },
        {
          "indexed": false,
          "internalType": "address",
          "name": "receiver",
          "type": "address"
        },
        {
          "indexed": false,
          "internalType": "uint256",
          "name": "orderStatus",
          "type": "uint256"
        }
      ],
      "name": "orderCreated3",
      "type": "event"
    },
    {
      "anonymous": false,
      "inputs": [
        {
          "indexed": false,
          "internalType": "uint256",
          "name": "orderId",
          "type": "uint256"
        },
        {
          "indexed": false,
          "internalType": "address",
          "name": "courier",
          "type": "address"
        },
        {
          "indexed": false,
          "internalType": "address",
          "name": "receiver",
          "type": "address"
        },
        {
          "indexed": false,
          "internalType": "uint256",
          "name": "orderStatus",
          "type": "uint256"
        },
        {
          "indexed": false,
          "internalType": "uint256",
          "name": "currentTime",
          "type": "uint256"
        }
      ],
      "name": "orderDelivered",
      "type": "event"
    },
    {
      "anonymous": false,
      "inputs": [
        {
          "indexed": false,
          "internalType": "uint256",
          "name": "orderId",
          "type": "uint256"
        },
        {
          "indexed": false,
          "internalType": "address payable",
          "name": "courier",
          "type": "address"
        },
        {
          "indexed": false,
          "internalType": "uint256",
          "name": "orderStatus",
          "type": "uint256"
        }
      ],
      "name": "orderTaken",
      "type": "event"
    },
    {
      "constant": true,
      "inputs": [
        {
          "internalType": "address",
          "name": "",
          "type": "address"
        }
      ],
      "name": "couriers",
      "outputs": [
        {
          "internalType": "uint256",
          "name": "courierGrade",
          "type": "uint256"
        },
        {
          "internalType": "uint256",
          "name": "curOrdersNum",
          "type": "uint256"
        },
        {
          "internalType": "uint256",
          "name": "totalGradesNum",
          "type": "uint256"
        }
      ],
      "payable": false,
      "stateMutability": "view",
      "type": "function"
    },
    {
      "constant": true,
      "inputs": [],
      "name": "expressName",
      "outputs": [
        {
          "internalType": "string",
          "name": "",
          "type": "string"
        }
      ],
      "payable": false,
      "stateMutability": "view",
      "type": "function"
    },
    {
      "constant": true,
      "inputs": [
        {
          "internalType": "uint256",
          "name": "",
          "type": "uint256"
        }
      ],
      "name": "orders1",
      "outputs": [
        {
          "internalType": "uint256",
          "name": "orderId",
          "type": "uint256"
        },
        {
          "internalType": "string",
          "name": "senderName",
          "type": "string"
        },
        {
          "internalType": "uint256",
          "name": "senderPhone",
          "type": "uint256"
        },
        {
          "internalType": "string",
          "name": "pickupAddr",
          "type": "string"
        },
        {
          "internalType": "string",
          "name": "shippingAddr",
          "type": "string"
        },
        {
          "internalType": "string",
          "name": "receiverName",
          "type": "string"
        },
        {
          "internalType": "uint256",
          "name": "receiverPhone",
          "type": "uint256"
        }
      ],
      "payable": false,
      "stateMutability": "view",
      "type": "function"
    },
    {
      "constant": true,
      "inputs": [
        {
          "internalType": "uint256",
          "name": "",
          "type": "uint256"
        }
      ],
      "name": "orders2",
      "outputs": [
        {
          "internalType": "uint256",
          "name": "orderId",
          "type": "uint256"
        },
        {
          "internalType": "uint256",
          "name": "startTime",
          "type": "uint256"
        },
        {
          "internalType": "uint256",
          "name": "endTime",
          "type": "uint256"
        },
        {
          "internalType": "uint256",
          "name": "orderWeight",
          "type": "uint256"
        },
        {
          "internalType": "string",
          "name": "orderType",
          "type": "string"
        },
        {
          "internalType": "uint256",
          "name": "orderPrice",
          "type": "uint256"
        }
      ],
      "payable": false,
      "stateMutability": "view",
      "type": "function"
    },
    {
      "constant": true,
      "inputs": [
        {
          "internalType": "uint256",
          "name": "",
          "type": "uint256"
        }
      ],
      "name": "orders3",
      "outputs": [
        {
          "internalType": "uint256",
          "name": "orderId",
          "type": "uint256"
        },
        {
          "internalType": "address payable",
          "name": "parcelSender",
          "type": "address"
        },
        {
          "internalType": "address payable",
          "name": "courier",
          "type": "address"
        },
        {
          "internalType": "address",
          "name": "receiver",
          "type": "address"
        },
        {
          "internalType": "uint256",
          "name": "orderStatus",
          "type": "uint256"
        },
        {
          "internalType": "uint256",
          "name": "orderGrade",
          "type": "uint256"
        }
      ],
      "payable": false,
      "stateMutability": "view",
      "type": "function"
    },
    {
      "constant": true,
      "inputs": [],
      "name": "parcelNumPerHour",
      "outputs": [
        {
          "internalType": "uint256",
          "name": "",
          "type": "uint256"
        }
      ],
      "payable": false,
      "stateMutability": "view",
      "type": "function"
    },
    {
      "constant": true,
      "inputs": [],
      "name": "price1",
      "outputs": [
        {
          "internalType": "uint256",
          "name": "",
          "type": "uint256"
        }
      ],
      "payable": false,
      "stateMutability": "view",
      "type": "function"
    },
    {
      "constant": true,
      "inputs": [],
      "name": "price2",
      "outputs": [
        {
          "internalType": "uint256",
          "name": "",
          "type": "uint256"
        }
      ],
      "payable": false,
      "stateMutability": "view",
      "type": "function"
    },
    {
      "constant": true,
      "inputs": [],
      "name": "price3",
      "outputs": [
        {
          "internalType": "uint256",
          "name": "",
          "type": "uint256"
        }
      ],
      "payable": false,
      "stateMutability": "view",
      "type": "function"
    },
    {
      "constant": true,
      "inputs": [],
      "name": "status1",
      "outputs": [
        {
          "internalType": "uint256",
          "name": "",
          "type": "uint256"
        }
      ],
      "payable": false,
      "stateMutability": "view",
      "type": "function"
    },
    {
      "constant": true,
      "inputs": [],
      "name": "status2",
      "outputs": [
        {
          "internalType": "uint256",
          "name": "",
          "type": "uint256"
        }
      ],
      "payable": false,
      "stateMutability": "view",
      "type": "function"
    },
    {
      "constant": true,
      "inputs": [],
      "name": "status3",
      "outputs": [
        {
          "internalType": "uint256",
          "name": "",
          "type": "uint256"
        }
      ],
      "payable": false,
      "stateMutability": "view",
      "type": "function"
    },
    {
      "constant": true,
      "inputs": [],
      "name": "status4",
      "outputs": [
        {
          "internalType": "uint256",
          "name": "",
          "type": "uint256"
        }
      ],
      "payable": false,
      "stateMutability": "view",
      "type": "function"
    },
    {
      "constant": true,
      "inputs": [],
      "name": "status5",
      "outputs": [
        {
          "internalType": "uint256",
          "name": "",
          "type": "uint256"
        }
      ],
      "payable": false,
      "stateMutability": "view",
      "type": "function"
    },
    {
      "constant": true,
      "inputs": [],
      "name": "status6",
      "outputs": [
        {
          "internalType": "uint256",
          "name": "",
          "type": "uint256"
        }
      ],
      "payable": false,
      "stateMutability": "view",
      "type": "function"
    },
    {
      "constant": true,
      "inputs": [],
      "name": "totalNumber",
      "outputs": [
        {
          "internalType": "uint256",
          "name": "",
          "type": "uint256"
        }
      ],
      "payable": false,
      "stateMutability": "view",
      "type": "function"
    },
    {
      "constant": false,
      "inputs": [
        {
          "internalType": "string",
          "name": "_senderName",
          "type": "string"
        },
        {
          "internalType": "uint256",
          "name": "_senderPhone",
          "type": "uint256"
        },
        {
          "internalType": "string",
          "name": "_pickupAddr",
          "type": "string"
        },
        {
          "internalType": "string",
          "name": "_shippingAddr",
          "type": "string"
        },
        {
          "internalType": "string",
          "name": "_receiverName",
          "type": "string"
        },
        {
          "internalType": "uint256",
          "name": "_receiverPhone",
          "type": "uint256"
        },
        {
          "internalType": "address",
          "name": "_receiver",
          "type": "address"
        },
        {
          "internalType": "uint256",
          "name": "_startTime",
          "type": "uint256"
        },
        {
          "internalType": "uint256",
          "name": "_endTime",
          "type": "uint256"
        },
        {
          "internalType": "uint256",
          "name": "_orderWeight",
          "type": "uint256"
        },
        {
          "internalType": "string",
          "name": "_orderType",
          "type": "string"
        }
      ],
      "name": "createOrder",
      "outputs": [],
      "payable": true,
      "stateMutability": "payable",
      "type": "function"
    },
    {
      "constant": false,
      "inputs": [
        {
          "internalType": "uint256",
          "name": "_orderId",
          "type": "uint256"
        }
      ],
      "name": "cancelOrder",
      "outputs": [],
      "payable": false,
      "stateMutability": "nonpayable",
      "type": "function"
    },
    {
      "constant": false,
      "inputs": [
        {
          "internalType": "uint256",
          "name": "_orderId",
          "type": "uint256"
        },
        {
          "internalType": "uint256",
          "name": "_currentTime",
          "type": "uint256"
        }
      ],
      "name": "takeOrder",
      "outputs": [],
      "payable": false,
      "stateMutability": "nonpayable",
      "type": "function"
    },
    {
      "constant": false,
      "inputs": [
        {
          "internalType": "uint256",
          "name": "_orderId",
          "type": "uint256"
        },
        {
          "internalType": "uint256",
          "name": "_currentTime",
          "type": "uint256"
        }
      ],
      "name": "deliverOrder",
      "outputs": [],
      "payable": false,
      "stateMutability": "nonpayable",
      "type": "function"
    },
    {
      "constant": false,
      "inputs": [
        {
          "internalType": "uint256",
          "name": "_orderId",
          "type": "uint256"
        }
      ],
      "name": "confirmOrder",
      "outputs": [],
      "payable": false,
      "stateMutability": "nonpayable",
      "type": "function"
    },
    {
      "constant": false,
      "inputs": [
        {
          "internalType": "uint256",
          "name": "_orderId",
          "type": "uint256"
        },
        {
          "internalType": "uint256",
          "name": "_grade",
          "type": "uint256"
        }
      ],
      "name": "makeGrade",
      "outputs": [],
      "payable": false,
      "stateMutability": "nonpayable",
      "type": "function"
    }
  ],
  "bytecode": "0x608060405260006001553480156200001657600080fd5b506040518060400160405280601481526020017f457468657265756d20457870726573732e636f6d00000000000000000000000081525060009080519060200190620000649291906200006b565b506200011a565b828054600181600116156101000203166002900490600052602060002090601f016020900481019282601f10620000ae57805160ff1916838001178555620000df565b82800160010185558215620000df579182015b82811115620000de578251825591602001919060010190620000c1565b5b509050620000ee9190620000f2565b5090565b6200011791905b8082111562000113576000816000905550600101620000f9565b5090565b90565b614855806200012a6000396000f3fe6080604052600436106101355760003560e01c8063b5570f83116100ab578063ccd5fcb91161006f578063ccd5fcb9146107fc578063d5da6a2b1461086f578063d778c9111461089a578063debbd198146108c5578063e589d58214610c2f578063e6e110ce14610c5a57610135565b8063b5570f8314610679578063b7c5a731146106a4578063b9ae7313146106cf578063c0daddfd146107a6578063cc01c963146107d157610135565b80633db5b7ec116100fd5780633db5b7ec146104d8578063418cb9b614610568578063514fcac7146105ad5780636caf25ce146105e85780638ac7d79c14610613578063ae6dd3cc1461064e57610135565b80631dac85be1461013a57806327a3181d146101655780632eab93cb1461019057806334f0ef8b146101d5578063356f9a21146103e2575b600080fd5b34801561014657600080fd5b5061014f610c9f565b6040518082815260200191505060405180910390f35b34801561017157600080fd5b5061017a610ca4565b6040518082815260200191505060405180910390f35b34801561019c57600080fd5b506101d3600480360360408110156101b357600080fd5b810190808035906020019092919080359060200190929190505050610cb0565b005b3480156101e157600080fd5b5061020e600480360360208110156101f857600080fd5b81019080803590602001909291905050506115b6565b604051808881526020018060200187815260200180602001806020018060200186815260200185810385528b818151815260200191508051906020019080838360005b8381101561026c578082015181840152602081019050610251565b50505050905090810190601f1680156102995780820380516001836020036101000a031916815260200191505b50858103845289818151815260200191508051906020019080838360005b838110156102d25780820151818401526020810190506102b7565b50505050905090810190601f1680156102ff5780820380516001836020036101000a031916815260200191505b50858103835288818151815260200191508051906020019080838360005b8381101561033857808201518184015260208101905061031d565b50505050905090810190601f1680156103655780820380516001836020036101000a031916815260200191505b50858103825287818151815260200191508051906020019080838360005b8381101561039e578082015181840152602081019050610383565b50505050905090810190601f1680156103cb5780820380516001836020036101000a031916815260200191505b509b50505050505050505050505060405180910390f35b3480156103ee57600080fd5b5061041b6004803603602081101561040557600080fd5b8101908080359060200190929190505050611858565b604051808781526020018673ffffffffffffffffffffffffffffffffffffffff1673ffffffffffffffffffffffffffffffffffffffff1681526020018573ffffffffffffffffffffffffffffffffffffffff1673ffffffffffffffffffffffffffffffffffffffff1681526020018473ffffffffffffffffffffffffffffffffffffffff1673ffffffffffffffffffffffffffffffffffffffff168152602001838152602001828152602001965050505050505060405180910390f35b3480156104e457600080fd5b506104ed6118f4565b6040518080602001828103825283818151815260200191508051906020019080838360005b8381101561052d578082015181840152602081019050610512565b50505050905090810190601f16801561055a5780820380516001836020036101000a031916815260200191505b509250505060405180910390f35b34801561057457600080fd5b506105ab6004803603604081101561058b57600080fd5b810190808035906020019092919080359060200190929190505050611992565b005b3480156105b957600080fd5b506105e6600480360360208110156105d057600080fd5b8101908080359060200190929190505050611e87565b005b3480156105f457600080fd5b506105fd612471565b6040518082815260200191505060405180910390f35b34801561061f57600080fd5b5061064c6004803603602081101561063657600080fd5b810190808035906020019092919050505061247d565b005b34801561065a57600080fd5b50610663612a93565b6040518082815260200191505060405180910390f35b34801561068557600080fd5b5061068e612a98565b6040518082815260200191505060405180910390f35b3480156106b057600080fd5b506106b9612a9d565b6040518082815260200191505060405180910390f35b3480156106db57600080fd5b50610708600480360360208110156106f257600080fd5b8101908080359060200190929190505050612aa2565b6040518087815260200186815260200185815260200184815260200180602001838152602001828103825284818151815260200191508051906020019080838360005b8381101561076657808201518184015260208101905061074b565b50505050905090810190601f1680156107935780820380516001836020036101000a031916815260200191505b5097505050505050505060405180910390f35b3480156107b257600080fd5b506107bb612b76565b6040518082815260200191505060405180910390f35b3480156107dd57600080fd5b506107e6612b7c565b6040518082815260200191505060405180910390f35b34801561080857600080fd5b5061084b6004803603602081101561081f57600080fd5b81019080803573ffffffffffffffffffffffffffffffffffffffff169060200190929190505050612b81565b60405180848152602001838152602001828152602001935050505060405180910390f35b34801561087b57600080fd5b50610884612bab565b6040518082815260200191505060405180910390f35b3480156108a657600080fd5b506108af612bb0565b6040518082815260200191505060405180910390f35b610c2d60048036036101608110156108dc57600080fd5b81019080803590602001906401000000008111156108f957600080fd5b82018360208201111561090b57600080fd5b8035906020019184600183028401116401000000008311171561092d57600080fd5b91908080601f016020809104026020016040519081016040528093929190818152602001838380828437600081840152601f19601f820116905080830192505050505050509192919290803590602001909291908035906020019064010000000081111561099a57600080fd5b8201836020820111156109ac57600080fd5b803590602001918460018302840111640100000000831117156109ce57600080fd5b91908080601f016020809104026020016040519081016040528093929190818152602001838380828437600081840152601f19601f82011690508083019250505050505050919291929080359060200190640100000000811115610a3157600080fd5b820183602082011115610a4357600080fd5b80359060200191846001830284011164010000000083111715610a6557600080fd5b91908080601f016020809104026020016040519081016040528093929190818152602001838380828437600081840152601f19601f82011690508083019250505050505050919291929080359060200190640100000000811115610ac857600080fd5b820183602082011115610ada57600080fd5b80359060200191846001830284011164010000000083111715610afc57600080fd5b91908080601f016020809104026020016040519081016040528093929190818152602001838380828437600081840152601f19601f82011690508083019250505050505050919291929080359060200190929190803573ffffffffffffffffffffffffffffffffffffffff16906020019092919080359060200190929190803590602001909291908035906020019092919080359060200190640100000000811115610ba757600080fd5b820183602082011115610bb957600080fd5b80359060200191846001830284011164010000000083111715610bdb57600080fd5b91908080601f016020809104026020016040519081016040528093929190818152602001838380828437600081840152601f19601f820116905080830192505050505050509192919290505050612bbc565b005b348015610c3b57600080fd5b50610c44613be6565b6040518082815260200191505060405180910390f35b348015610c6657600080fd5b50610c9d60048036036040811015610c7d57600080fd5b810190808035906020019092919080359060200190929190505050613beb565b005b606781565b674563918244f4000081565b610cb86144c2565b600360008481526020019081526020016000206040518060c001604052908160008201548152602001600182015481526020016002820154815260200160038201548152602001600482018054600181600116156101000203166002900480601f016020809104026020016040519081016040528092919081815260200182805460018160011615610100020316600290048015610d975780601f10610d6c57610100808354040283529160200191610d97565b820191906000526020600020905b815481529060010190602001808311610d7a57829003601f168201915b505050505081526020016005820154815250509050610db46144f8565b600460008581526020019081526020016000206040518060c0016040529081600082015481526020016001820160009054906101000a900473ffffffffffffffffffffffffffffffffffffffff1673ffffffffffffffffffffffffffffffffffffffff1673ffffffffffffffffffffffffffffffffffffffff1681526020016002820160009054906101000a900473ffffffffffffffffffffffffffffffffffffffff1673ffffffffffffffffffffffffffffffffffffffff1673ffffffffffffffffffffffffffffffffffffffff1681526020016003820160009054906101000a900473ffffffffffffffffffffffffffffffffffffffff1673ffffffffffffffffffffffffffffffffffffffff1673ffffffffffffffffffffffffffffffffffffffff168152602001600482015481526020016005820154815250509050806020015173ffffffffffffffffffffffffffffffffffffffff163373ffffffffffffffffffffffffffffffffffffffff161415610f9a576040517f08c379a000000000000000000000000000000000000000000000000000000000815260040180806020018281038252601e8152602001807f43616e6e6f742062652074616b656e2062792068696d2f68657273656c66000081525060200191505060405180910390fd5b806060015173ffffffffffffffffffffffffffffffffffffffff163373ffffffffffffffffffffffffffffffffffffffff161415611040576040517f08c379a000000000000000000000000000000000000000000000000000000000815260040180806020018281038252601b8152602001807f43616e6e6f742062652074616b656e206279207265636569766572000000000081525060200191505060405180910390fd5b60008411801561105257506001548411155b6110a7576040517f08c379a00000000000000000000000000000000000000000000000000000000081526004018080602001828103825260228152602001806146c86022913960400191505060405180910390fd5b6065816080015114611121576040517f08c379a000000000000000000000000000000000000000000000000000000000815260040180806020018281038252601e8152602001807f4f726465722073686f756c64206e6f742062652074616b656e2079657421000081525060200191505060405180910390fd5b8160400151831061117d576040517f08c379a000000000000000000000000000000000000000000000000000000000815260040180806020018281038252602281526020018061475d6022913960400191505060405180910390fd5b600083836040015103905060028102600560003373ffffffffffffffffffffffffffffffffffffffff1673ffffffffffffffffffffffffffffffffffffffff1681526020019081526020016000206002015410611225576040517f08c379a000000000000000000000000000000000000000000000000000000000815260040180806020018281038252602d8152602001806147aa602d913960400191505060405180910390fd5b33826040019073ffffffffffffffffffffffffffffffffffffffff16908173ffffffffffffffffffffffffffffffffffffffff1681525050606682608001818152505081600460008781526020019081526020016000206000820151816000015560208201518160010160006101000a81548173ffffffffffffffffffffffffffffffffffffffff021916908373ffffffffffffffffffffffffffffffffffffffff16021790555060408201518160020160006101000a81548173ffffffffffffffffffffffffffffffffffffffff021916908373ffffffffffffffffffffffffffffffffffffffff16021790555060608201518160030160006101000a81548173ffffffffffffffffffffffffffffffffffffffff021916908373ffffffffffffffffffffffffffffffffffffffff1602179055506080820151816004015560a08201518160050155905050600560003373ffffffffffffffffffffffffffffffffffffffff1673ffffffffffffffffffffffffffffffffffffffff168152602001908152602001600020600101859080600181540180825580915050906001820390600052602060002001600090919290919091505550600560003373ffffffffffffffffffffffffffffffffffffffff1673ffffffffffffffffffffffffffffffffffffffff168152602001908152602001600020600201600081548092919060010191905055507f6254819b6fa5128d32574b63c9afecb477e4ea58d0deb49261a95c8b1f1199e4826000015183604001518460800151604051808481526020018373ffffffffffffffffffffffffffffffffffffffff1673ffffffffffffffffffffffffffffffffffffffff168152602001828152602001935050505060405180910390a17fa481c9acdf5c01e811dac2edbcce239f5864bdc8a7fff221227ddca98bb054b5600560003373ffffffffffffffffffffffffffffffffffffffff1673ffffffffffffffffffffffffffffffffffffffff168152602001908152602001600020600101600560003373ffffffffffffffffffffffffffffffffffffffff1673ffffffffffffffffffffffffffffffffffffffff16815260200190815260200160002060020154604051808060200183815260200182810382528481815481526020019150805480156115a057602002820191906000526020600020905b81548152602001906001019080831161158c575b5050935050505060405180910390a15050505050565b6002602052806000526040600020600091509050806000015490806001018054600181600116156101000203166002900480601f0160208091040260200160405190810160405280929190818152602001828054600181600116156101000203166002900480156116685780601f1061163d57610100808354040283529160200191611668565b820191906000526020600020905b81548152906001019060200180831161164b57829003601f168201915b505050505090806002015490806003018054600181600116156101000203166002900480601f01602080910402602001604051908101604052809291908181526020018280546001816001161561010002031660029004801561170c5780601f106116e15761010080835404028352916020019161170c565b820191906000526020600020905b8154815290600101906020018083116116ef57829003601f168201915b505050505090806004018054600181600116156101000203166002900480601f0160208091040260200160405190810160405280929190818152602001828054600181600116156101000203166002900480156117aa5780601f1061177f576101008083540402835291602001916117aa565b820191906000526020600020905b81548152906001019060200180831161178d57829003601f168201915b505050505090806005018054600181600116156101000203166002900480601f0160208091040260200160405190810160405280929190818152602001828054600181600116156101000203166002900480156118485780601f1061181d57610100808354040283529160200191611848565b820191906000526020600020905b81548152906001019060200180831161182b57829003601f168201915b5050505050908060060154905087565b60046020528060005260406000206000915090508060000154908060010160009054906101000a900473ffffffffffffffffffffffffffffffffffffffff16908060020160009054906101000a900473ffffffffffffffffffffffffffffffffffffffff16908060030160009054906101000a900473ffffffffffffffffffffffffffffffffffffffff16908060040154908060050154905086565b60008054600181600116156101000203166002900480601f01602080910402602001604051908101604052809291908181526020018280546001816001161561010002031660029004801561198a5780601f1061195f5761010080835404028352916020019161198a565b820191906000526020600020905b81548152906001019060200180831161196d57829003601f168201915b505050505081565b61199a6144f8565b600460008481526020019081526020016000206040518060c0016040529081600082015481526020016001820160009054906101000a900473ffffffffffffffffffffffffffffffffffffffff1673ffffffffffffffffffffffffffffffffffffffff1673ffffffffffffffffffffffffffffffffffffffff1681526020016002820160009054906101000a900473ffffffffffffffffffffffffffffffffffffffff1673ffffffffffffffffffffffffffffffffffffffff1673ffffffffffffffffffffffffffffffffffffffff1681526020016003820160009054906101000a900473ffffffffffffffffffffffffffffffffffffffff1673ffffffffffffffffffffffffffffffffffffffff1673ffffffffffffffffffffffffffffffffffffffff1681526020016004820154815260200160058201548152505090503373ffffffffffffffffffffffffffffffffffffffff16816060015173ffffffffffffffffffffffffffffffffffffffff1614611b7f576040517f08c379a000000000000000000000000000000000000000000000000000000000815260040180806020018281038252601c8152602001807f4f6e6c792072656365697665722063616e206d616b652067726164650000000081525060200191505060405180910390fd5b6068816080015114611bdc576040517f08c379a00000000000000000000000000000000000000000000000000000000081526004018080602001828103825260238152602001806147fe6023913960400191505060405180910390fd5b611be4614570565b60056000836040015173ffffffffffffffffffffffffffffffffffffffff1673ffffffffffffffffffffffffffffffffffffffff1681526020019081526020016000206040518060800160405290816000820154815260200160018201805480602002602001604051908101604052809291908181526020018280548015611c8b57602002820191906000526020600020905b815481526020019060010190808311611c77575b505050505081526020016002820154815260200160038201548152505090508060600180518091906001018152505080606001516001826060015103826000015102840181611cd657fe5b048160000181815250508060056000846040015173ffffffffffffffffffffffffffffffffffffffff1673ffffffffffffffffffffffffffffffffffffffff168152602001908152602001600020600082015181600001556020820151816001019080519060200190611d4a929190614598565b506040820151816002015560608201518160030155905050606a826080018181525050828260a001818152505081600460008681526020019081526020016000206000820151816000015560208201518160010160006101000a81548173ffffffffffffffffffffffffffffffffffffffff021916908373ffffffffffffffffffffffffffffffffffffffff16021790555060408201518160020160006101000a81548173ffffffffffffffffffffffffffffffffffffffff021916908373ffffffffffffffffffffffffffffffffffffffff16021790555060608201518160030160006101000a81548173ffffffffffffffffffffffffffffffffffffffff021916908373ffffffffffffffffffffffffffffffffffffffff1602179055506080820151816004015560a0820151816005015590505050505050565b611e8f6144c2565b600360008381526020019081526020016000206040518060c001604052908160008201548152602001600182015481526020016002820154815260200160038201548152602001600482018054600181600116156101000203166002900480601f016020809104026020016040519081016040528092919081815260200182805460018160011615610100020316600290048015611f6e5780601f10611f4357610100808354040283529160200191611f6e565b820191906000526020600020905b815481529060010190602001808311611f5157829003601f168201915b505050505081526020016005820154815250509050611f8b6144f8565b600460008481526020019081526020016000206040518060c0016040529081600082015481526020016001820160009054906101000a900473ffffffffffffffffffffffffffffffffffffffff1673ffffffffffffffffffffffffffffffffffffffff1673ffffffffffffffffffffffffffffffffffffffff1681526020016002820160009054906101000a900473ffffffffffffffffffffffffffffffffffffffff1673ffffffffffffffffffffffffffffffffffffffff1673ffffffffffffffffffffffffffffffffffffffff1681526020016003820160009054906101000a900473ffffffffffffffffffffffffffffffffffffffff1673ffffffffffffffffffffffffffffffffffffffff1673ffffffffffffffffffffffffffffffffffffffff168152602001600482015481526020016005820154815250509050806020015173ffffffffffffffffffffffffffffffffffffffff163373ffffffffffffffffffffffffffffffffffffffff1614612153576040517f08c379a00000000000000000000000000000000000000000000000000000000081526004018080602001828103825260278152602001806147d76027913960400191505060405180910390fd5b60008311801561216557506001548311155b6121d7576040517f08c379a00000000000000000000000000000000000000000000000000000000081526004018080602001828103825260188152602001807f4f726465722073686f756c64206265206372656174656421000000000000000081525060200191505060405180910390fd5b6065816080015114612251576040517f08c379a000000000000000000000000000000000000000000000000000000000815260040180806020018281038252601d8152602001807f4f7264657220636f756c64206e6f742062652063616e63656c6c65642100000081525060200191505060405180910390fd5b606981608001818152505080600460008581526020019081526020016000206000820151816000015560208201518160010160006101000a81548173ffffffffffffffffffffffffffffffffffffffff021916908373ffffffffffffffffffffffffffffffffffffffff16021790555060408201518160020160006101000a81548173ffffffffffffffffffffffffffffffffffffffff021916908373ffffffffffffffffffffffffffffffffffffffff16021790555060608201518160030160006101000a81548173ffffffffffffffffffffffffffffffffffffffff021916908373ffffffffffffffffffffffffffffffffffffffff1602179055506080820151816004015560a08201518160050155905050806020015173ffffffffffffffffffffffffffffffffffffffff166108fc8360a001519081150290604051600060405180830381858888f193505050501580156123b4573d6000803e3d6000fd5b507f17cbccfc367faa7a7a693dd8d72cafc83df479daa4b3826497cdce04a3b7f06a8160000151826020015183606001518460800151604051808581526020018473ffffffffffffffffffffffffffffffffffffffff1673ffffffffffffffffffffffffffffffffffffffff1681526020018373ffffffffffffffffffffffffffffffffffffffff1673ffffffffffffffffffffffffffffffffffffffff16815260200182815260200194505050505060405180910390a1505050565b6729a2241af62c000081565b6001548111156124f5576040517f08c379a00000000000000000000000000000000000000000000000000000000081526004018080602001828103825260168152602001807f4f726465724964206973206e6f6e2d657869737465640000000000000000000081525060200191505060405180910390fd5b6124fd6144c2565b600360008381526020019081526020016000206040518060c001604052908160008201548152602001600182015481526020016002820154815260200160038201548152602001600482018054600181600116156101000203166002900480601f0160208091040260200160405190810160405280929190818152602001828054600181600116156101000203166002900480156125dc5780601f106125b1576101008083540402835291602001916125dc565b820191906000526020600020905b8154815290600101906020018083116125bf57829003601f168201915b5050505050815260200160058201548152505090506125f96144f8565b600460008481526020019081526020016000206040518060c0016040529081600082015481526020016001820160009054906101000a900473ffffffffffffffffffffffffffffffffffffffff1673ffffffffffffffffffffffffffffffffffffffff1673ffffffffffffffffffffffffffffffffffffffff1681526020016002820160009054906101000a900473ffffffffffffffffffffffffffffffffffffffff1673ffffffffffffffffffffffffffffffffffffffff1673ffffffffffffffffffffffffffffffffffffffff1681526020016003820160009054906101000a900473ffffffffffffffffffffffffffffffffffffffff1673ffffffffffffffffffffffffffffffffffffffff1673ffffffffffffffffffffffffffffffffffffffff1681526020016004820154815260200160058201548152505090506067816080015114612796576040517f08c379a000000000000000000000000000000000000000000000000000000000815260040180806020018281038252602a8152602001806146ea602a913960400191505060405180910390fd5b3373ffffffffffffffffffffffffffffffffffffffff16816060015173ffffffffffffffffffffffffffffffffffffffff161461283b576040517f08c379a000000000000000000000000000000000000000000000000000000000815260040180806020018281038252601f8152602001807f4f6e6c792072656365697665722063616e20636f6e6669726d206f726465720081525060200191505060405180910390fd5b606881608001818152505080600460008581526020019081526020016000206000820151816000015560208201518160010160006101000a81548173ffffffffffffffffffffffffffffffffffffffff021916908373ffffffffffffffffffffffffffffffffffffffff16021790555060408201518160020160006101000a81548173ffffffffffffffffffffffffffffffffffffffff021916908373ffffffffffffffffffffffffffffffffffffffff16021790555060608201518160030160006101000a81548173ffffffffffffffffffffffffffffffffffffffff021916908373ffffffffffffffffffffffffffffffffffffffff1602179055506080820151816004015560a082015181600501559050507ff49fd70241c9c37ec11b833f6e9522a1a557fc01bdbc404c60f36a114503f59381600001518260200151836040015184606001518560800151604051808681526020018573ffffffffffffffffffffffffffffffffffffffff1673ffffffffffffffffffffffffffffffffffffffff1681526020018473ffffffffffffffffffffffffffffffffffffffff1673ffffffffffffffffffffffffffffffffffffffff1681526020018373ffffffffffffffffffffffffffffffffffffffff1673ffffffffffffffffffffffffffffffffffffffff1681526020018281526020019550505050505060405180910390a1806040015173ffffffffffffffffffffffffffffffffffffffff166108fc8360a001519081150290604051600060405180830381858888f19350505050158015612a8d573d6000803e3d6000fd5b50505050565b606a81565b606881565b606981565b6003602052806000526040600020600091509050806000015490806001015490806002015490806003015490806004018054600181600116156101000203166002900480601f016020809104026020016040519081016040528092919081815260200182805460018160011615610100020316600290048015612b665780601f10612b3b57610100808354040283529160200191612b66565b820191906000526020600020905b815481529060010190602001808311612b4957829003601f168201915b5050505050908060050154905086565b60015481565b600281565b60056020528060005260406000206000915090508060000154908060020154908060030154905083565b606681565b676124fee993bc000081565b60008b5111612c33576040517f08c379a00000000000000000000000000000000000000000000000000000000081526004018080602001828103825260178152602001807f73656e6465724e616d652069732072657175697265642100000000000000000081525060200191505060405180910390fd5b633b9aca008a118015612c4a57506402540be3ff8a105b612c9f576040517f08c379a000000000000000000000000000000000000000000000000000000000815260040180806020018281038252602281526020018061473b6022913960400191505060405180910390fd5b6000895111612d16576040517f08c379a000000000000000000000000000000000000000000000000000000000815260040180806020018281038252601c8152602001807f5069636b2075702061646472657373206973207265717569726564210000000081525060200191505060405180910390fd5b6000885111612d8d576040517f08c379a000000000000000000000000000000000000000000000000000000000815260040180806020018281038252601d8152602001807f5368697070696e6720616464726573732069732072657175697265642100000081525060200191505060405180910390fd5b6000875111612e04576040517f08c379a00000000000000000000000000000000000000000000000000000000081526004018080602001828103825260198152602001807f72656365697665724e616d65206973207265717569726564210000000000000081525060200191505060405180910390fd5b633b9aca0086118015612e1b57506402540be3ff86105b612e70576040517f08c379a000000000000000000000000000000000000000000000000000000000815260040180806020018281038252602281526020018061473b6022913960400191505060405180910390fd5b828410612ec8576040517f08c379a000000000000000000000000000000000000000000000000000000000815260040180806020018281038252602b81526020018061477f602b913960400191505060405180910390fd5b600082118015612ed9575060328211155b612f2e576040517f08c379a00000000000000000000000000000000000000000000000000000000081526004018080602001828103825260278152602001806147146027913960400191505060405180910390fd5b6001805401600181905550600082118015612f4a5750600a8211155b15612f79576729a2241af62c000060036000600154815260200190815260200160002060050181905550612ff7565b600a82118015612f8a5750601e8211155b15612fb957674563918244f4000060036000600154815260200190815260200160002060050181905550612ff6565b601e82118015612fca575060328211155b15612ff557676124fee993bc0000600360006001548152602001908152602001600020600501819055505b5b5b60036000600154815260200190815260200160002060050154341015613085576040517f08c379a00000000000000000000000000000000000000000000000000000000081526004018080602001828103825260208152602001807f4e6f7420656e6f75676820657468657220746f20637265617465206f7264657281525060200191505060405180910390fd5b600154600260006001548152602001908152602001600020600001819055508a60026000600154815260200190815260200160002060010190805190602001906130d09291906145e5565b50896002600060015481526020019081526020016000206002018190555088600260006001548152602001908152602001600020600301908051906020019061311a9291906145e5565b508760026000600154815260200190815260200160002060040190805190602001906131479291906145e5565b508660026000600154815260200190815260200160002060050190805190602001906131749291906145e5565b508560026000600154815260200190815260200160002060060181905550600154600360006001548152602001908152602001600020600001819055508360036000600154815260200190815260200160002060010181905550826003600060015481526020019081526020016000206002018190555081600360006001548152602001908152602001600020600301819055508060036000600154815260200190815260200160002060040190805190602001906132349291906145e5565b50600154600460006001548152602001908152602001600020600001819055503360046000600154815260200190815260200160002060010160006101000a81548173ffffffffffffffffffffffffffffffffffffffff021916908373ffffffffffffffffffffffffffffffffffffffff1602179055508460046000600154815260200190815260200160002060030160006101000a81548173ffffffffffffffffffffffffffffffffffffffff021916908373ffffffffffffffffffffffffffffffffffffffff160217905550606560046000600154815260200190815260200160002060040181905550613328614665565b6002600060015481526020019081526020016000206040518060e001604052908160008201548152602001600182018054600181600116156101000203166002900480601f0160208091040260200160405190810160405280929190818152602001828054600181600116156101000203166002900480156133eb5780601f106133c0576101008083540402835291602001916133eb565b820191906000526020600020905b8154815290600101906020018083116133ce57829003601f168201915b5050505050815260200160028201548152602001600382018054600181600116156101000203166002900480601f0160208091040260200160405190810160405280929190818152602001828054600181600116156101000203166002900480156134975780601f1061346c57610100808354040283529160200191613497565b820191906000526020600020905b81548152906001019060200180831161347a57829003601f168201915b50505050508152602001600482018054600181600116156101000203166002900480601f0160208091040260200160405190810160405280929190818152602001828054600181600116156101000203166002900480156135395780601f1061350e57610100808354040283529160200191613539565b820191906000526020600020905b81548152906001019060200180831161351c57829003601f168201915b50505050508152602001600582018054600181600116156101000203166002900480601f0160208091040260200160405190810160405280929190818152602001828054600181600116156101000203166002900480156135db5780601f106135b0576101008083540402835291602001916135db565b820191906000526020600020905b8154815290600101906020018083116135be57829003601f168201915b5050505050815260200160068201548152505090507f2e690a37ae9d503abae2b970ec5cb3dcb3f08a7111e4541d37282e14290e157c816000015182602001518360400151846060015185608001518660a001518760c00151604051808881526020018060200187815260200180602001806020018060200186815260200185810385528b818151815260200191508051906020019080838360005b83811015613692578082015181840152602081019050613677565b50505050905090810190601f1680156136bf5780820380516001836020036101000a031916815260200191505b50858103845289818151815260200191508051906020019080838360005b838110156136f85780820151818401526020810190506136dd565b50505050905090810190601f1680156137255780820380516001836020036101000a031916815260200191505b50858103835288818151815260200191508051906020019080838360005b8381101561375e578082015181840152602081019050613743565b50505050905090810190601f16801561378b5780820380516001836020036101000a031916815260200191505b50858103825287818151815260200191508051906020019080838360005b838110156137c45780820151818401526020810190506137a9565b50505050905090810190601f1680156137f15780820380516001836020036101000a031916815260200191505b509b50505050505050505050505060405180910390a161380f6144c2565b6003600060015481526020019081526020016000206040518060c001604052908160008201548152602001600182015481526020016002820154815260200160038201548152602001600482018054600181600116156101000203166002900480601f0160208091040260200160405190810160405280929190818152602001828054600181600116156101000203166002900480156138f05780601f106138c5576101008083540402835291602001916138f0565b820191906000526020600020905b8154815290600101906020018083116138d357829003601f168201915b5050505050815260200160058201548152505090507f790906e8e7cd1ed19a0b1102e6343037b8d9074d8addc2fa09e65d21ec86041d816000015182602001518360400151846060015185608001518660a001516040518087815260200186815260200185815260200184815260200180602001838152602001828103825284818151815260200191508051906020019080838360005b838110156139a2578082015181840152602081019050613987565b50505050905090810190601f1680156139cf5780820380516001836020036101000a031916815260200191505b5097505050505050505060405180910390a16139e96144f8565b6004600060015481526020019081526020016000206040518060c0016040529081600082015481526020016001820160009054906101000a900473ffffffffffffffffffffffffffffffffffffffff1673ffffffffffffffffffffffffffffffffffffffff1673ffffffffffffffffffffffffffffffffffffffff1681526020016002820160009054906101000a900473ffffffffffffffffffffffffffffffffffffffff1673ffffffffffffffffffffffffffffffffffffffff1673ffffffffffffffffffffffffffffffffffffffff1681526020016003820160009054906101000a900473ffffffffffffffffffffffffffffffffffffffff1673ffffffffffffffffffffffffffffffffffffffff1673ffffffffffffffffffffffffffffffffffffffff1681526020016004820154815260200160058201548152505090507fb4d1b81b3477bfd574da643fa8c9e482d38e638a5bcef88e089eb7003bf7db80816020015182606001518360800151604051808473ffffffffffffffffffffffffffffffffffffffff1673ffffffffffffffffffffffffffffffffffffffff1681526020018373ffffffffffffffffffffffffffffffffffffffff1673ffffffffffffffffffffffffffffffffffffffff168152602001828152602001935050505060405180910390a15050505050505050505050505050565b606581565b600154821115613c63576040517f08c379a00000000000000000000000000000000000000000000000000000000081526004018080602001828103825260168152602001807f4f726465724964206973206e6f6e2d657869737465640000000000000000000081525060200191505060405180910390fd5b613c6b614665565b600260008481526020019081526020016000206040518060e001604052908160008201548152602001600182018054600181600116156101000203166002900480601f016020809104026020016040519081016040528092919081815260200182805460018160011615610100020316600290048015613d2c5780601f10613d0157610100808354040283529160200191613d2c565b820191906000526020600020905b815481529060010190602001808311613d0f57829003601f168201915b5050505050815260200160028201548152602001600382018054600181600116156101000203166002900480601f016020809104026020016040519081016040528092919081815260200182805460018160011615610100020316600290048015613dd85780601f10613dad57610100808354040283529160200191613dd8565b820191906000526020600020905b815481529060010190602001808311613dbb57829003601f168201915b50505050508152602001600482018054600181600116156101000203166002900480601f016020809104026020016040519081016040528092919081815260200182805460018160011615610100020316600290048015613e7a5780601f10613e4f57610100808354040283529160200191613e7a565b820191906000526020600020905b815481529060010190602001808311613e5d57829003601f168201915b50505050508152602001600582018054600181600116156101000203166002900480601f016020809104026020016040519081016040528092919081815260200182805460018160011615610100020316600290048015613f1c5780601f10613ef157610100808354040283529160200191613f1c565b820191906000526020600020905b815481529060010190602001808311613eff57829003601f168201915b505050505081526020016006820154815250509050613f396144f8565b600460008581526020019081526020016000206040518060c0016040529081600082015481526020016001820160009054906101000a900473ffffffffffffffffffffffffffffffffffffffff1673ffffffffffffffffffffffffffffffffffffffff1673ffffffffffffffffffffffffffffffffffffffff1681526020016002820160009054906101000a900473ffffffffffffffffffffffffffffffffffffffff1673ffffffffffffffffffffffffffffffffffffffff1673ffffffffffffffffffffffffffffffffffffffff1681526020016003820160009054906101000a900473ffffffffffffffffffffffffffffffffffffffff1673ffffffffffffffffffffffffffffffffffffffff1673ffffffffffffffffffffffffffffffffffffffff16815260200160048201548152602001600582015481525050905060008090505b600560003373ffffffffffffffffffffffffffffffffffffffff1673ffffffffffffffffffffffffffffffffffffffff168152602001908152602001600020600101805490508110156141985784600560003373ffffffffffffffffffffffffffffffffffffffff1673ffffffffffffffffffffffffffffffffffffffff168152602001908152602001600020600101828154811061411a57fe5b9060005260206000200154141561418b57600560003373ffffffffffffffffffffffffffffffffffffffff1673ffffffffffffffffffffffffffffffffffffffff168152602001908152602001600020600101818154811061417857fe5b9060005260206000200160009055614198565b808060010191505061407f565b50606781608001818152505080600460008681526020019081526020016000206000820151816000015560208201518160010160006101000a81548173ffffffffffffffffffffffffffffffffffffffff021916908373ffffffffffffffffffffffffffffffffffffffff16021790555060408201518160020160006101000a81548173ffffffffffffffffffffffffffffffffffffffff021916908373ffffffffffffffffffffffffffffffffffffffff16021790555060608201518160030160006101000a81548173ffffffffffffffffffffffffffffffffffffffff021916908373ffffffffffffffffffffffffffffffffffffffff1602179055506080820151816004015560a08201518160050155905050600560003373ffffffffffffffffffffffffffffffffffffffff1673ffffffffffffffffffffffffffffffffffffffff16815260200190815260200160002060020160008154809291906001900391905055507ffc4fa943e68392aac9a89ef49a51b3e57ac6e555dc46abbf03327f42bcf5d82f8260000151338360600151846080015187604051808681526020018573ffffffffffffffffffffffffffffffffffffffff1673ffffffffffffffffffffffffffffffffffffffff1681526020018473ffffffffffffffffffffffffffffffffffffffff1673ffffffffffffffffffffffffffffffffffffffff1681526020018381526020018281526020019550505050505060405180910390a17f3928366714139c620e5b298330b82e11478d3ca2a25fad785a8867599812c775600560003373ffffffffffffffffffffffffffffffffffffffff1673ffffffffffffffffffffffffffffffffffffffff168152602001908152602001600020600101600560003373ffffffffffffffffffffffffffffffffffffffff1673ffffffffffffffffffffffffffffffffffffffff16815260200190815260200160002060020154604051808060200183815260200182810382528481815481526020019150805480156144ad57602002820191906000526020600020905b815481526020019060010190808311614499575b5050935050505060405180910390a150505050565b6040518060c001604052806000815260200160008152602001600081526020016000815260200160608152602001600081525090565b6040518060c0016040528060008152602001600073ffffffffffffffffffffffffffffffffffffffff168152602001600073ffffffffffffffffffffffffffffffffffffffff168152602001600073ffffffffffffffffffffffffffffffffffffffff16815260200160008152602001600081525090565b6040518060800160405280600081526020016060815260200160008152602001600081525090565b8280548282559060005260206000209081019282156145d4579160200282015b828111156145d35782518255916020019190600101906145b8565b5b5090506145e191906146a2565b5090565b828054600181600116156101000203166002900490600052602060002090601f016020900481019282601f1061462657805160ff1916838001178555614654565b82800160010185558215614654579182015b82811115614653578251825591602001919060010190614638565b5b50905061466191906146a2565b5090565b6040518060e00160405280600081526020016060815260200160008152602001606081526020016060815260200160608152602001600081525090565b6146c491905b808211156146c05760008160009055506001016146a8565b5090565b9056fe4f726465722073686f756c6420626520726561647920746f2062652074616b656e214f726465722073686f756c642062652077616974696e6720666f72206120636f6e6669726d6174696f6e6f72646572207765696768742073686f756c642062652077697468696e207468652072616e6765506c6561736520696e70757420636f72726563742070686f6e65206e756d6265722143757272656e7454696d6520657863656564206f72646572277320656e6454696d6573746172742074696d652073686f756c6420626520736d616c6c6572207468616e20656e642074696d65214e756d626572206f6620636f757269657227732070617263656c732073686f756c64206e6f74206578636565644f6e6c792070617263656c53656e6465722063616e2063616e63656c2074686973206f726465724f6e6c7920636f6d706c65746564207374617475732063616e20626520677261646564a265627a7a7231582025ecb0033082a145e6beb00a7474bee05a62b3d5d936007b60896c41429dd0cf64736f6c63430005100032",
  "source": "pragma solidity >=0.4.21 <0.7.0;\r\n\r\ncontract Express {\r\n    string public expressName;\r\n    uint256 public totalNumber = 0;\r\n    uint256 public constant price1 = 3 ether;\r\n    uint256 public constant price2 = 5 ether;\r\n    uint256 public constant price3 = 7 ether;\r\n    uint256 public constant status1 = 101; //Waiting to be taken\r\n    uint256 public constant status2 = 102; //Waiting for delivery\r\n    uint256 public constant status3 = 103; //Delivered waiting confirmation\r\n    uint256 public constant status4 = 104; //Complete\r\n    uint256 public constant status5 = 105; //Cancelled\r\n    uint256 public constant status6 = 106; //Graded\r\n    uint256 public constant parcelNumPerHour = 2;\r\n    struct Order1 {\r\n        uint256 orderId;\r\n        string senderName;\r\n        uint256 senderPhone;\r\n        string pickupAddr;\r\n        string shippingAddr;\r\n        string receiverName;\r\n        uint256 receiverPhone;\r\n    }\r\n\r\n    struct Order2 {\r\n        uint256 orderId;\r\n        uint256 startTime;\r\n        uint256 endTime;\r\n        uint256 orderWeight;\r\n        string orderType;\r\n        uint256 orderPrice;\r\n    }\r\n\r\n    struct Order3 {\r\n        uint256 orderId;\r\n        address payable parcelSender;\r\n        address payable courier;\r\n        address receiver;\r\n        uint256 orderStatus;\r\n        uint256 orderGrade;\r\n    }\r\n\r\n    struct Courier {\r\n        uint256 courierGrade;\r\n        uint256[] courierOrders;\r\n        uint256 curOrdersNum;\r\n        uint256 totalGradesNum;\r\n    }\r\n\r\n    mapping(uint256 => Order1) public orders1;\r\n    mapping(uint256 => Order2) public orders2;\r\n    mapping(uint256 => Order3) public orders3;\r\n    mapping(address => Courier) public couriers;\r\n    //event\r\n    event orderCreated1(\r\n        uint256 orderId,\r\n        string senderName,\r\n        uint256 senderPhone,\r\n        string pickupAddr,\r\n        string shippingAddr,\r\n        string receiverName,\r\n        uint256 receiverPhone\r\n    );\r\n\r\n    event orderCreated2(\r\n        uint256 orderId,\r\n        uint256 startTime,\r\n        uint256 endTime,\r\n        uint256 orderWeight,\r\n        string orderType,\r\n        uint256 orderPrice\r\n    );\r\n    event orderCreated3(\r\n          address payable parcelSender,\r\n          address receiver,\r\n           uint256 orderStatus\r\n        );\r\n\r\n    event orderCancelled(\r\n        uint256 orderId,\r\n        address payable parcelSender,\r\n        address receiver,\r\n        uint256 orderStatus\r\n    );\r\n\r\n\r\n    event orderTaken(\r\n        uint256 orderId,\r\n        address payable courier,\r\n        uint256 orderStatus\r\n    );\r\n\r\n    event courierTaken(uint256[] courierOrders, uint256 curOrdersNum);\r\n\r\n    event orderDelivered(\r\n        uint256 orderId,\r\n        address courier,\r\n        address receiver,\r\n        uint256 orderStatus,\r\n        uint256 currentTime\r\n    );\r\n\r\n    event courierDelivered(uint256[] courierOrders, uint256 curOrdersNum);\r\n\r\n    event orderConfirmed(\r\n        uint256 orderId,\r\n        address payable parcelSender,\r\n        address payable courier,\r\n        address receiver,\r\n        uint256 orderStatus\r\n    );\r\n\r\n    event orderComplete(\r\n        uint256 orderId,\r\n        address payable parcelSender,\r\n        address payable courier,\r\n        address receiver,\r\n        uint256 orderStatus,\r\n        uint256 grade\r\n    );\r\n\r\n    constructor() public {\r\n        expressName = \"Ethereum Express.com\";\r\n    }\r\n\r\n    //make orders\r\n    function createOrder(\r\n        string memory _senderName,\r\n        uint256 _senderPhone,\r\n        string memory _pickupAddr,\r\n        string memory _shippingAddr,\r\n        string memory _receiverName,\r\n        uint256 _receiverPhone,\r\n        address _receiver,\r\n        uint256 _startTime,\r\n        uint256 _endTime,\r\n        uint256 _orderWeight,\r\n        string memory _orderType\r\n\r\n    ) public payable{\r\n        require(bytes(_senderName).length > 0, \"senderName is required!\");\r\n        require(\r\n            _senderPhone > 1000000000 && _senderPhone < 9999999999,\r\n            \"Please input correct phone number!\"\r\n        );\r\n        require(bytes(_pickupAddr).length > 0, \"Pick up address is required!\");\r\n        require(\r\n            bytes(_shippingAddr).length > 0,\r\n            \"Shipping address is required!\"\r\n        );\r\n        require(bytes(_receiverName).length > 0, \"receiverName is required!\");\r\n        require(\r\n            _receiverPhone > 1000000000 && _receiverPhone < 9999999999,\r\n            \"Please input correct phone number!\"\r\n        );\r\n        require(\r\n            _startTime < _endTime,\r\n            \"start time should be smaller than end time!\"\r\n        );\r\n        require(\r\n            _orderWeight > 0 && _orderWeight <= 50,\r\n            \"order weight should be within the range\"\r\n        );\r\n        \r\n        totalNumber = totalNumber + 1;\r\n         if (_orderWeight > 0 && _orderWeight <= 10) {\r\n            orders2[totalNumber].orderPrice = price1;\r\n        } else if (_orderWeight > 10 && _orderWeight <= 30) {\r\n            orders2[totalNumber].orderPrice = price2;\r\n        } else if (_orderWeight > 30 && _orderWeight <= 50) {\r\n            orders2[totalNumber].orderPrice = price3;\r\n        }\r\n        require(\r\n            msg.value >= orders2[totalNumber].orderPrice,\r\n            \"Not enough ether to create order\"\r\n        );\r\n        orders1[totalNumber].orderId = totalNumber;\r\n        orders1[totalNumber].senderName = _senderName;\r\n        orders1[totalNumber].senderPhone = _senderPhone;\r\n        orders1[totalNumber].pickupAddr = _pickupAddr;\r\n        orders1[totalNumber].shippingAddr = _shippingAddr;\r\n        orders1[totalNumber].receiverName = _receiverName;\r\n        orders1[totalNumber].receiverPhone = _receiverPhone;\r\n        orders2[totalNumber].orderId = totalNumber;\r\n        orders2[totalNumber].startTime = _startTime;\r\n        orders2[totalNumber].endTime = _endTime;\r\n        orders2[totalNumber].orderWeight = _orderWeight;\r\n        orders2[totalNumber].orderType = _orderType;\r\n\r\n         orders3[totalNumber].orderId = totalNumber;\r\n        orders3[totalNumber].parcelSender = msg.sender;\r\n        orders3[totalNumber].receiver = _receiver;\r\n        orders3[totalNumber].orderStatus = status1;\r\n\r\n        Order1 memory _order1 = orders1[totalNumber];\r\n        emit orderCreated1(\r\n            _order1.orderId,\r\n            _order1.senderName,\r\n            _order1.senderPhone,\r\n            _order1.pickupAddr,\r\n            _order1.shippingAddr,\r\n            _order1.receiverName,\r\n            _order1.receiverPhone\r\n        );\r\n        Order2 memory _order2 = orders2[totalNumber];\r\n        emit orderCreated2(\r\n            _order2.orderId,\r\n            _order2.startTime,\r\n            _order2.endTime,\r\n            _order2.orderWeight,\r\n            _order2.orderType,\r\n            _order2.orderPrice\r\n        );\r\n\r\n        Order3 memory _order3 = orders3[totalNumber];\r\n        emit orderCreated3(\r\n            _order3.parcelSender,\r\n            _order3.receiver,\r\n            _order3.orderStatus\r\n        );\r\n    }\r\n\r\n\r\n\r\n    //cancel order\r\n    function cancelOrder(uint256 _orderId) public {\r\n        Order2 memory _order2 = orders2[_orderId];\r\n        Order3 memory _order3 = orders3[_orderId];\r\n        require(\r\n            msg.sender == _order3.parcelSender,\r\n            \"Only parcelSender can cancel this order\"\r\n        );\r\n\r\n        require(\r\n            _orderId > 0 && _orderId <= totalNumber,\r\n            \"Order should be created!\"\r\n        );\r\n        require(\r\n            _order3.orderStatus == status1,\r\n            \"Order could not be cancelled!\"\r\n        );\r\n        _order3.orderStatus = status5;\r\n        orders3[_orderId] = _order3;\r\n        _order3.parcelSender.transfer(_order2.orderPrice);\r\n        emit orderCancelled(\r\n            _order3.orderId,\r\n            _order3.parcelSender,\r\n            _order3.receiver,\r\n            _order3.orderStatus\r\n        );\r\n    }\r\n\r\n\r\n    //Courier takes order\r\n    function takeOrder(uint256 _orderId, uint256 _currentTime) public {\r\n        Order2 memory _order2 = orders2[_orderId];\r\n        Order3 memory _order3 = orders3[_orderId];\r\n         require(\r\n            msg.sender != _order3.parcelSender,\r\n            \"Cannot be taken by him/herself\"\r\n        );\r\n         require(\r\n            msg.sender != _order3.receiver,\r\n            \"Cannot be taken by receiver\"\r\n        );\r\n        require(\r\n            _orderId > 0 && _orderId <= totalNumber,\r\n            \"Order should be ready to be taken!\"\r\n        );\r\n        require(\r\n            _order3.orderStatus == status1,\r\n            \"Order should not be taken yet!\"\r\n        );\r\n        require(\r\n            _currentTime < _order2.endTime,\r\n            \"CurrentTime exceed order's endTime\"\r\n        );\r\n\r\n        uint256 limitTime = _order2.endTime - _currentTime;\r\n        require(\r\n            couriers[msg.sender].curOrdersNum < limitTime * parcelNumPerHour,\r\n            \"Number of courier's parcels should not exceed\"\r\n        );\r\n        _order3.courier = msg.sender;\r\n        _order3.orderStatus = status2;\r\n        orders3[_orderId] = _order3;\r\n        couriers[msg.sender].courierOrders.push(_orderId);\r\n        couriers[msg.sender].curOrdersNum++;\r\n        emit orderTaken(_order3.orderId, _order3.courier, _order3.orderStatus);\r\n        emit courierTaken(\r\n            couriers[msg.sender].courierOrders,\r\n            couriers[msg.sender].curOrdersNum\r\n        );\r\n    }\r\n\r\n    function deliverOrder(uint256 _orderId, uint256 _currentTime) public {\r\n        require(\r\n            _orderId <= totalNumber,\r\n            \"OrderId is non-existed\"\r\n        );\r\n        Order1 memory _order1 = orders1[_orderId];\r\n        Order3 memory _order3 = orders3[_orderId];\r\n        for (\r\n            uint256 i = 0;\r\n            i < couriers[msg.sender].courierOrders.length;\r\n            i++\r\n        ) {\r\n            if (couriers[msg.sender].courierOrders[i] == _orderId) {\r\n                delete couriers[msg.sender].courierOrders[i];\r\n                break;\r\n            }\r\n        }\r\n        _order3.orderStatus = status3;\r\n        orders3[_orderId] = _order3;\r\n        couriers[msg.sender].curOrdersNum--;\r\n        emit orderDelivered(\r\n            _order1.orderId,\r\n            msg.sender,\r\n            _order3.receiver,\r\n            _order3.orderStatus,\r\n            _currentTime\r\n        );\r\n        emit courierDelivered(\r\n            couriers[msg.sender].courierOrders,\r\n            couriers[msg.sender].curOrdersNum\r\n        );\r\n    }\r\n\r\n    function confirmOrder(uint256 _orderId) public {\r\n        require(\r\n            _orderId <= totalNumber,\r\n            \"OrderId is non-existed\"\r\n        );\r\n        Order2 memory _order2 = orders2[_orderId];\r\n        Order3 memory _order3 = orders3[_orderId];\r\n        require(\r\n            _order3.orderStatus == status3,\r\n            \"Order should be waiting for a confirmation\"\r\n        );\r\n        require(\r\n            _order3.receiver == msg.sender,\r\n            \"Only receiver can confirm order\"\r\n        );\r\n        _order3.orderStatus = status4;\r\n        orders3[_orderId] = _order3;\r\n        emit orderConfirmed(\r\n            _order3.orderId,\r\n            _order3.parcelSender,\r\n            _order3.courier,\r\n            _order3.receiver,\r\n            _order3.orderStatus\r\n        );\r\n       _order3.courier.transfer(_order2.orderPrice);\r\n    }\r\n\r\n    function makeGrade(uint256 _orderId, uint256 _grade) public{\r\n        Order3 memory _order3 = orders3[_orderId];\r\n        require(\r\n            _order3.receiver == msg.sender,\r\n            \"Only receiver can make grade\"\r\n        );\r\n        require(\r\n            _order3.orderStatus == 104,\r\n            \"Only completed status can be graded\"\r\n        );\r\n        Courier memory _courier = couriers[_order3.courier];\r\n        _courier.totalGradesNum++;\r\n        //?cannot support float type\r\n        _courier.courierGrade = (_grade + _courier.courierGrade * (_courier.totalGradesNum - 1)) /\r\n            (_courier.totalGradesNum);\r\n        couriers[_order3.courier] = _courier;\r\n        _order3.orderStatus = status6;\r\n        _order3.orderGrade = _grade;\r\n        orders3[_orderId] = _order3;\r\n\r\n    }\r\n\r\n}\r\n",
  "sourcePath": "C:\\571G\\ExpressProject\\src\\contracts\\express.sol",
  "compiler": {
    "name": "solc",
    "version": "0.5.16+commit.9c3226ce.Emscripten.clang"
  },
  "schemaVersion": "3.0.23",
  "updatedAt": "2020-04-03T03:25:55.148Z",
  "networkType": "ethereum",
  "devdoc": {
    "methods": {}
  },
  "userdoc": {
    "methods": {}
  }
}