{
  "contractName": "Express",
  "abi": [
    {
      "inputs": [],
      "payable": false,
      "stateMutability": "nonpayable",
      "type": "constructor"
    },
    {
      "anonymous": false,
      "inputs": [
        {
          "indexed": false,
          "internalType": "uint256[]",
          "name": "courierOrders",
          "type": "uint256[]"
        },
        {
          "indexed": false,
          "internalType": "uint256",
          "name": "curOrdersNum",
          "type": "uint256"
        }
      ],
      "name": "courierDelivered",
      "type": "event"
    },
    {
      "anonymous": false,
      "inputs": [
        {
          "indexed": false,
          "internalType": "address payable",
          "name": "courier",
          "type": "address"
        },
        {
          "indexed": false,
          "internalType": "uint256",
          "name": "paidMoney",
          "type": "uint256"
        }
      ],
      "name": "courierGotPaid",
      "type": "event"
    },
    {
      "anonymous": false,
      "inputs": [
        {
          "indexed": false,
          "internalType": "uint256[]",
          "name": "courierOrders",
          "type": "uint256[]"
        },
        {
          "indexed": false,
          "internalType": "uint256",
          "name": "curOrdersNum",
          "type": "uint256"
        }
      ],
      "name": "courierTaken",
      "type": "event"
    },
    {
      "anonymous": false,
      "inputs": [
        {
          "indexed": false,
          "internalType": "uint256",
          "name": "orderId",
          "type": "uint256"
        },
        {
          "indexed": false,
          "internalType": "address payable",
          "name": "parcelSender",
          "type": "address"
        },
        {
          "indexed": false,
          "internalType": "address payable",
          "name": "receiver",
          "type": "address"
        },
        {
          "indexed": false,
          "internalType": "string",
          "name": "orderStatus",
          "type": "string"
        }
      ],
      "name": "orderCancelled",
      "type": "event"
    },
    {
      "anonymous": false,
      "inputs": [
        {
          "indexed": false,
          "internalType": "uint256",
          "name": "orderId",
          "type": "uint256"
        },
        {
          "indexed": false,
          "internalType": "address payable",
          "name": "parcelSender",
          "type": "address"
        },
        {
          "indexed": false,
          "internalType": "address payable",
          "name": "courier",
          "type": "address"
        },
        {
          "indexed": false,
          "internalType": "address payable",
          "name": "receiver",
          "type": "address"
        },
        {
          "indexed": false,
          "internalType": "string",
          "name": "orderStatus",
          "type": "string"
        },
        {
          "indexed": false,
          "internalType": "uint256",
          "name": "grade",
          "type": "uint256"
        }
      ],
      "name": "orderComplete",
      "type": "event"
    },
    {
      "anonymous": false,
      "inputs": [
        {
          "indexed": false,
          "internalType": "uint256",
          "name": "orderId",
          "type": "uint256"
        },
        {
          "indexed": false,
          "internalType": "address payable",
          "name": "parcelSender",
          "type": "address"
        },
        {
          "indexed": false,
          "internalType": "address payable",
          "name": "courier",
          "type": "address"
        },
        {
          "indexed": false,
          "internalType": "address payable",
          "name": "receiver",
          "type": "address"
        },
        {
          "indexed": false,
          "internalType": "string",
          "name": "orderStatus",
          "type": "string"
        }
      ],
      "name": "orderConfirmed",
      "type": "event"
    },
    {
      "anonymous": false,
      "inputs": [
        {
          "indexed": false,
          "internalType": "uint256",
          "name": "orderId",
          "type": "uint256"
        },
        {
          "indexed": false,
          "internalType": "string",
          "name": "senderName",
          "type": "string"
        },
        {
          "indexed": false,
          "internalType": "uint256",
          "name": "senderPhone",
          "type": "uint256"
        },
        {
          "indexed": false,
          "internalType": "string",
          "name": "pickupAddr",
          "type": "string"
        },
        {
          "indexed": false,
          "internalType": "string",
          "name": "shippingAddr",
          "type": "string"
        },
        {
          "indexed": false,
          "internalType": "string",
          "name": "receiverName",
          "type": "string"
        },
        {
          "indexed": false,
          "internalType": "uint256",
          "name": "receiverPhone",
          "type": "uint256"
        }
      ],
      "name": "orderCreated1",
      "type": "event"
    },
    {
      "anonymous": false,
      "inputs": [
        {
          "indexed": false,
          "internalType": "uint256",
          "name": "orderId",
          "type": "uint256"
        },
        {
          "indexed": false,
          "internalType": "uint256",
          "name": "startTime",
          "type": "uint256"
        },
        {
          "indexed": false,
          "internalType": "uint256",
          "name": "endTime",
          "type": "uint256"
        },
        {
          "indexed": false,
          "internalType": "uint256",
          "name": "orderWeight",
          "type": "uint256"
        },
        {
          "indexed": false,
          "internalType": "string",
          "name": "orderType",
          "type": "string"
        },
        {
          "indexed": false,
          "internalType": "uint256",
          "name": "orderPrice",
          "type": "uint256"
        }
      ],
      "name": "orderCreated2",
      "type": "event"
    },
    {
      "anonymous": false,
      "inputs": [
        {
          "indexed": false,
          "internalType": "address payable",
          "name": "parcelSender",
          "type": "address"
        },
        {
          "indexed": false,
          "internalType": "address payable",
          "name": "receiver",
          "type": "address"
        },
        {
          "indexed": false,
          "internalType": "string",
          "name": "orderStatus",
          "type": "string"
        }
      ],
      "name": "orderCreated3",
      "type": "event"
    },
    {
      "anonymous": false,
      "inputs": [
        {
          "indexed": false,
          "internalType": "uint256",
          "name": "orderId",
          "type": "uint256"
        },
        {
          "indexed": false,
          "internalType": "address payable",
          "name": "receiver",
          "type": "address"
        },
        {
          "indexed": false,
          "internalType": "string",
          "name": "orderStatus",
          "type": "string"
        },
        {
          "indexed": false,
          "internalType": "uint256",
          "name": "currentTime",
          "type": "uint256"
        }
      ],
      "name": "orderDelivered",
      "type": "event"
    },
    {
      "anonymous": false,
      "inputs": [
        {
          "indexed": false,
          "internalType": "uint256",
          "name": "orderId",
          "type": "uint256"
        },
        {
          "indexed": false,
          "internalType": "address payable",
          "name": "courier",
          "type": "address"
        },
        {
          "indexed": false,
          "internalType": "string",
          "name": "orderStatus",
          "type": "string"
        }
      ],
      "name": "orderTaken",
      "type": "event"
    },
    {
      "anonymous": false,
      "inputs": [
        {
          "indexed": false,
          "internalType": "address payable",
          "name": "parcelSender",
          "type": "address"
        },
        {
          "indexed": false,
          "internalType": "uint256",
          "name": "refundMoney",
          "type": "uint256"
        }
      ],
      "name": "refundGot",
      "type": "event"
    },
    {
      "constant": true,
      "inputs": [
        {
          "internalType": "address",
          "name": "",
          "type": "address"
        }
      ],
      "name": "couriers",
      "outputs": [
        {
          "internalType": "uint256",
          "name": "courierGrade",
          "type": "uint256"
        },
        {
          "internalType": "uint256",
          "name": "curOrdersNum",
          "type": "uint256"
        },
        {
          "internalType": "uint256",
          "name": "totalGradesNum",
          "type": "uint256"
        }
      ],
      "payable": false,
      "stateMutability": "view",
      "type": "function"
    },
    {
      "constant": true,
      "inputs": [],
      "name": "deployer",
      "outputs": [
        {
          "internalType": "address payable",
          "name": "",
          "type": "address"
        }
      ],
      "payable": false,
      "stateMutability": "view",
      "type": "function"
    },
    {
      "constant": true,
      "inputs": [],
      "name": "expressName",
      "outputs": [
        {
          "internalType": "string",
          "name": "",
          "type": "string"
        }
      ],
      "payable": false,
      "stateMutability": "view",
      "type": "function"
    },
    {
      "constant": true,
      "inputs": [
        {
          "internalType": "uint256",
          "name": "",
          "type": "uint256"
        }
      ],
      "name": "orders1",
      "outputs": [
        {
          "internalType": "uint256",
          "name": "orderId",
          "type": "uint256"
        },
        {
          "internalType": "string",
          "name": "senderName",
          "type": "string"
        },
        {
          "internalType": "uint256",
          "name": "senderPhone",
          "type": "uint256"
        },
        {
          "internalType": "string",
          "name": "pickupAddr",
          "type": "string"
        },
        {
          "internalType": "string",
          "name": "shippingAddr",
          "type": "string"
        },
        {
          "internalType": "string",
          "name": "receiverName",
          "type": "string"
        },
        {
          "internalType": "uint256",
          "name": "receiverPhone",
          "type": "uint256"
        }
      ],
      "payable": false,
      "stateMutability": "view",
      "type": "function"
    },
    {
      "constant": true,
      "inputs": [
        {
          "internalType": "uint256",
          "name": "",
          "type": "uint256"
        }
      ],
      "name": "orders2",
      "outputs": [
        {
          "internalType": "uint256",
          "name": "orderId",
          "type": "uint256"
        },
        {
          "internalType": "uint256",
          "name": "startTime",
          "type": "uint256"
        },
        {
          "internalType": "uint256",
          "name": "endTime",
          "type": "uint256"
        },
        {
          "internalType": "uint256",
          "name": "orderWeight",
          "type": "uint256"
        },
        {
          "internalType": "string",
          "name": "orderType",
          "type": "string"
        },
        {
          "internalType": "uint256",
          "name": "orderPrice",
          "type": "uint256"
        }
      ],
      "payable": false,
      "stateMutability": "view",
      "type": "function"
    },
    {
      "constant": true,
      "inputs": [
        {
          "internalType": "uint256",
          "name": "",
          "type": "uint256"
        }
      ],
      "name": "orders3",
      "outputs": [
        {
          "internalType": "uint256",
          "name": "orderId",
          "type": "uint256"
        },
        {
          "internalType": "address payable",
          "name": "parcelSender",
          "type": "address"
        },
        {
          "internalType": "address payable",
          "name": "courier",
          "type": "address"
        },
        {
          "internalType": "address payable",
          "name": "receiver",
          "type": "address"
        },
        {
          "internalType": "string",
          "name": "orderStatus",
          "type": "string"
        }
      ],
      "payable": false,
      "stateMutability": "view",
      "type": "function"
    },
    {
      "constant": true,
      "inputs": [],
      "name": "parcelNumPerHour",
      "outputs": [
        {
          "internalType": "uint256",
          "name": "",
          "type": "uint256"
        }
      ],
      "payable": false,
      "stateMutability": "view",
      "type": "function"
    },
    {
      "constant": true,
      "inputs": [],
      "name": "price1",
      "outputs": [
        {
          "internalType": "uint256",
          "name": "",
          "type": "uint256"
        }
      ],
      "payable": false,
      "stateMutability": "view",
      "type": "function"
    },
    {
      "constant": true,
      "inputs": [],
      "name": "price2",
      "outputs": [
        {
          "internalType": "uint256",
          "name": "",
          "type": "uint256"
        }
      ],
      "payable": false,
      "stateMutability": "view",
      "type": "function"
    },
    {
      "constant": true,
      "inputs": [],
      "name": "price3",
      "outputs": [
        {
          "internalType": "uint256",
          "name": "",
          "type": "uint256"
        }
      ],
      "payable": false,
      "stateMutability": "view",
      "type": "function"
    },
    {
      "constant": true,
      "inputs": [],
      "name": "status1",
      "outputs": [
        {
          "internalType": "string",
          "name": "",
          "type": "string"
        }
      ],
      "payable": false,
      "stateMutability": "view",
      "type": "function"
    },
    {
      "constant": true,
      "inputs": [],
      "name": "status2",
      "outputs": [
        {
          "internalType": "string",
          "name": "",
          "type": "string"
        }
      ],
      "payable": false,
      "stateMutability": "view",
      "type": "function"
    },
    {
      "constant": true,
      "inputs": [],
      "name": "status3",
      "outputs": [
        {
          "internalType": "string",
          "name": "",
          "type": "string"
        }
      ],
      "payable": false,
      "stateMutability": "view",
      "type": "function"
    },
    {
      "constant": true,
      "inputs": [],
      "name": "status4",
      "outputs": [
        {
          "internalType": "string",
          "name": "",
          "type": "string"
        }
      ],
      "payable": false,
      "stateMutability": "view",
      "type": "function"
    },
    {
      "constant": true,
      "inputs": [],
      "name": "status5",
      "outputs": [
        {
          "internalType": "string",
          "name": "",
          "type": "string"
        }
      ],
      "payable": false,
      "stateMutability": "view",
      "type": "function"
    },
    {
      "constant": true,
      "inputs": [],
      "name": "totalNumber",
      "outputs": [
        {
          "internalType": "uint256",
          "name": "",
          "type": "uint256"
        }
      ],
      "payable": false,
      "stateMutability": "view",
      "type": "function"
    },
    {
      "constant": false,
      "inputs": [
        {
          "internalType": "string",
          "name": "_senderName",
          "type": "string"
        },
        {
          "internalType": "uint256",
          "name": "_senderPhone",
          "type": "uint256"
        },
        {
          "internalType": "string",
          "name": "_pickupAddr",
          "type": "string"
        },
        {
          "internalType": "string",
          "name": "_shippingAddr",
          "type": "string"
        },
        {
          "internalType": "string",
          "name": "_receiverName",
          "type": "string"
        },
        {
          "internalType": "uint256",
          "name": "_receiverPhone",
          "type": "uint256"
        }
      ],
      "name": "createOrder1",
      "outputs": [],
      "payable": false,
      "stateMutability": "nonpayable",
      "type": "function"
    },
    {
      "constant": false,
      "inputs": [
        {
          "internalType": "uint256",
          "name": "_startTime",
          "type": "uint256"
        },
        {
          "internalType": "uint256",
          "name": "_endTime",
          "type": "uint256"
        },
        {
          "internalType": "uint256",
          "name": "_orderWeight",
          "type": "uint256"
        },
        {
          "internalType": "string",
          "name": "_orderType",
          "type": "string"
        },
        {
          "internalType": "address payable",
          "name": "_receiver",
          "type": "address"
        }
      ],
      "name": "createOrder2",
      "outputs": [],
      "payable": true,
      "stateMutability": "payable",
      "type": "function"
    },
    {
      "constant": false,
      "inputs": [
        {
          "internalType": "uint256",
          "name": "_orderId",
          "type": "uint256"
        }
      ],
      "name": "cancelOrder",
      "outputs": [],
      "payable": true,
      "stateMutability": "payable",
      "type": "function"
    },
    {
      "constant": false,
      "inputs": [
        {
          "internalType": "uint256",
          "name": "_orderId",
          "type": "uint256"
        }
      ],
      "name": "refund",
      "outputs": [],
      "payable": true,
      "stateMutability": "payable",
      "type": "function"
    },
    {
      "constant": false,
      "inputs": [
        {
          "internalType": "uint256",
          "name": "_orderId",
          "type": "uint256"
        },
        {
          "internalType": "uint256",
          "name": "_currentTime",
          "type": "uint256"
        }
      ],
      "name": "takeOrder",
      "outputs": [],
      "payable": false,
      "stateMutability": "nonpayable",
      "type": "function"
    },
    {
      "constant": false,
      "inputs": [
        {
          "internalType": "uint256",
          "name": "_orderId",
          "type": "uint256"
        },
        {
          "internalType": "uint256",
          "name": "_currentTime",
          "type": "uint256"
        }
      ],
      "name": "deliverOrder",
      "outputs": [],
      "payable": false,
      "stateMutability": "nonpayable",
      "type": "function"
    },
    {
      "constant": false,
      "inputs": [
        {
          "internalType": "uint256",
          "name": "_orderId",
          "type": "uint256"
        }
      ],
      "name": "confirmOrder",
      "outputs": [],
      "payable": false,
      "stateMutability": "nonpayable",
      "type": "function"
    },
    {
      "constant": false,
      "inputs": [
        {
          "internalType": "uint256",
          "name": "_orderId",
          "type": "uint256"
        }
      ],
      "name": "payToCourier",
      "outputs": [],
      "payable": true,
      "stateMutability": "payable",
      "type": "function"
    },
    {
      "constant": true,
      "inputs": [
        {
          "internalType": "uint256",
          "name": "_orderId",
          "type": "uint256"
        },
        {
          "internalType": "uint256",
          "name": "_grade",
          "type": "uint256"
        }
      ],
      "name": "makeGrade",
      "outputs": [],
      "payable": false,
      "stateMutability": "view",
      "type": "function"
    },
    {
      "constant": false,
      "inputs": [
        {
          "internalType": "address payable",
          "name": "_address",
          "type": "address"
        },
        {
          "internalType": "uint256",
          "name": "value",
          "type": "uint256"
        }
      ],
      "name": "sendEther",
      "outputs": [],
      "payable": true,
      "stateMutability": "payable",
      "type": "function"
    }
  ],
  "bytecode": "0x608060405260006002553480156200001657600080fd5b506040518060400160405280601481526020017f457468657265756d20457870726573732e636f6d0000000000000000000000008152506000908051906020019062000064929190620000ac565b5033600160006101000a81548173ffffffffffffffffffffffffffffffffffffffff021916908373ffffffffffffffffffffffffffffffffffffffff1602179055506200015b565b828054600181600116156101000203166002900490600052602060002090601f016020900481019282601f10620000ef57805160ff191683800117855562000120565b8280016001018555821562000120579182015b828111156200011f57825182559160200191906001019062000102565b5b5090506200012f919062000133565b5090565b6200015891905b80821115620001545760008160009055506001016200013a565b5090565b90565b61548c806200016b6000396000f3fe6080604052600436106101815760003560e01c8063b7c5a731116100d1578063cc01c9631161008a578063d5f3948811610064578063d5f3948814610ee4578063d778c91114610f3b578063e589d58214610f66578063e6e110ce14610ff657610181565b8063cc01c96314610db6578063ccd5fcb914610de1578063d5da6a2b14610e5457610181565b8063b7c5a73114610907578063b9ae731314610997578063c06b4dec14610a6e578063c0daddfd14610d0f578063c1756a2c14610d3a578063c19f794714610d8857610181565b80633db5b7ec1161013e5780636caf25ce116101185780636caf25ce146107185780638ac7d79c14610743578063ab41872f1461077e578063b5570f831461087757610181565b80633db5b7ec14610615578063418cb9b6146106a5578063514fcac7146106ea57610181565b80631dac85be14610186578063278ecde11461021657806327a3181d146102445780632eab93cb1461026f57806334f0ef8b146102b4578063356f9a21146104c1575b600080fd5b34801561019257600080fd5b5061019b61103b565b6040518080602001828103825283818151815260200191508051906020019080838360005b838110156101db5780820151818401526020810190506101c0565b50505050905090810190601f1680156102085780820380516001836020036101000a031916815260200191505b509250505060405180910390f35b6102426004803603602081101561022c57600080fd5b8101908080359060200190929190505050611074565b005b34801561025057600080fd5b506102596115ad565b6040518082815260200191505060405180910390f35b34801561027b57600080fd5b506102b26004803603604081101561029257600080fd5b8101908080359060200190929190803590602001909291905050506115b9565b005b3480156102c057600080fd5b506102ed600480360360208110156102d757600080fd5b8101908080359060200190929190505050611d6e565b604051808881526020018060200187815260200180602001806020018060200186815260200185810385528b818151815260200191508051906020019080838360005b8381101561034b578082015181840152602081019050610330565b50505050905090810190601f1680156103785780820380516001836020036101000a031916815260200191505b50858103845289818151815260200191508051906020019080838360005b838110156103b1578082015181840152602081019050610396565b50505050905090810190601f1680156103de5780820380516001836020036101000a031916815260200191505b50858103835288818151815260200191508051906020019080838360005b838110156104175780820151818401526020810190506103fc565b50505050905090810190601f1680156104445780820380516001836020036101000a031916815260200191505b50858103825287818151815260200191508051906020019080838360005b8381101561047d578082015181840152602081019050610462565b50505050905090810190601f1680156104aa5780820380516001836020036101000a031916815260200191505b509b50505050505050505050505060405180910390f35b3480156104cd57600080fd5b506104fa600480360360208110156104e457600080fd5b8101908080359060200190929190505050612010565b604051808681526020018573ffffffffffffffffffffffffffffffffffffffff1673ffffffffffffffffffffffffffffffffffffffff1681526020018473ffffffffffffffffffffffffffffffffffffffff1673ffffffffffffffffffffffffffffffffffffffff1681526020018373ffffffffffffffffffffffffffffffffffffffff1673ffffffffffffffffffffffffffffffffffffffff16815260200180602001828103825283818151815260200191508051906020019080838360005b838110156105d65780820151818401526020810190506105bb565b50505050905090810190601f1680156106035780820380516001836020036101000a031916815260200191505b50965050505050505060405180910390f35b34801561062157600080fd5b5061062a61213e565b6040518080602001828103825283818151815260200191508051906020019080838360005b8381101561066a57808201518184015260208101905061064f565b50505050905090810190601f1680156106975780820380516001836020036101000a031916815260200191505b509250505060405180910390f35b3480156106b157600080fd5b506106e8600480360360408110156106c857600080fd5b8101908080359060200190929190803590602001909291905050506121dc565b005b6107166004803603602081101561070057600080fd5b8101908080359060200190929190505050612607565b005b34801561072457600080fd5b5061072d612a74565b6040518082815260200191505060405180910390f35b34801561074f57600080fd5b5061077c6004803603602081101561076657600080fd5b8101908080359060200190929190505050612a80565b005b610875600480360360a081101561079457600080fd5b81019080803590602001909291908035906020019092919080359060200190929190803590602001906401000000008111156107cf57600080fd5b8201836020820111156107e157600080fd5b8035906020019184600183028401116401000000008311171561080357600080fd5b91908080601f016020809104026020016040519081016040528093929190818152602001838380828437600081840152601f19601f820116905080830192505050505050509192919290803573ffffffffffffffffffffffffffffffffffffffff169060200190929190505050612f29565b005b34801561088357600080fd5b5061088c613800565b6040518080602001828103825283818151815260200191508051906020019080838360005b838110156108cc5780820151818401526020810190506108b1565b50505050905090810190601f1680156108f95780820380516001836020036101000a031916815260200191505b509250505060405180910390f35b34801561091357600080fd5b5061091c613839565b6040518080602001828103825283818151815260200191508051906020019080838360005b8381101561095c578082015181840152602081019050610941565b50505050905090810190601f1680156109895780820380516001836020036101000a031916815260200191505b509250505060405180910390f35b3480156109a357600080fd5b506109d0600480360360208110156109ba57600080fd5b8101908080359060200190929190505050613872565b6040518087815260200186815260200185815260200184815260200180602001838152602001828103825284818151815260200191508051906020019080838360005b83811015610a2e578082015181840152602081019050610a13565b50505050905090810190601f168015610a5b5780820380516001836020036101000a031916815260200191505b5097505050505050505060405180910390f35b348015610a7a57600080fd5b50610d0d600480360360c0811015610a9157600080fd5b8101908080359060200190640100000000811115610aae57600080fd5b820183602082011115610ac057600080fd5b80359060200191846001830284011164010000000083111715610ae257600080fd5b91908080601f016020809104026020016040519081016040528093929190818152602001838380828437600081840152601f19601f8201169050808301925050505050505091929192908035906020019092919080359060200190640100000000811115610b4f57600080fd5b820183602082011115610b6157600080fd5b80359060200191846001830284011164010000000083111715610b8357600080fd5b91908080601f016020809104026020016040519081016040528093929190818152602001838380828437600081840152601f19601f82011690508083019250505050505050919291929080359060200190640100000000811115610be657600080fd5b820183602082011115610bf857600080fd5b80359060200191846001830284011164010000000083111715610c1a57600080fd5b91908080601f016020809104026020016040519081016040528093929190818152602001838380828437600081840152601f19601f82011690508083019250505050505050919291929080359060200190640100000000811115610c7d57600080fd5b820183602082011115610c8f57600080fd5b80359060200191846001830284011164010000000083111715610cb157600080fd5b91908080601f016020809104026020016040519081016040528093929190818152602001838380828437600081840152601f19601f82011690508083019250505050505050919291929080359060200190929190505050613946565b005b348015610d1b57600080fd5b50610d24614202565b6040518082815260200191505060405180910390f35b610d8660048036036040811015610d5057600080fd5b81019080803573ffffffffffffffffffffffffffffffffffffffff16906020019092919080359060200190929190505050614208565b005b610db460048036036020811015610d9e57600080fd5b8101908080359060200190929190505050614253565b005b348015610dc257600080fd5b50610dcb61478d565b6040518082815260200191505060405180910390f35b348015610ded57600080fd5b50610e3060048036036020811015610e0457600080fd5b81019080803573ffffffffffffffffffffffffffffffffffffffff169060200190929190505050614792565b60405180848152602001838152602001828152602001935050505060405180910390f35b348015610e6057600080fd5b50610e696147bc565b6040518080602001828103825283818151815260200191508051906020019080838360005b83811015610ea9578082015181840152602081019050610e8e565b50505050905090810190601f168015610ed65780820380516001836020036101000a031916815260200191505b509250505060405180910390f35b348015610ef057600080fd5b50610ef96147f5565b604051808273ffffffffffffffffffffffffffffffffffffffff1673ffffffffffffffffffffffffffffffffffffffff16815260200191505060405180910390f35b348015610f4757600080fd5b50610f5061481b565b6040518082815260200191505060405180910390f35b348015610f7257600080fd5b50610f7b614827565b6040518080602001828103825283818151815260200191508051906020019080838360005b83811015610fbb578082015181840152602081019050610fa0565b50505050905090810190601f168015610fe85780820380516001836020036101000a031916815260200191505b509250505060405180910390f35b34801561100257600080fd5b506110396004803603604081101561101957600080fd5b810190808035906020019092919080359060200190929190505050614860565b005b6040518060400160405280601e81526020017f44656c6976657265642077616974696e6720636f6e6669726d6174696f6e000081525081565b600160009054906101000a900473ffffffffffffffffffffffffffffffffffffffff1673ffffffffffffffffffffffffffffffffffffffff163373ffffffffffffffffffffffffffffffffffffffff161461111a576040517f08c379a000000000000000000000000000000000000000000000000000000000815260040180806020018281038252602e815260200180615316602e913960400191505060405180910390fd5b611122615164565b600460008381526020019081526020016000206040518060c001604052908160008201548152602001600182015481526020016002820154815260200160038201548152602001600482018054600181600116156101000203166002900480601f0160208091040260200160405190810160405280929190818152602001828054600181600116156101000203166002900480156112015780601f106111d657610100808354040283529160200191611201565b820191906000526020600020905b8154815290600101906020018083116111e457829003601f168201915b50505050508152602001600582015481525050905061121e61519a565b600560008481526020019081526020016000206040518060a0016040529081600082015481526020016001820160009054906101000a900473ffffffffffffffffffffffffffffffffffffffff1673ffffffffffffffffffffffffffffffffffffffff1673ffffffffffffffffffffffffffffffffffffffff1681526020016002820160009054906101000a900473ffffffffffffffffffffffffffffffffffffffff1673ffffffffffffffffffffffffffffffffffffffff1673ffffffffffffffffffffffffffffffffffffffff1681526020016003820160009054906101000a900473ffffffffffffffffffffffffffffffffffffffff1673ffffffffffffffffffffffffffffffffffffffff1673ffffffffffffffffffffffffffffffffffffffff168152602001600482018054600181600116156101000203166002900480601f0160208091040260200160405190810160405280929190818152602001828054600181600116156101000203166002900480156113e15780601f106113b6576101008083540402835291602001916113e1565b820191906000526020600020905b8154815290600101906020018083116113c457829003601f168201915b505050505081525050905061142f81608001516040518060400160405280600981526020017f43616e63656c6c656400000000000000000000000000000000000000000000008152506150a7565b6114a1576040517f08c379a00000000000000000000000000000000000000000000000000000000081526004018080602001828103825260198152602001807f4f726465722073686f756c642062652063616e63656c6c65640000000000000081525060200191505060405180910390fd5b60018260a0015103341461151d576040517f08c379a00000000000000000000000000000000000000000000000000000000081526004018080602001828103825260188152602001807f4e6f7420656e6f75676820726566756e64206d6f6e657921000000000000000081525060200191505060405180910390fd5b611532816020015160018460a0015103614208565b7fc37a6ef8e4ae48eaee17dc11638475765fe8e5c89c5c50fd7adaff82527e3ab9816020015160018460a0015103604051808373ffffffffffffffffffffffffffffffffffffffff1673ffffffffffffffffffffffffffffffffffffffff1681526020018281526020019250505060405180910390a1505050565b674563918244f4000081565b6115c1615164565b600460008481526020019081526020016000206040518060c001604052908160008201548152602001600182015481526020016002820154815260200160038201548152602001600482018054600181600116156101000203166002900480601f0160208091040260200160405190810160405280929190818152602001828054600181600116156101000203166002900480156116a05780601f10611675576101008083540402835291602001916116a0565b820191906000526020600020905b81548152906001019060200180831161168357829003601f168201915b5050505050815260200160058201548152505090506116bd61519a565b600560008581526020019081526020016000206040518060a0016040529081600082015481526020016001820160009054906101000a900473ffffffffffffffffffffffffffffffffffffffff1673ffffffffffffffffffffffffffffffffffffffff1673ffffffffffffffffffffffffffffffffffffffff1681526020016002820160009054906101000a900473ffffffffffffffffffffffffffffffffffffffff1673ffffffffffffffffffffffffffffffffffffffff1673ffffffffffffffffffffffffffffffffffffffff1681526020016003820160009054906101000a900473ffffffffffffffffffffffffffffffffffffffff1673ffffffffffffffffffffffffffffffffffffffff1673ffffffffffffffffffffffffffffffffffffffff168152602001600482018054600181600116156101000203166002900480601f0160208091040260200160405190810160405280929190818152602001828054600181600116156101000203166002900480156118805780601f1061185557610100808354040283529160200191611880565b820191906000526020600020905b81548152906001019060200180831161186357829003601f168201915b505050505081525050905060008411801561189d57506002548411155b6118f2576040517f08c379a00000000000000000000000000000000000000000000000000000000081526004018080602001828103825260228152602001806153446022913960400191505060405180910390fd5b61193581608001516040518060400160405280601381526020017f57616974696e6720746f2062652074616b656e000000000000000000000000008152506150a7565b6119a7576040517f08c379a000000000000000000000000000000000000000000000000000000000815260040180806020018281038252601e8152602001807f4f726465722073686f756c64206e6f742062652074616b656e2079657421000081525060200191505060405180910390fd5b600083836040015103905060028102600660003373ffffffffffffffffffffffffffffffffffffffff1673ffffffffffffffffffffffffffffffffffffffff1681526020019081526020016000206002015410611a4f576040517f08c379a000000000000000000000000000000000000000000000000000000000815260040180806020018281038252602d81526020018061542b602d913960400191505060405180910390fd5b33826040019073ffffffffffffffffffffffffffffffffffffffff16908173ffffffffffffffffffffffffffffffffffffffff16815250506040518060400160405280601481526020017f57616974696e6720666f722064656c69766572790000000000000000000000008152508260800181905250600660003373ffffffffffffffffffffffffffffffffffffffff1673ffffffffffffffffffffffffffffffffffffffff168152602001908152602001600020600101859080600181540180825580915050906001820390600052602060002001600090919290919091505550600660003373ffffffffffffffffffffffffffffffffffffffff1673ffffffffffffffffffffffffffffffffffffffff168152602001908152602001600020600201600081548092919060010191905055507fb664a296d8838f9d33e81614d50625f8abf036fb010a2b0dae360303d9161d87826000015183604001518460800151604051808481526020018373ffffffffffffffffffffffffffffffffffffffff1673ffffffffffffffffffffffffffffffffffffffff16815260200180602001828103825283818151815260200191508051906020019080838360005b83811015611c2b578082015181840152602081019050611c10565b50505050905090810190601f168015611c585780820380516001836020036101000a031916815260200191505b5094505050505060405180910390a17fa481c9acdf5c01e811dac2edbcce239f5864bdc8a7fff221227ddca98bb054b5600660003373ffffffffffffffffffffffffffffffffffffffff1673ffffffffffffffffffffffffffffffffffffffff168152602001908152602001600020600101600660003373ffffffffffffffffffffffffffffffffffffffff1673ffffffffffffffffffffffffffffffffffffffff1681526020019081526020016000206002015460405180806020018381526020018281038252848181548152602001915080548015611d5857602002820191906000526020600020905b815481526020019060010190808311611d44575b5050935050505060405180910390a15050505050565b6003602052806000526040600020600091509050806000015490806001018054600181600116156101000203166002900480601f016020809104026020016040519081016040528092919081815260200182805460018160011615610100020316600290048015611e205780601f10611df557610100808354040283529160200191611e20565b820191906000526020600020905b815481529060010190602001808311611e0357829003601f168201915b505050505090806002015490806003018054600181600116156101000203166002900480601f016020809104026020016040519081016040528092919081815260200182805460018160011615610100020316600290048015611ec45780601f10611e9957610100808354040283529160200191611ec4565b820191906000526020600020905b815481529060010190602001808311611ea757829003601f168201915b505050505090806004018054600181600116156101000203166002900480601f016020809104026020016040519081016040528092919081815260200182805460018160011615610100020316600290048015611f625780601f10611f3757610100808354040283529160200191611f62565b820191906000526020600020905b815481529060010190602001808311611f4557829003601f168201915b505050505090806005018054600181600116156101000203166002900480601f0160208091040260200160405190810160405280929190818152602001828054600181600116156101000203166002900480156120005780601f10611fd557610100808354040283529160200191612000565b820191906000526020600020905b815481529060010190602001808311611fe357829003601f168201915b5050505050908060060154905087565b60056020528060005260406000206000915090508060000154908060010160009054906101000a900473ffffffffffffffffffffffffffffffffffffffff16908060020160009054906101000a900473ffffffffffffffffffffffffffffffffffffffff16908060030160009054906101000a900473ffffffffffffffffffffffffffffffffffffffff1690806004018054600181600116156101000203166002900480601f0160208091040260200160405190810160405280929190818152602001828054600181600116156101000203166002900480156121345780601f1061210957610100808354040283529160200191612134565b820191906000526020600020905b81548152906001019060200180831161211757829003601f168201915b5050505050905085565b60008054600181600116156101000203166002900480601f0160208091040260200160405190810160405280929190818152602001828054600181600116156101000203166002900480156121d45780601f106121a9576101008083540402835291602001916121d4565b820191906000526020600020905b8154815290600101906020018083116121b757829003601f168201915b505050505081565b6121e461519a565b600560008481526020019081526020016000206040518060a0016040529081600082015481526020016001820160009054906101000a900473ffffffffffffffffffffffffffffffffffffffff1673ffffffffffffffffffffffffffffffffffffffff1673ffffffffffffffffffffffffffffffffffffffff1681526020016002820160009054906101000a900473ffffffffffffffffffffffffffffffffffffffff1673ffffffffffffffffffffffffffffffffffffffff1673ffffffffffffffffffffffffffffffffffffffff1681526020016003820160009054906101000a900473ffffffffffffffffffffffffffffffffffffffff1673ffffffffffffffffffffffffffffffffffffffff1673ffffffffffffffffffffffffffffffffffffffff168152602001600482018054600181600116156101000203166002900480601f0160208091040260200160405190810160405280929190818152602001828054600181600116156101000203166002900480156123a75780601f1061237c576101008083540402835291602001916123a7565b820191906000526020600020905b81548152906001019060200180831161238a57829003601f168201915b50505050508152505090503373ffffffffffffffffffffffffffffffffffffffff16816060015173ffffffffffffffffffffffffffffffffffffffff1614612457576040517f08c379a000000000000000000000000000000000000000000000000000000000815260040180806020018281038252601f8152602001807f4f6e6c792072656365697665722063616e20636f6e6669726d206f726465720081525060200191505060405180910390fd5b600160009054906101000a900473ffffffffffffffffffffffffffffffffffffffff1673ffffffffffffffffffffffffffffffffffffffff163373ffffffffffffffffffffffffffffffffffffffff16146124fd576040517f08c379a000000000000000000000000000000000000000000000000000000000815260040180806020018281038252602e815260200180615316602e913960400191505060405180910390fd5b61250561520b565b60066000836040015173ffffffffffffffffffffffffffffffffffffffff1673ffffffffffffffffffffffffffffffffffffffff16815260200190815260200160002060405180608001604052908160008201548152602001600182018054806020026020016040519081016040528092919081815260200182805480156125ac57602002820191906000526020600020905b815481526020019060010190808311612598575b5050505050815260200160028201548152602001600382015481525050905080606001805180919060010181525050806060015160018260600151038260000151028401816125f757fe5b0481600001818152505050505050565b61260f61519a565b600560008381526020019081526020016000206040518060a0016040529081600082015481526020016001820160009054906101000a900473ffffffffffffffffffffffffffffffffffffffff1673ffffffffffffffffffffffffffffffffffffffff1673ffffffffffffffffffffffffffffffffffffffff1681526020016002820160009054906101000a900473ffffffffffffffffffffffffffffffffffffffff1673ffffffffffffffffffffffffffffffffffffffff1673ffffffffffffffffffffffffffffffffffffffff1681526020016003820160009054906101000a900473ffffffffffffffffffffffffffffffffffffffff1673ffffffffffffffffffffffffffffffffffffffff1673ffffffffffffffffffffffffffffffffffffffff168152602001600482018054600181600116156101000203166002900480601f0160208091040260200160405190810160405280929190818152602001828054600181600116156101000203166002900480156127d25780601f106127a7576101008083540402835291602001916127d2565b820191906000526020600020905b8154815290600101906020018083116127b557829003601f168201915b50505050508152505090506000821180156127ef57506002548211155b612861576040517f08c379a00000000000000000000000000000000000000000000000000000000081526004018080602001828103825260188152602001807f4f726465722073686f756c64206265206372656174656421000000000000000081525060200191505060405180910390fd5b6128a481608001516040518060400160405280601381526020017f57616974696e6720746f2062652074616b656e000000000000000000000000008152506150a7565b612916576040517f08c379a000000000000000000000000000000000000000000000000000000000815260040180806020018281038252601d8152602001807f4f7264657220636f756c64206e6f742062652063616e63656c6c65642100000081525060200191505060405180910390fd5b6040518060400160405280600981526020017f43616e63656c6c6564000000000000000000000000000000000000000000000081525081608001819052507f6538601dbd84bd1a4fbdf84905bf6fe35b2d29a95494a15bbca90bc7e0952a2f8160000151826020015183606001518460800151604051808581526020018473ffffffffffffffffffffffffffffffffffffffff1673ffffffffffffffffffffffffffffffffffffffff1681526020018373ffffffffffffffffffffffffffffffffffffffff1673ffffffffffffffffffffffffffffffffffffffff16815260200180602001828103825283818151815260200191508051906020019080838360005b83811015612a33578082015181840152602081019050612a18565b50505050905090810190601f168015612a605780820380516001836020036101000a031916815260200191505b509550505050505060405180910390a15050565b6729a2241af62c000081565b612a8861519a565b600560008381526020019081526020016000206040518060a0016040529081600082015481526020016001820160009054906101000a900473ffffffffffffffffffffffffffffffffffffffff1673ffffffffffffffffffffffffffffffffffffffff1673ffffffffffffffffffffffffffffffffffffffff1681526020016002820160009054906101000a900473ffffffffffffffffffffffffffffffffffffffff1673ffffffffffffffffffffffffffffffffffffffff1673ffffffffffffffffffffffffffffffffffffffff1681526020016003820160009054906101000a900473ffffffffffffffffffffffffffffffffffffffff1673ffffffffffffffffffffffffffffffffffffffff1673ffffffffffffffffffffffffffffffffffffffff168152602001600482018054600181600116156101000203166002900480601f016020809104026020016040519081016040528092919081815260200182805460018160011615610100020316600290048015612c4b5780601f10612c2057610100808354040283529160200191612c4b565b820191906000526020600020905b815481529060010190602001808311612c2e57829003601f168201915b5050505050815250509050612c9981608001516040518060400160405280601481526020017f57616974696e6720666f722064656c69766572790000000000000000000000008152506150a7565b612cee576040517f08c379a000000000000000000000000000000000000000000000000000000000815260040180806020018281038252602a81526020018061538d602a913960400191505060405180910390fd5b3373ffffffffffffffffffffffffffffffffffffffff16816060015173ffffffffffffffffffffffffffffffffffffffff1614612d93576040517f08c379a000000000000000000000000000000000000000000000000000000000815260040180806020018281038252601f8152602001807f4f6e6c792072656365697665722063616e20636f6e6669726d206f726465720081525060200191505060405180910390fd5b6040518060400160405280601e81526020017f44656c6976657265642077616974696e6720636f6e6669726d6174696f6e000081525081608001819052507f4f2e02ad9d23078dccbef4650af8ace7bb3c5ebfaa54a4fcafe55767b43264b181600001518260200151836040015184606001518560800151604051808681526020018573ffffffffffffffffffffffffffffffffffffffff1673ffffffffffffffffffffffffffffffffffffffff1681526020018473ffffffffffffffffffffffffffffffffffffffff1673ffffffffffffffffffffffffffffffffffffffff1681526020018373ffffffffffffffffffffffffffffffffffffffff1673ffffffffffffffffffffffffffffffffffffffff16815260200180602001828103825283818151815260200191508051906020019080838360005b83811015612ee7578082015181840152602081019050612ecc565b50505050905090810190601f168015612f145780820380516001836020036101000a031916815260200191505b50965050505050505060405180910390a15050565b838510612f81576040517f08c379a000000000000000000000000000000000000000000000000000000000815260040180806020018281038252602b815260200180615400602b913960400191505060405180910390fd5b600083118015612f92575060328311155b612fe7576040517f08c379a00000000000000000000000000000000000000000000000000000000081526004018080602001828103825260278152602001806153b76027913960400191505060405180910390fd5b60025460046000600254815260200190815260200160002060000181905550846004600060025481526020019081526020016000206001018190555083600460006002548152602001908152602001600020600201819055508260046000600254815260200190815260200160002060030181905550816004600060025481526020019081526020016000206004019080519060200190613089929190615233565b5060008311801561309b5750600a8311155b156130ca576729a2241af62c000060046000600254815260200190815260200160002060050181905550613148565b600a831180156130db5750601e8311155b1561310a57674563918244f4000060046000600254815260200190815260200160002060050181905550613147565b601e8311801561311b575060328311155b1561314657676124fee993bc0000600460006002548152602001908152602001600020600501819055505b5b5b600460006002548152602001908152602001600020600501543410156131d6576040517f08c379a00000000000000000000000000000000000000000000000000000000081526004018080602001828103825260208152602001807f4e6f7420656e6f75676820657468657220746f20637265617465206f7264657281525060200191505060405180910390fd5b6131de615164565b6004600060025481526020019081526020016000206040518060c001604052908160008201548152602001600182015481526020016002820154815260200160038201548152602001600482018054600181600116156101000203166002900480601f0160208091040260200160405190810160405280929190818152602001828054600181600116156101000203166002900480156132bf5780601f10613294576101008083540402835291602001916132bf565b820191906000526020600020905b8154815290600101906020018083116132a257829003601f168201915b505050505081526020016005820154815250509050613304600160009054906101000a900473ffffffffffffffffffffffffffffffffffffffff168260a00151614208565b7f790906e8e7cd1ed19a0b1102e6343037b8d9074d8addc2fa09e65d21ec86041d816000015182602001518360400151846060015185608001518660a001516040518087815260200186815260200185815260200184815260200180602001838152602001828103825284818151815260200191508051906020019080838360005b838110156133a1578082015181840152602081019050613386565b50505050905090810190601f1680156133ce5780820380516001836020036101000a031916815260200191505b5097505050505050505060405180910390a1600254600560006002548152602001908152602001600020600001819055503360056000600254815260200190815260200160002060010160006101000a81548173ffffffffffffffffffffffffffffffffffffffff021916908373ffffffffffffffffffffffffffffffffffffffff1602179055508160056000600254815260200190815260200160002060030160006101000a81548173ffffffffffffffffffffffffffffffffffffffff021916908373ffffffffffffffffffffffffffffffffffffffff1602179055506040518060400160405280601381526020017f57616974696e6720746f2062652074616b656e00000000000000000000000000815250600560006002548152602001908152602001600020600401908051906020019061350e929190615233565b5061351761519a565b6005600060025481526020019081526020016000206040518060a0016040529081600082015481526020016001820160009054906101000a900473ffffffffffffffffffffffffffffffffffffffff1673ffffffffffffffffffffffffffffffffffffffff1673ffffffffffffffffffffffffffffffffffffffff1681526020016002820160009054906101000a900473ffffffffffffffffffffffffffffffffffffffff1673ffffffffffffffffffffffffffffffffffffffff1673ffffffffffffffffffffffffffffffffffffffff1681526020016003820160009054906101000a900473ffffffffffffffffffffffffffffffffffffffff1673ffffffffffffffffffffffffffffffffffffffff1673ffffffffffffffffffffffffffffffffffffffff168152602001600482018054600181600116156101000203166002900480601f0160208091040260200160405190810160405280929190818152602001828054600181600116156101000203166002900480156136dc5780601f106136b1576101008083540402835291602001916136dc565b820191906000526020600020905b8154815290600101906020018083116136bf57829003601f168201915b50505050508152505090507fdee303c48f7b44652f5d82116a4b5121c9318a94e0c8492082fbb44f1ad3fc11816020015182606001518360800151604051808473ffffffffffffffffffffffffffffffffffffffff1673ffffffffffffffffffffffffffffffffffffffff1681526020018373ffffffffffffffffffffffffffffffffffffffff1673ffffffffffffffffffffffffffffffffffffffff16815260200180602001828103825283818151815260200191508051906020019080838360005b838110156137bb5780820151818401526020810190506137a0565b50505050905090810190601f1680156137e85780820380516001836020036101000a031916815260200191505b5094505050505060405180910390a150505050505050565b6040518060400160405280600881526020017f436f6d706c65746500000000000000000000000000000000000000000000000081525081565b6040518060400160405280600981526020017f43616e63656c6c6564000000000000000000000000000000000000000000000081525081565b6004602052806000526040600020600091509050806000015490806001015490806002015490806003015490806004018054600181600116156101000203166002900480601f0160208091040260200160405190810160405280929190818152602001828054600181600116156101000203166002900480156139365780601f1061390b57610100808354040283529160200191613936565b820191906000526020600020905b81548152906001019060200180831161391957829003601f168201915b5050505050908060050154905086565b60016002540160028190555060008651116139c9576040517f08c379a00000000000000000000000000000000000000000000000000000000081526004018080602001828103825260178152602001807f73656e6465724e616d652069732072657175697265642100000000000000000081525060200191505060405180910390fd5b633b9aca00851180156139e057506402540be3ff85105b613a35576040517f08c379a00000000000000000000000000000000000000000000000000000000081526004018080602001828103825260228152602001806153de6022913960400191505060405180910390fd5b6000845111613aac576040517f08c379a000000000000000000000000000000000000000000000000000000000815260040180806020018281038252601c8152602001807f5069636b2075702061646472657373206973207265717569726564210000000081525060200191505060405180910390fd5b6000835111613b23576040517f08c379a000000000000000000000000000000000000000000000000000000000815260040180806020018281038252601d8152602001807f5368697070696e6720616464726573732069732072657175697265642100000081525060200191505060405180910390fd5b6000825111613b9a576040517f08c379a00000000000000000000000000000000000000000000000000000000081526004018080602001828103825260198152602001807f72656365697665724e616d65206973207265717569726564210000000000000081525060200191505060405180910390fd5b633b9aca0081118015613bb0575063773593ff81105b613c05576040517f08c379a00000000000000000000000000000000000000000000000000000000081526004018080602001828103825260228152602001806153de6022913960400191505060405180910390fd5b60025460036000600254815260200190815260200160002060000181905550856003600060025481526020019081526020016000206001019080519060200190613c50929190615233565b508460036000600254815260200190815260200160002060020181905550836003600060025481526020019081526020016000206003019080519060200190613c9a929190615233565b50826003600060025481526020019081526020016000206004019080519060200190613cc7929190615233565b50816003600060025481526020019081526020016000206005019080519060200190613cf4929190615233565b508060036000600254815260200190815260200160002060060181905550613d1a6152b3565b6003600060025481526020019081526020016000206040518060e001604052908160008201548152602001600182018054600181600116156101000203166002900480601f016020809104026020016040519081016040528092919081815260200182805460018160011615610100020316600290048015613ddd5780601f10613db257610100808354040283529160200191613ddd565b820191906000526020600020905b815481529060010190602001808311613dc057829003601f168201915b5050505050815260200160028201548152602001600382018054600181600116156101000203166002900480601f016020809104026020016040519081016040528092919081815260200182805460018160011615610100020316600290048015613e895780601f10613e5e57610100808354040283529160200191613e89565b820191906000526020600020905b815481529060010190602001808311613e6c57829003601f168201915b50505050508152602001600482018054600181600116156101000203166002900480601f016020809104026020016040519081016040528092919081815260200182805460018160011615610100020316600290048015613f2b5780601f10613f0057610100808354040283529160200191613f2b565b820191906000526020600020905b815481529060010190602001808311613f0e57829003601f168201915b50505050508152602001600582018054600181600116156101000203166002900480601f016020809104026020016040519081016040528092919081815260200182805460018160011615610100020316600290048015613fcd5780601f10613fa257610100808354040283529160200191613fcd565b820191906000526020600020905b815481529060010190602001808311613fb057829003601f168201915b5050505050815260200160068201548152505090507f2e690a37ae9d503abae2b970ec5cb3dcb3f08a7111e4541d37282e14290e157c816000015182602001518360400151846060015185608001518660a001518760c00151604051808881526020018060200187815260200180602001806020018060200186815260200185810385528b818151815260200191508051906020019080838360005b83811015614084578082015181840152602081019050614069565b50505050905090810190601f1680156140b15780820380516001836020036101000a031916815260200191505b50858103845289818151815260200191508051906020019080838360005b838110156140ea5780820151818401526020810190506140cf565b50505050905090810190601f1680156141175780820380516001836020036101000a031916815260200191505b50858103835288818151815260200191508051906020019080838360005b83811015614150578082015181840152602081019050614135565b50505050905090810190601f16801561417d5780820380516001836020036101000a031916815260200191505b50858103825287818151815260200191508051906020019080838360005b838110156141b657808201518184015260208101905061419b565b50505050905090810190601f1680156141e35780820380516001836020036101000a031916815260200191505b509b50505050505050505050505060405180910390a150505050505050565b60025481565b8173ffffffffffffffffffffffffffffffffffffffff166108fc829081150290604051600060405180830381858888f1935050505015801561424e573d6000803e3d6000fd5b505050565b600160009054906101000a900473ffffffffffffffffffffffffffffffffffffffff1673ffffffffffffffffffffffffffffffffffffffff163373ffffffffffffffffffffffffffffffffffffffff16146142f9576040517f08c379a00000000000000000000000000000000000000000000000000000000081526004018080602001828103825260278152602001806153666027913960400191505060405180910390fd5b614301615164565b600460008381526020019081526020016000206040518060c001604052908160008201548152602001600182015481526020016002820154815260200160038201548152602001600482018054600181600116156101000203166002900480601f0160208091040260200160405190810160405280929190818152602001828054600181600116156101000203166002900480156143e05780601f106143b5576101008083540402835291602001916143e0565b820191906000526020600020905b8154815290600101906020018083116143c357829003601f168201915b5050505050815260200160058201548152505090506143fd61519a565b600560008481526020019081526020016000206040518060a0016040529081600082015481526020016001820160009054906101000a900473ffffffffffffffffffffffffffffffffffffffff1673ffffffffffffffffffffffffffffffffffffffff1673ffffffffffffffffffffffffffffffffffffffff1681526020016002820160009054906101000a900473ffffffffffffffffffffffffffffffffffffffff1673ffffffffffffffffffffffffffffffffffffffff1673ffffffffffffffffffffffffffffffffffffffff1681526020016003820160009054906101000a900473ffffffffffffffffffffffffffffffffffffffff1673ffffffffffffffffffffffffffffffffffffffff1673ffffffffffffffffffffffffffffffffffffffff168152602001600482018054600181600116156101000203166002900480601f0160208091040260200160405190810160405280929190818152602001828054600181600116156101000203166002900480156145c05780601f10614595576101008083540402835291602001916145c0565b820191906000526020600020905b8154815290600101906020018083116145a357829003601f168201915b505050505081525050905061460e81608001516040518060400160405280600881526020017f436f6d706c6574650000000000000000000000000000000000000000000000008152506150a7565b614680576040517f08c379a00000000000000000000000000000000000000000000000000000000081526004018080602001828103825260198152602001807f4f726465722073686f756c6420626520636f6e6669726d65640000000000000081525060200191505060405180910390fd5b60018260a00151033410156146fd576040517f08c379a00000000000000000000000000000000000000000000000000000000081526004018080602001828103825260118152602001807f4e6f7420656e6f756768206d6f6e65792100000000000000000000000000000081525060200191505060405180910390fd5b614712816040015160018460a0015103614208565b7f9c9533e464028a469befa55d1d41ca0b9d94a677d9fa69c98ea1383572a988c4816040015160018460a0015103604051808373ffffffffffffffffffffffffffffffffffffffff1673ffffffffffffffffffffffffffffffffffffffff1681526020018281526020019250505060405180910390a1505050565b600281565b60066020528060005260406000206000915090508060000154908060020154908060030154905083565b6040518060400160405280601481526020017f57616974696e6720666f722064656c697665727900000000000000000000000081525081565b600160009054906101000a900473ffffffffffffffffffffffffffffffffffffffff1681565b676124fee993bc000081565b6040518060400160405280601381526020017f57616974696e6720746f2062652074616b656e0000000000000000000000000081525081565b6148686152b3565b600360008481526020019081526020016000206040518060e001604052908160008201548152602001600182018054600181600116156101000203166002900480601f0160208091040260200160405190810160405280929190818152602001828054600181600116156101000203166002900480156149295780601f106148fe57610100808354040283529160200191614929565b820191906000526020600020905b81548152906001019060200180831161490c57829003601f168201915b5050505050815260200160028201548152602001600382018054600181600116156101000203166002900480601f0160208091040260200160405190810160405280929190818152602001828054600181600116156101000203166002900480156149d55780601f106149aa576101008083540402835291602001916149d5565b820191906000526020600020905b8154815290600101906020018083116149b857829003601f168201915b50505050508152602001600482018054600181600116156101000203166002900480601f016020809104026020016040519081016040528092919081815260200182805460018160011615610100020316600290048015614a775780601f10614a4c57610100808354040283529160200191614a77565b820191906000526020600020905b815481529060010190602001808311614a5a57829003601f168201915b50505050508152602001600582018054600181600116156101000203166002900480601f016020809104026020016040519081016040528092919081815260200182805460018160011615610100020316600290048015614b195780601f10614aee57610100808354040283529160200191614b19565b820191906000526020600020905b815481529060010190602001808311614afc57829003601f168201915b505050505081526020016006820154815250509050614b3661519a565b600560008581526020019081526020016000206040518060a0016040529081600082015481526020016001820160009054906101000a900473ffffffffffffffffffffffffffffffffffffffff1673ffffffffffffffffffffffffffffffffffffffff1673ffffffffffffffffffffffffffffffffffffffff1681526020016002820160009054906101000a900473ffffffffffffffffffffffffffffffffffffffff1673ffffffffffffffffffffffffffffffffffffffff1673ffffffffffffffffffffffffffffffffffffffff1681526020016003820160009054906101000a900473ffffffffffffffffffffffffffffffffffffffff1673ffffffffffffffffffffffffffffffffffffffff1673ffffffffffffffffffffffffffffffffffffffff168152602001600482018054600181600116156101000203166002900480601f016020809104026020016040519081016040528092919081815260200182805460018160011615610100020316600290048015614cf95780601f10614cce57610100808354040283529160200191614cf9565b820191906000526020600020905b815481529060010190602001808311614cdc57829003601f168201915b505050505081525050905060008090505b600660003373ffffffffffffffffffffffffffffffffffffffff1673ffffffffffffffffffffffffffffffffffffffff16815260200190815260200160002060010180549050811015614e235784600660003373ffffffffffffffffffffffffffffffffffffffff1673ffffffffffffffffffffffffffffffffffffffff1681526020019081526020016000206001018281548110614da557fe5b90600052602060002001541415614e1657600660003373ffffffffffffffffffffffffffffffffffffffff1673ffffffffffffffffffffffffffffffffffffffff1681526020019081526020016000206001018181548110614e0357fe5b9060005260206000200160009055614e23565b8080600101915050614d0a565b506040518060400160405280601e81526020017f44656c6976657265642077616974696e6720636f6e6669726d6174696f6e00008152508160800181905250600660003373ffffffffffffffffffffffffffffffffffffffff1673ffffffffffffffffffffffffffffffffffffffff16815260200190815260200160002060020160008154809291906001900391905055507fb145cbe91d8fd23a528e50bdd6fcbe13ca7d296399969564c6fc00ed048a803982600001518260600151836080015186604051808581526020018473ffffffffffffffffffffffffffffffffffffffff1673ffffffffffffffffffffffffffffffffffffffff16815260200180602001838152602001828103825284818151815260200191508051906020019080838360005b83811015614f64578082015181840152602081019050614f49565b50505050905090810190601f168015614f915780820380516001836020036101000a031916815260200191505b509550505050505060405180910390a17f3928366714139c620e5b298330b82e11478d3ca2a25fad785a8867599812c775600660003373ffffffffffffffffffffffffffffffffffffffff1673ffffffffffffffffffffffffffffffffffffffff168152602001908152602001600020600101600660003373ffffffffffffffffffffffffffffffffffffffff1673ffffffffffffffffffffffffffffffffffffffff168152602001908152602001600020600201546040518080602001838152602001828103825284818154815260200191508054801561509257602002820191906000526020600020905b81548152602001906001019080831161507e575b5050935050505060405180910390a150505050565b600081518351146150bb576000905061515e565b60008090505b8351811015615158578281815181106150d657fe5b602001015160f81c60f81b7effffffffffffffffffffffffffffffffffffffffffffffffffffffffffffff191684828151811061510f57fe5b602001015160f81c60f81b7effffffffffffffffffffffffffffffffffffffffffffffffffffffffffffff19161461514b57600091505061515e565b80806001019150506150c1565b50600190505b92915050565b6040518060c001604052806000815260200160008152602001600081526020016000815260200160608152602001600081525090565b6040518060a0016040528060008152602001600073ffffffffffffffffffffffffffffffffffffffff168152602001600073ffffffffffffffffffffffffffffffffffffffff168152602001600073ffffffffffffffffffffffffffffffffffffffff168152602001606081525090565b6040518060800160405280600081526020016060815260200160008152602001600081525090565b828054600181600116156101000203166002900490600052602060002090601f016020900481019282601f1061527457805160ff19168380011785556152a2565b828001600101855582156152a2579182015b828111156152a1578251825591602001919060010190615286565b5b5090506152af91906152f0565b5090565b6040518060e00160405280600081526020016060815260200160008152602001606081526020016060815260200160608152602001600081525090565b61531291905b8082111561530e5760008160009055506001016152f6565b5090565b9056fe4f6e6c79206465706c6f7965722063616e20726566756e64206d6f6e657920746f2070617263656c53656e6465724f726465722073686f756c6420626520726561647920746f2062652074616b656e214f6e6c79206465706c6f7965722063616e2073656e64206d6f6e657920746f20636f75726965724f726465722073686f756c642062652077616974696e6720666f72206120636f6e6669726d6174696f6e6f72646572207765696768742073686f756c642062652077697468696e207468652072616e6765506c6561736520696e70757420636f72726563742070686f6e65206e756d6265722173746172742074696d652073686f756c6420626520736d616c6c6572207468616e20656e642074696d65214e756d626572206f6620636f757269657227732070617263656c732073686f756c64206e6f7420657863656564a265627a7a723158201a4aac95e1a6e9b36787327feb8b1fa896624a00bbe379951d53a7d99ffb18f864736f6c63430005100032",
  "source": "pragma solidity >=0.4.21 <0.7.0;\r\n\r\ncontract Express {\r\n    string public expressName;\r\n    address payable public deployer;\r\n    uint256 public totalNumber = 0;\r\n    uint256 public constant price1 = 3 ether;\r\n    uint256 public constant price2 = 5 ether;\r\n    uint256 public constant price3 = 7 ether;\r\n    string public constant status1 = \"Waiting to be taken\";\r\n    string public constant status2 = \"Waiting for delivery\";\r\n    string public constant status3 = \"Delivered waiting confirmation\";\r\n    string public constant status4 = \"Complete\";\r\n    string public constant status5 = \"Cancelled\";\r\n    uint256 public constant parcelNumPerHour = 2;\r\n    struct Order1 {\r\n        uint256 orderId;\r\n        string senderName;\r\n        uint256 senderPhone;\r\n        string pickupAddr;\r\n        string shippingAddr;\r\n        string receiverName;\r\n        uint256 receiverPhone;\r\n    }\r\n\r\n    struct Order2 {\r\n        uint256 orderId;\r\n        uint256 startTime;\r\n        uint256 endTime;\r\n        uint256 orderWeight;\r\n        string orderType;\r\n        uint256 orderPrice;\r\n    }\r\n\r\n    struct Order3 {\r\n        uint256 orderId;\r\n        address payable parcelSender;\r\n        address payable courier;\r\n        address payable receiver;\r\n        string orderStatus;\r\n    }\r\n\r\n    struct Courier {\r\n        uint256 courierGrade;\r\n        uint256[] courierOrders;\r\n        uint256 curOrdersNum; //\r\n        uint256 totalGradesNum;\r\n    }\r\n\r\n    mapping(uint256 => Order1) public orders1;\r\n    mapping(uint256 => Order2) public orders2;\r\n    mapping(uint256 => Order3) public orders3;\r\n    mapping(address => Courier) public couriers;\r\n    //event\r\n    event orderCreated1(\r\n        uint256 orderId,\r\n        string senderName,\r\n        uint256 senderPhone,\r\n        string pickupAddr,\r\n        string shippingAddr,\r\n        string receiverName,\r\n        uint256 receiverPhone\r\n    );\r\n\r\n    event orderCreated2(\r\n        uint256 orderId,\r\n        uint256 startTime,\r\n        uint256 endTime,\r\n        uint256 orderWeight,\r\n        string orderType,\r\n        uint256 orderPrice\r\n    );\r\n\r\n    event orderCreated3(\r\n        address payable parcelSender,\r\n        address payable receiver,\r\n        string orderStatus\r\n    );\r\n\r\n    event orderCancelled(\r\n        uint256 orderId,\r\n        address payable parcelSender,\r\n        address payable receiver,\r\n        string orderStatus\r\n    );\r\n\r\n    event refundGot(address payable parcelSender, uint256 refundMoney);\r\n\r\n    event orderTaken(\r\n        uint256 orderId,\r\n        address payable courier,\r\n        string orderStatus\r\n    );\r\n\r\n    event courierTaken(uint256[] courierOrders, uint256 curOrdersNum);\r\n\r\n    event orderDelivered(\r\n        uint256 orderId,\r\n        address payable receiver,\r\n        string orderStatus,\r\n        uint256 currentTime\r\n    );\r\n\r\n    event courierDelivered(uint256[] courierOrders, uint256 curOrdersNum);\r\n\r\n    event orderConfirmed(\r\n        uint256 orderId,\r\n        address payable parcelSender,\r\n        address payable courier,\r\n        address payable receiver,\r\n        string orderStatus\r\n    );\r\n\r\n    event courierGotPaid(address payable courier, uint256 paidMoney);\r\n\r\n    event orderComplete(\r\n        uint256 orderId,\r\n        address payable parcelSender,\r\n        address payable courier,\r\n        address payable receiver,\r\n        string orderStatus,\r\n        uint256 grade\r\n    );\r\n\r\n    constructor() public {\r\n        expressName = \"Ethereum Express.com\";\r\n        deployer = msg.sender;\r\n    }\r\n\r\n    //make orders\r\n    function createOrder1(\r\n        string memory _senderName,\r\n        uint256 _senderPhone,\r\n        string memory _pickupAddr,\r\n        string memory _shippingAddr,\r\n        string memory _receiverName,\r\n        uint256 _receiverPhone\r\n    ) public {\r\n        totalNumber = totalNumber + 1;\r\n        require(bytes(_senderName).length > 0, \"senderName is required!\");\r\n        require(\r\n            _senderPhone > 1000000000 && _senderPhone < 9999999999,\r\n            \"Please input correct phone number!\"\r\n        );\r\n        require(bytes(_pickupAddr).length > 0, \"Pick up address is required!\");\r\n        require(\r\n            bytes(_shippingAddr).length > 0,\r\n            \"Shipping address is required!\"\r\n        );\r\n        require(bytes(_receiverName).length > 0, \"receiverName is required!\");\r\n        require(\r\n            _receiverPhone > 1000000000 && _receiverPhone < 1999999999,\r\n            \"Please input correct phone number!\"\r\n        );\r\n        orders1[totalNumber].orderId = totalNumber;\r\n        orders1[totalNumber].senderName = _senderName;\r\n        orders1[totalNumber].senderPhone = _senderPhone;\r\n        orders1[totalNumber].pickupAddr = _pickupAddr;\r\n        orders1[totalNumber].shippingAddr = _shippingAddr;\r\n        orders1[totalNumber].receiverName = _receiverName;\r\n        orders1[totalNumber].receiverPhone = _receiverPhone;\r\n        Order1 memory _order1 = orders1[totalNumber];\r\n        emit orderCreated1(\r\n            _order1.orderId,\r\n            _order1.senderName,\r\n            _order1.senderPhone,\r\n            _order1.pickupAddr,\r\n            _order1.shippingAddr,\r\n            _order1.receiverName,\r\n            _order1.receiverPhone\r\n        );\r\n    }\r\n\r\n    //make orders\r\n    function createOrder2(\r\n        uint256 _startTime,\r\n        uint256 _endTime,\r\n        uint256 _orderWeight,\r\n        string memory _orderType,\r\n        address payable _receiver\r\n    ) public payable {\r\n        require(\r\n            _startTime < _endTime,\r\n            \"start time should be smaller than end time!\"\r\n        );\r\n        require(\r\n            _orderWeight > 0 && _orderWeight <= 50,\r\n            \"order weight should be within the range\"\r\n        );\r\n        orders2[totalNumber].orderId = totalNumber;\r\n        orders2[totalNumber].startTime = _startTime;\r\n        orders2[totalNumber].endTime = _endTime;\r\n        orders2[totalNumber].orderWeight = _orderWeight;\r\n        orders2[totalNumber].orderType = _orderType;\r\n        if (_orderWeight > 0 && _orderWeight <= 10) {\r\n            orders2[totalNumber].orderPrice = price1;\r\n        } else if (_orderWeight > 10 && _orderWeight <= 30) {\r\n            orders2[totalNumber].orderPrice = price2;\r\n        } else if (_orderWeight > 30 && _orderWeight <= 50) {\r\n            orders2[totalNumber].orderPrice = price3;\r\n        }\r\n        require(\r\n            msg.value >= orders2[totalNumber].orderPrice,\r\n            \"Not enough ether to create order\"\r\n        );\r\n        Order2 memory _order2 = orders2[totalNumber];\r\n        sendEther(deployer, _order2.orderPrice);\r\n        emit orderCreated2(\r\n            _order2.orderId,\r\n            _order2.startTime,\r\n            _order2.endTime,\r\n            _order2.orderWeight,\r\n            _order2.orderType,\r\n            _order2.orderPrice\r\n        );\r\n        orders3[totalNumber].orderId = totalNumber;\r\n        orders3[totalNumber].parcelSender = msg.sender;\r\n        orders3[totalNumber].receiver = _receiver;\r\n        orders3[totalNumber].orderStatus = status1;\r\n        Order3 memory _order3 = orders3[totalNumber];\r\n        emit orderCreated3(\r\n            _order3.parcelSender,\r\n            _order3.receiver,\r\n            _order3.orderStatus\r\n        );\r\n    }\r\n\r\n\r\n    //cancel order\r\n    function cancelOrder(uint256 _orderId) public payable {\r\n        Order3 memory _order3 = orders3[_orderId];\r\n        require(\r\n            _orderId > 0 && _orderId <= totalNumber,\r\n            \"Order should be created!\"\r\n        );\r\n        require(\r\n            utilCompareInternal(_order3.orderStatus, status1),\r\n            \"Order could not be cancelled!\"\r\n        );\r\n        _order3.orderStatus = status5;\r\n        emit orderCancelled(\r\n            _order3.orderId,\r\n            _order3.parcelSender,\r\n            _order3.receiver,\r\n            _order3.orderStatus\r\n        );\r\n    }\r\n\r\n    function refund(uint256 _orderId) public payable {\r\n        require(\r\n            msg.sender == deployer,\r\n            \"Only deployer can refund money to parcelSender\"\r\n        );\r\n        Order2 memory _order2 = orders2[_orderId];\r\n        Order3 memory _order3 = orders3[_orderId];\r\n        require(\r\n            utilCompareInternal(_order3.orderStatus, status5),\r\n            \"Order should be cancelled\"\r\n        );\r\n        require(\r\n            msg.value == _order2.orderPrice - 1,\r\n            \"Not enough refund money!\"\r\n        );\r\n        sendEther(_order3.parcelSender, _order2.orderPrice - 1);\r\n\r\n        emit refundGot(_order3.parcelSender, _order2.orderPrice - 1);\r\n    }\r\n\r\n    //Courier takes order\r\n    function takeOrder(uint256 _orderId, uint256 _currentTime) public {\r\n        Order2 memory _order2 = orders2[_orderId];\r\n        Order3 memory _order3 = orders3[_orderId];\r\n        require(\r\n            _orderId > 0 && _orderId <= totalNumber,\r\n            \"Order should be ready to be taken!\"\r\n        );\r\n        require(\r\n            utilCompareInternal(_order3.orderStatus, status1),\r\n            \"Order should not be taken yet!\"\r\n        );\r\n        uint256 limitTime = _order2.endTime - _currentTime;\r\n        require(\r\n            couriers[msg.sender].curOrdersNum < limitTime * parcelNumPerHour,\r\n            \"Number of courier's parcels should not exceed\"\r\n        );\r\n        _order3.courier = msg.sender;\r\n        _order3.orderStatus = status2;\r\n        couriers[msg.sender].courierOrders.push(_orderId);\r\n        couriers[msg.sender].curOrdersNum++;\r\n        emit orderTaken(_order3.orderId, _order3.courier, _order3.orderStatus);\r\n        emit courierTaken(\r\n            couriers[msg.sender].courierOrders,\r\n            couriers[msg.sender].curOrdersNum\r\n        );\r\n    }\r\n\r\n    function utilCompareInternal(string memory a, string memory b)\r\n        internal\r\n        pure\r\n        returns (bool)\r\n    {\r\n        if (bytes(a).length != bytes(b).length) {\r\n            return false;\r\n        }\r\n        for (uint256 i = 0; i < bytes(a).length; i++) {\r\n            if (bytes(a)[i] != bytes(b)[i]) {\r\n                return false;\r\n            }\r\n        }\r\n        return true;\r\n    }\r\n\r\n    function deliverOrder(uint256 _orderId, uint256 _currentTime) public {\r\n        Order1 memory _order1 = orders1[_orderId];\r\n        Order3 memory _order3 = orders3[_orderId];\r\n        for (\r\n            uint256 i = 0;\r\n            i < couriers[msg.sender].courierOrders.length;\r\n            i++\r\n        ) {\r\n            if (couriers[msg.sender].courierOrders[i] == _orderId) {\r\n                delete couriers[msg.sender].courierOrders[i];\r\n                break;\r\n            }\r\n        }\r\n        _order3.orderStatus = status3;\r\n        couriers[msg.sender].curOrdersNum--;\r\n        emit orderDelivered(\r\n            _order1.orderId,\r\n            _order3.receiver,\r\n            _order3.orderStatus,\r\n            _currentTime\r\n        );\r\n        emit courierDelivered(\r\n            couriers[msg.sender].courierOrders,\r\n            couriers[msg.sender].curOrdersNum\r\n        );\r\n    }\r\n\r\n    function confirmOrder(uint256 _orderId) public {\r\n        Order3 memory _order3 = orders3[_orderId];\r\n        require(\r\n            utilCompareInternal(_order3.orderStatus, status2),\r\n            \"Order should be waiting for a confirmation\"\r\n        );\r\n        require(\r\n            _order3.receiver == msg.sender,\r\n            \"Only receiver can confirm order\"\r\n        );\r\n        _order3.orderStatus = status3;\r\n        emit orderConfirmed(\r\n            _order3.orderId,\r\n            _order3.parcelSender,\r\n            _order3.courier,\r\n            _order3.receiver,\r\n            _order3.orderStatus\r\n        );\r\n    }\r\n\r\n    function payToCourier(uint256 _orderId) public payable {\r\n        require(\r\n            msg.sender == deployer,\r\n            \"Only deployer can send money to courier\"\r\n        );\r\n        Order2 memory _order2 = orders2[_orderId];\r\n        Order3 memory _order3 = orders3[_orderId];\r\n        require(\r\n            utilCompareInternal(_order3.orderStatus, status4),\r\n            \"Order should be confirmed\"\r\n        );\r\n        require(msg.value >= _order2.orderPrice - 1, \"Not enough money!\");\r\n        sendEther(_order3.courier, _order2.orderPrice - 1);\r\n\r\n        emit courierGotPaid(_order3.courier, _order2.orderPrice - 1);\r\n    }\r\n\r\n    function makeGrade(uint256 _orderId, uint256 _grade) public view {\r\n        Order3 memory _order3 = orders3[_orderId];\r\n        require(\r\n            _order3.receiver == msg.sender,\r\n            \"Only receiver can confirm order\"\r\n        );\r\n        require(\r\n            msg.sender == deployer,\r\n            \"Only deployer can refund money to parcelSender\"\r\n        );\r\n        Courier memory _courier = couriers[_order3.courier];\r\n        _courier.totalGradesNum++;\r\n        //?cannot support float type\r\n        _courier.courierGrade = (_grade + _courier.courierGrade * (_courier.totalGradesNum - 1)) /\r\n            (_courier.totalGradesNum);\r\n\r\n    }\r\n\r\n    function sendEther(address payable _address, uint256 value) public payable {\r\n        _address.transfer(value);\r\n    }\r\n}\r\n",
  "sourcePath": "F:\\documents\\Desktop\\ubccourse\\EECE571g\\project\\src\\contracts\\express.sol",
  "compiler": {
    "name": "solc",
    "version": "0.5.16+commit.9c3226ce.Emscripten.clang"
  },
  "schemaVersion": "3.0.23",
  "updatedAt": "2020-03-09T01:41:00.397Z",
  "devdoc": {
    "methods": {}
  },
  "userdoc": {
    "methods": {}
  }
}