{
  "contractName": "Express",
  "abi": [
    {
      "inputs": [],
      "payable": false,
      "stateMutability": "nonpayable",
      "type": "constructor"
    },
    {
      "anonymous": false,
      "inputs": [
        {
          "indexed": false,
          "internalType": "uint256[]",
          "name": "courierOrders",
          "type": "uint256[]"
        },
        {
          "indexed": false,
          "internalType": "uint256",
          "name": "curOrdersNum",
          "type": "uint256"
        }
      ],
      "name": "courierDelivered",
      "type": "event"
    },
    {
      "anonymous": false,
      "inputs": [
        {
          "indexed": false,
          "internalType": "uint256[]",
          "name": "courierOrders",
          "type": "uint256[]"
        },
        {
          "indexed": false,
          "internalType": "uint256",
          "name": "curOrdersNum",
          "type": "uint256"
        }
      ],
      "name": "courierTaken",
      "type": "event"
    },
    {
      "anonymous": false,
      "inputs": [
        {
          "indexed": false,
          "internalType": "uint256",
          "name": "orderId",
          "type": "uint256"
        },
        {
          "indexed": false,
          "internalType": "address payable",
          "name": "parcelSender",
          "type": "address"
        },
        {
          "indexed": false,
          "internalType": "address",
          "name": "receiver",
          "type": "address"
        },
        {
          "indexed": false,
          "internalType": "uint256",
          "name": "orderStatus",
          "type": "uint256"
        }
      ],
      "name": "orderCancelled",
      "type": "event"
    },
    {
      "anonymous": false,
      "inputs": [
        {
          "indexed": false,
          "internalType": "uint256",
          "name": "orderId",
          "type": "uint256"
        },
        {
          "indexed": false,
          "internalType": "address payable",
          "name": "parcelSender",
          "type": "address"
        },
        {
          "indexed": false,
          "internalType": "address payable",
          "name": "courier",
          "type": "address"
        },
        {
          "indexed": false,
          "internalType": "address",
          "name": "receiver",
          "type": "address"
        },
        {
          "indexed": false,
          "internalType": "uint256",
          "name": "orderStatus",
          "type": "uint256"
        },
        {
          "indexed": false,
          "internalType": "uint256",
          "name": "grade",
          "type": "uint256"
        }
      ],
      "name": "orderComplete",
      "type": "event"
    },
    {
      "anonymous": false,
      "inputs": [
        {
          "indexed": false,
          "internalType": "uint256",
          "name": "orderId",
          "type": "uint256"
        },
        {
          "indexed": false,
          "internalType": "address payable",
          "name": "parcelSender",
          "type": "address"
        },
        {
          "indexed": false,
          "internalType": "address payable",
          "name": "courier",
          "type": "address"
        },
        {
          "indexed": false,
          "internalType": "address",
          "name": "receiver",
          "type": "address"
        },
        {
          "indexed": false,
          "internalType": "uint256",
          "name": "orderStatus",
          "type": "uint256"
        }
      ],
      "name": "orderConfirmed",
      "type": "event"
    },
    {
      "anonymous": false,
      "inputs": [
        {
          "indexed": false,
          "internalType": "uint256",
          "name": "orderId",
          "type": "uint256"
        },
        {
          "indexed": false,
          "internalType": "string",
          "name": "senderName",
          "type": "string"
        },
        {
          "indexed": false,
          "internalType": "uint256",
          "name": "senderPhone",
          "type": "uint256"
        },
        {
          "indexed": false,
          "internalType": "string",
          "name": "pickupAddr",
          "type": "string"
        },
        {
          "indexed": false,
          "internalType": "string",
          "name": "shippingAddr",
          "type": "string"
        },
        {
          "indexed": false,
          "internalType": "string",
          "name": "receiverName",
          "type": "string"
        },
        {
          "indexed": false,
          "internalType": "uint256",
          "name": "receiverPhone",
          "type": "uint256"
        }
      ],
      "name": "orderCreated1",
      "type": "event"
    },
    {
      "anonymous": false,
      "inputs": [
        {
          "indexed": false,
          "internalType": "uint256",
          "name": "orderId",
          "type": "uint256"
        },
        {
          "indexed": false,
          "internalType": "uint256",
          "name": "startTime",
          "type": "uint256"
        },
        {
          "indexed": false,
          "internalType": "uint256",
          "name": "endTime",
          "type": "uint256"
        },
        {
          "indexed": false,
          "internalType": "uint256",
          "name": "orderWeight",
          "type": "uint256"
        },
        {
          "indexed": false,
          "internalType": "string",
          "name": "orderType",
          "type": "string"
        },
        {
          "indexed": false,
          "internalType": "uint256",
          "name": "orderPrice",
          "type": "uint256"
        }
      ],
      "name": "orderCreated2",
      "type": "event"
    },
    {
      "anonymous": false,
      "inputs": [
        {
          "indexed": false,
          "internalType": "address payable",
          "name": "parcelSender",
          "type": "address"
        },
        {
          "indexed": false,
          "internalType": "address",
          "name": "receiver",
          "type": "address"
        },
        {
          "indexed": false,
          "internalType": "uint256",
          "name": "orderStatus",
          "type": "uint256"
        }
      ],
      "name": "orderCreated3",
      "type": "event"
    },
    {
      "anonymous": false,
      "inputs": [
        {
          "indexed": false,
          "internalType": "uint256",
          "name": "orderId",
          "type": "uint256"
        },
        {
          "indexed": false,
          "internalType": "address",
          "name": "courier",
          "type": "address"
        },
        {
          "indexed": false,
          "internalType": "address",
          "name": "receiver",
          "type": "address"
        },
        {
          "indexed": false,
          "internalType": "uint256",
          "name": "orderStatus",
          "type": "uint256"
        },
        {
          "indexed": false,
          "internalType": "uint256",
          "name": "currentTime",
          "type": "uint256"
        }
      ],
      "name": "orderDelivered",
      "type": "event"
    },
    {
      "anonymous": false,
      "inputs": [
        {
          "indexed": false,
          "internalType": "uint256",
          "name": "orderId",
          "type": "uint256"
        },
        {
          "indexed": false,
          "internalType": "address payable",
          "name": "courier",
          "type": "address"
        },
        {
          "indexed": false,
          "internalType": "uint256",
          "name": "orderStatus",
          "type": "uint256"
        }
      ],
      "name": "orderTaken",
      "type": "event"
    },
    {
      "constant": true,
      "inputs": [
        {
          "internalType": "address",
          "name": "",
          "type": "address"
        }
      ],
      "name": "couriers",
      "outputs": [
        {
          "internalType": "uint256",
          "name": "courierGrade",
          "type": "uint256"
        },
        {
          "internalType": "uint256",
          "name": "curOrdersNum",
          "type": "uint256"
        },
        {
          "internalType": "uint256",
          "name": "totalGradesNum",
          "type": "uint256"
        }
      ],
      "payable": false,
      "stateMutability": "view",
      "type": "function"
    },
    {
      "constant": true,
      "inputs": [],
      "name": "expressName",
      "outputs": [
        {
          "internalType": "string",
          "name": "",
          "type": "string"
        }
      ],
      "payable": false,
      "stateMutability": "view",
      "type": "function"
    },
    {
      "constant": true,
      "inputs": [
        {
          "internalType": "uint256",
          "name": "",
          "type": "uint256"
        }
      ],
      "name": "orders1",
      "outputs": [
        {
          "internalType": "uint256",
          "name": "orderId",
          "type": "uint256"
        },
        {
          "internalType": "string",
          "name": "senderName",
          "type": "string"
        },
        {
          "internalType": "uint256",
          "name": "senderPhone",
          "type": "uint256"
        },
        {
          "internalType": "string",
          "name": "pickupAddr",
          "type": "string"
        },
        {
          "internalType": "string",
          "name": "shippingAddr",
          "type": "string"
        },
        {
          "internalType": "string",
          "name": "receiverName",
          "type": "string"
        },
        {
          "internalType": "uint256",
          "name": "receiverPhone",
          "type": "uint256"
        }
      ],
      "payable": false,
      "stateMutability": "view",
      "type": "function"
    },
    {
      "constant": true,
      "inputs": [
        {
          "internalType": "uint256",
          "name": "",
          "type": "uint256"
        }
      ],
      "name": "orders2",
      "outputs": [
        {
          "internalType": "uint256",
          "name": "orderId",
          "type": "uint256"
        },
        {
          "internalType": "uint256",
          "name": "startTime",
          "type": "uint256"
        },
        {
          "internalType": "uint256",
          "name": "endTime",
          "type": "uint256"
        },
        {
          "internalType": "uint256",
          "name": "orderWeight",
          "type": "uint256"
        },
        {
          "internalType": "string",
          "name": "orderType",
          "type": "string"
        },
        {
          "internalType": "uint256",
          "name": "orderPrice",
          "type": "uint256"
        }
      ],
      "payable": false,
      "stateMutability": "view",
      "type": "function"
    },
    {
      "constant": true,
      "inputs": [
        {
          "internalType": "uint256",
          "name": "",
          "type": "uint256"
        }
      ],
      "name": "orders3",
      "outputs": [
        {
          "internalType": "uint256",
          "name": "orderId",
          "type": "uint256"
        },
        {
          "internalType": "address payable",
          "name": "parcelSender",
          "type": "address"
        },
        {
          "internalType": "address payable",
          "name": "courier",
          "type": "address"
        },
        {
          "internalType": "address",
          "name": "receiver",
          "type": "address"
        },
        {
          "internalType": "uint256",
          "name": "orderStatus",
          "type": "uint256"
        }
      ],
      "payable": false,
      "stateMutability": "view",
      "type": "function"
    },
    {
      "constant": true,
      "inputs": [],
      "name": "parcelNumPerHour",
      "outputs": [
        {
          "internalType": "uint256",
          "name": "",
          "type": "uint256"
        }
      ],
      "payable": false,
      "stateMutability": "view",
      "type": "function"
    },
    {
      "constant": true,
      "inputs": [],
      "name": "price1",
      "outputs": [
        {
          "internalType": "uint256",
          "name": "",
          "type": "uint256"
        }
      ],
      "payable": false,
      "stateMutability": "view",
      "type": "function"
    },
    {
      "constant": true,
      "inputs": [],
      "name": "price2",
      "outputs": [
        {
          "internalType": "uint256",
          "name": "",
          "type": "uint256"
        }
      ],
      "payable": false,
      "stateMutability": "view",
      "type": "function"
    },
    {
      "constant": true,
      "inputs": [],
      "name": "price3",
      "outputs": [
        {
          "internalType": "uint256",
          "name": "",
          "type": "uint256"
        }
      ],
      "payable": false,
      "stateMutability": "view",
      "type": "function"
    },
    {
      "constant": true,
      "inputs": [],
      "name": "status1",
      "outputs": [
        {
          "internalType": "uint256",
          "name": "",
          "type": "uint256"
        }
      ],
      "payable": false,
      "stateMutability": "view",
      "type": "function"
    },
    {
      "constant": true,
      "inputs": [],
      "name": "status2",
      "outputs": [
        {
          "internalType": "uint256",
          "name": "",
          "type": "uint256"
        }
      ],
      "payable": false,
      "stateMutability": "view",
      "type": "function"
    },
    {
      "constant": true,
      "inputs": [],
      "name": "status3",
      "outputs": [
        {
          "internalType": "uint256",
          "name": "",
          "type": "uint256"
        }
      ],
      "payable": false,
      "stateMutability": "view",
      "type": "function"
    },
    {
      "constant": true,
      "inputs": [],
      "name": "status4",
      "outputs": [
        {
          "internalType": "uint256",
          "name": "",
          "type": "uint256"
        }
      ],
      "payable": false,
      "stateMutability": "view",
      "type": "function"
    },
    {
      "constant": true,
      "inputs": [],
      "name": "status5",
      "outputs": [
        {
          "internalType": "uint256",
          "name": "",
          "type": "uint256"
        }
      ],
      "payable": false,
      "stateMutability": "view",
      "type": "function"
    },
    {
      "constant": true,
      "inputs": [],
      "name": "totalNumber",
      "outputs": [
        {
          "internalType": "uint256",
          "name": "",
          "type": "uint256"
        }
      ],
      "payable": false,
      "stateMutability": "view",
      "type": "function"
    },
    {
      "constant": false,
      "inputs": [
        {
          "internalType": "string",
          "name": "_senderName",
          "type": "string"
        },
        {
          "internalType": "uint256",
          "name": "_senderPhone",
          "type": "uint256"
        },
        {
          "internalType": "string",
          "name": "_pickupAddr",
          "type": "string"
        },
        {
          "internalType": "string",
          "name": "_shippingAddr",
          "type": "string"
        },
        {
          "internalType": "string",
          "name": "_receiverName",
          "type": "string"
        },
        {
          "internalType": "uint256",
          "name": "_receiverPhone",
          "type": "uint256"
        },
        {
          "internalType": "address",
          "name": "_receiver",
          "type": "address"
        },
        {
          "internalType": "uint256",
          "name": "_startTime",
          "type": "uint256"
        },
        {
          "internalType": "uint256",
          "name": "_endTime",
          "type": "uint256"
        },
        {
          "internalType": "uint256",
          "name": "_orderWeight",
          "type": "uint256"
        },
        {
          "internalType": "string",
          "name": "_orderType",
          "type": "string"
        }
      ],
      "name": "createOrder",
      "outputs": [],
      "payable": true,
      "stateMutability": "payable",
      "type": "function"
    },
    {
      "constant": false,
      "inputs": [
        {
          "internalType": "uint256",
          "name": "_orderId",
          "type": "uint256"
        }
      ],
      "name": "cancelOrder",
      "outputs": [],
      "payable": false,
      "stateMutability": "nonpayable",
      "type": "function"
    },
    {
      "constant": false,
      "inputs": [
        {
          "internalType": "uint256",
          "name": "_orderId",
          "type": "uint256"
        },
        {
          "internalType": "uint256",
          "name": "_currentTime",
          "type": "uint256"
        }
      ],
      "name": "takeOrder",
      "outputs": [],
      "payable": false,
      "stateMutability": "nonpayable",
      "type": "function"
    },
    {
      "constant": false,
      "inputs": [
        {
          "internalType": "uint256",
          "name": "_orderId",
          "type": "uint256"
        },
        {
          "internalType": "uint256",
          "name": "_currentTime",
          "type": "uint256"
        }
      ],
      "name": "deliverOrder",
      "outputs": [],
      "payable": false,
      "stateMutability": "nonpayable",
      "type": "function"
    },
    {
      "constant": false,
      "inputs": [
        {
          "internalType": "uint256",
          "name": "_orderId",
          "type": "uint256"
        }
      ],
      "name": "confirmOrder",
      "outputs": [],
      "payable": false,
      "stateMutability": "nonpayable",
      "type": "function"
    },
    {
      "constant": true,
      "inputs": [
        {
          "internalType": "uint256",
          "name": "_orderId",
          "type": "uint256"
        },
        {
          "internalType": "uint256",
          "name": "_grade",
          "type": "uint256"
        }
      ],
      "name": "makeGrade",
      "outputs": [],
      "payable": false,
      "stateMutability": "view",
      "type": "function"
    }
  ],
  "bytecode": "0x608060405260006001553480156200001657600080fd5b506040518060400160405280601481526020017f457468657265756d20457870726573732e636f6d00000000000000000000000081525060009080519060200190620000649291906200006b565b506200011a565b828054600181600116156101000203166002900490600052602060002090601f016020900481019282601f10620000ae57805160ff1916838001178555620000df565b82800160010185558215620000df579182015b82811115620000de578251825591602001919060010190620000c1565b5b509050620000ee9190620000f2565b5090565b6200011791905b8082111562000113576000816000905550600101620000f9565b5090565b90565b614533806200012a6000396000f3fe60806040526004361061012a5760003560e01c8063b5570f83116100ab578063ccd5fcb91161006f578063ccd5fcb9146107bf578063d5da6a2b14610832578063d778c9111461085d578063debbd19814610888578063e589d58214610bf2578063e6e110ce14610c1d5761012a565b8063b5570f831461063c578063b7c5a73114610667578063b9ae731314610692578063c0daddfd14610769578063cc01c963146107945761012a565b80633db5b7ec116100f25780633db5b7ec146104c6578063418cb9b614610556578063514fcac71461059b5780636caf25ce146105d65780638ac7d79c146106015761012a565b80631dac85be1461012f57806327a3181d1461015a5780632eab93cb1461018557806334f0ef8b146101ca578063356f9a21146103d7575b600080fd5b34801561013b57600080fd5b50610144610c62565b6040518082815260200191505060405180910390f35b34801561016657600080fd5b5061016f610c67565b6040518082815260200191505060405180910390f35b34801561019157600080fd5b506101c8600480360360408110156101a857600080fd5b810190808035906020019092919080359060200190929190505050610c73565b005b3480156101d657600080fd5b50610203600480360360208110156101ed57600080fd5b8101908080359060200190929190505050611565565b604051808881526020018060200187815260200180602001806020018060200186815260200185810385528b818151815260200191508051906020019080838360005b83811015610261578082015181840152602081019050610246565b50505050905090810190601f16801561028e5780820380516001836020036101000a031916815260200191505b50858103845289818151815260200191508051906020019080838360005b838110156102c75780820151818401526020810190506102ac565b50505050905090810190601f1680156102f45780820380516001836020036101000a031916815260200191505b50858103835288818151815260200191508051906020019080838360005b8381101561032d578082015181840152602081019050610312565b50505050905090810190601f16801561035a5780820380516001836020036101000a031916815260200191505b50858103825287818151815260200191508051906020019080838360005b83811015610393578082015181840152602081019050610378565b50505050905090810190601f1680156103c05780820380516001836020036101000a031916815260200191505b509b50505050505050505050505060405180910390f35b3480156103e357600080fd5b50610410600480360360208110156103fa57600080fd5b8101908080359060200190929190505050611807565b604051808681526020018573ffffffffffffffffffffffffffffffffffffffff1673ffffffffffffffffffffffffffffffffffffffff1681526020018473ffffffffffffffffffffffffffffffffffffffff1673ffffffffffffffffffffffffffffffffffffffff1681526020018373ffffffffffffffffffffffffffffffffffffffff1673ffffffffffffffffffffffffffffffffffffffff1681526020018281526020019550505050505060405180910390f35b3480156104d257600080fd5b506104db61189d565b6040518080602001828103825283818151815260200191508051906020019080838360005b8381101561051b578082015181840152602081019050610500565b50505050905090810190601f1680156105485780820380516001836020036101000a031916815260200191505b509250505060405180910390f35b34801561056257600080fd5b506105996004803603604081101561057957600080fd5b81019080803590602001909291908035906020019092919050505061193b565b005b3480156105a757600080fd5b506105d4600480360360208110156105be57600080fd5b8101908080359060200190929190505050611c28565b005b3480156105e257600080fd5b506105eb6121fe565b6040518082815260200191505060405180910390f35b34801561060d57600080fd5b5061063a6004803603602081101561062457600080fd5b810190808035906020019092919050505061220a565b005b34801561064857600080fd5b5061065161280c565b6040518082815260200191505060405180910390f35b34801561067357600080fd5b5061067c612811565b6040518082815260200191505060405180910390f35b34801561069e57600080fd5b506106cb600480360360208110156106b557600080fd5b8101908080359060200190929190505050612816565b6040518087815260200186815260200185815260200184815260200180602001838152602001828103825284818151815260200191508051906020019080838360005b8381101561072957808201518184015260208101905061070e565b50505050905090810190601f1680156107565780820380516001836020036101000a031916815260200191505b5097505050505050505060405180910390f35b34801561077557600080fd5b5061077e6128ea565b6040518082815260200191505060405180910390f35b3480156107a057600080fd5b506107a96128f0565b6040518082815260200191505060405180910390f35b3480156107cb57600080fd5b5061080e600480360360208110156107e257600080fd5b81019080803573ffffffffffffffffffffffffffffffffffffffff1690602001909291905050506128f5565b60405180848152602001838152602001828152602001935050505060405180910390f35b34801561083e57600080fd5b5061084761291f565b6040518082815260200191505060405180910390f35b34801561086957600080fd5b50610872612924565b6040518082815260200191505060405180910390f35b610bf0600480360361016081101561089f57600080fd5b81019080803590602001906401000000008111156108bc57600080fd5b8201836020820111156108ce57600080fd5b803590602001918460018302840111640100000000831117156108f057600080fd5b91908080601f016020809104026020016040519081016040528093929190818152602001838380828437600081840152601f19601f820116905080830192505050505050509192919290803590602001909291908035906020019064010000000081111561095d57600080fd5b82018360208201111561096f57600080fd5b8035906020019184600183028401116401000000008311171561099157600080fd5b91908080601f016020809104026020016040519081016040528093929190818152602001838380828437600081840152601f19601f820116905080830192505050505050509192919290803590602001906401000000008111156109f457600080fd5b820183602082011115610a0657600080fd5b80359060200191846001830284011164010000000083111715610a2857600080fd5b91908080601f016020809104026020016040519081016040528093929190818152602001838380828437600081840152601f19601f82011690508083019250505050505050919291929080359060200190640100000000811115610a8b57600080fd5b820183602082011115610a9d57600080fd5b80359060200191846001830284011164010000000083111715610abf57600080fd5b91908080601f016020809104026020016040519081016040528093929190818152602001838380828437600081840152601f19601f82011690508083019250505050505050919291929080359060200190929190803573ffffffffffffffffffffffffffffffffffffffff16906020019092919080359060200190929190803590602001909291908035906020019092919080359060200190640100000000811115610b6a57600080fd5b820183602082011115610b7c57600080fd5b80359060200191846001830284011164010000000083111715610b9e57600080fd5b91908080601f016020809104026020016040519081016040528093929190818152602001838380828437600081840152601f19601f820116905080830192505050505050509192919290505050612930565b005b348015610bfe57600080fd5b50610c0761394f565b6040518082815260200191505060405180910390f35b348015610c2957600080fd5b50610c6060048036036040811015610c4057600080fd5b810190808035906020019092919080359060200190929190505050613954565b005b606781565b674563918244f4000081565b610c7b614217565b600360008481526020019081526020016000206040518060c001604052908160008201548152602001600182015481526020016002820154815260200160038201548152602001600482018054600181600116156101000203166002900480601f016020809104026020016040519081016040528092919081815260200182805460018160011615610100020316600290048015610d5a5780601f10610d2f57610100808354040283529160200191610d5a565b820191906000526020600020905b815481529060010190602001808311610d3d57829003601f168201915b505050505081526020016005820154815250509050610d7761424d565b600460008581526020019081526020016000206040518060a0016040529081600082015481526020016001820160009054906101000a900473ffffffffffffffffffffffffffffffffffffffff1673ffffffffffffffffffffffffffffffffffffffff1673ffffffffffffffffffffffffffffffffffffffff1681526020016002820160009054906101000a900473ffffffffffffffffffffffffffffffffffffffff1673ffffffffffffffffffffffffffffffffffffffff1673ffffffffffffffffffffffffffffffffffffffff1681526020016003820160009054906101000a900473ffffffffffffffffffffffffffffffffffffffff1673ffffffffffffffffffffffffffffffffffffffff1673ffffffffffffffffffffffffffffffffffffffff1681526020016004820154815250509050806020015173ffffffffffffffffffffffffffffffffffffffff163373ffffffffffffffffffffffffffffffffffffffff161415610f53576040517f08c379a000000000000000000000000000000000000000000000000000000000815260040180806020018281038252601e8152602001807f43616e6e6f742062652074616b656e2062792068696d2f68657273656c66000081525060200191505060405180910390fd5b806060015173ffffffffffffffffffffffffffffffffffffffff163373ffffffffffffffffffffffffffffffffffffffff161415610ff9576040517f08c379a000000000000000000000000000000000000000000000000000000000815260040180806020018281038252601b8152602001807f43616e6e6f742062652074616b656e206279207265636569766572000000000081525060200191505060405180910390fd5b60008411801561100b57506001548411155b611060576040517f08c379a00000000000000000000000000000000000000000000000000000000081526004018080602001828103825260228152602001806143c96022913960400191505060405180910390fd5b60658160800151146110da576040517f08c379a000000000000000000000000000000000000000000000000000000000815260040180806020018281038252601e8152602001807f4f726465722073686f756c64206e6f742062652074616b656e2079657421000081525060200191505060405180910390fd5b81604001518310611136576040517f08c379a000000000000000000000000000000000000000000000000000000000815260040180806020018281038252602281526020018061445e6022913960400191505060405180910390fd5b600083836040015103905060028102600560003373ffffffffffffffffffffffffffffffffffffffff1673ffffffffffffffffffffffffffffffffffffffff16815260200190815260200160002060020154106111de576040517f08c379a000000000000000000000000000000000000000000000000000000000815260040180806020018281038252602d8152602001806144ab602d913960400191505060405180910390fd5b33826040019073ffffffffffffffffffffffffffffffffffffffff16908173ffffffffffffffffffffffffffffffffffffffff1681525050606682608001818152505081600460008781526020019081526020016000206000820151816000015560208201518160010160006101000a81548173ffffffffffffffffffffffffffffffffffffffff021916908373ffffffffffffffffffffffffffffffffffffffff16021790555060408201518160020160006101000a81548173ffffffffffffffffffffffffffffffffffffffff021916908373ffffffffffffffffffffffffffffffffffffffff16021790555060608201518160030160006101000a81548173ffffffffffffffffffffffffffffffffffffffff021916908373ffffffffffffffffffffffffffffffffffffffff16021790555060808201518160040155905050600560003373ffffffffffffffffffffffffffffffffffffffff1673ffffffffffffffffffffffffffffffffffffffff168152602001908152602001600020600101859080600181540180825580915050906001820390600052602060002001600090919290919091505550600560003373ffffffffffffffffffffffffffffffffffffffff1673ffffffffffffffffffffffffffffffffffffffff168152602001908152602001600020600201600081548092919060010191905055507f6254819b6fa5128d32574b63c9afecb477e4ea58d0deb49261a95c8b1f1199e4826000015183604001518460800151604051808481526020018373ffffffffffffffffffffffffffffffffffffffff1673ffffffffffffffffffffffffffffffffffffffff168152602001828152602001935050505060405180910390a17fa481c9acdf5c01e811dac2edbcce239f5864bdc8a7fff221227ddca98bb054b5600560003373ffffffffffffffffffffffffffffffffffffffff1673ffffffffffffffffffffffffffffffffffffffff168152602001908152602001600020600101600560003373ffffffffffffffffffffffffffffffffffffffff1673ffffffffffffffffffffffffffffffffffffffff168152602001908152602001600020600201546040518080602001838152602001828103825284818154815260200191508054801561154f57602002820191906000526020600020905b81548152602001906001019080831161153b575b5050935050505060405180910390a15050505050565b6002602052806000526040600020600091509050806000015490806001018054600181600116156101000203166002900480601f0160208091040260200160405190810160405280929190818152602001828054600181600116156101000203166002900480156116175780601f106115ec57610100808354040283529160200191611617565b820191906000526020600020905b8154815290600101906020018083116115fa57829003601f168201915b505050505090806002015490806003018054600181600116156101000203166002900480601f0160208091040260200160405190810160405280929190818152602001828054600181600116156101000203166002900480156116bb5780601f10611690576101008083540402835291602001916116bb565b820191906000526020600020905b81548152906001019060200180831161169e57829003601f168201915b505050505090806004018054600181600116156101000203166002900480601f0160208091040260200160405190810160405280929190818152602001828054600181600116156101000203166002900480156117595780601f1061172e57610100808354040283529160200191611759565b820191906000526020600020905b81548152906001019060200180831161173c57829003601f168201915b505050505090806005018054600181600116156101000203166002900480601f0160208091040260200160405190810160405280929190818152602001828054600181600116156101000203166002900480156117f75780601f106117cc576101008083540402835291602001916117f7565b820191906000526020600020905b8154815290600101906020018083116117da57829003601f168201915b5050505050908060060154905087565b60046020528060005260406000206000915090508060000154908060010160009054906101000a900473ffffffffffffffffffffffffffffffffffffffff16908060020160009054906101000a900473ffffffffffffffffffffffffffffffffffffffff16908060030160009054906101000a900473ffffffffffffffffffffffffffffffffffffffff16908060040154905085565b60008054600181600116156101000203166002900480601f0160208091040260200160405190810160405280929190818152602001828054600181600116156101000203166002900480156119335780601f1061190857610100808354040283529160200191611933565b820191906000526020600020905b81548152906001019060200180831161191657829003601f168201915b505050505081565b61194361424d565b600460008481526020019081526020016000206040518060a0016040529081600082015481526020016001820160009054906101000a900473ffffffffffffffffffffffffffffffffffffffff1673ffffffffffffffffffffffffffffffffffffffff1673ffffffffffffffffffffffffffffffffffffffff1681526020016002820160009054906101000a900473ffffffffffffffffffffffffffffffffffffffff1673ffffffffffffffffffffffffffffffffffffffff1673ffffffffffffffffffffffffffffffffffffffff1681526020016003820160009054906101000a900473ffffffffffffffffffffffffffffffffffffffff1673ffffffffffffffffffffffffffffffffffffffff1673ffffffffffffffffffffffffffffffffffffffff16815260200160048201548152505090503373ffffffffffffffffffffffffffffffffffffffff16816060015173ffffffffffffffffffffffffffffffffffffffff1614611b1e576040517f08c379a000000000000000000000000000000000000000000000000000000000815260040180806020018281038252601f8152602001807f4f6e6c792072656365697665722063616e20636f6e6669726d206f726465720081525060200191505060405180910390fd5b611b266142be565b60056000836040015173ffffffffffffffffffffffffffffffffffffffff1673ffffffffffffffffffffffffffffffffffffffff1681526020019081526020016000206040518060800160405290816000820154815260200160018201805480602002602001604051908101604052809291908181526020018280548015611bcd57602002820191906000526020600020905b815481526020019060010190808311611bb9575b505050505081526020016002820154815260200160038201548152505090508060600180518091906001018152505080606001516001826060015103826000015102840181611c1857fe5b0481600001818152505050505050565b611c30614217565b600360008381526020019081526020016000206040518060c001604052908160008201548152602001600182015481526020016002820154815260200160038201548152602001600482018054600181600116156101000203166002900480601f016020809104026020016040519081016040528092919081815260200182805460018160011615610100020316600290048015611d0f5780601f10611ce457610100808354040283529160200191611d0f565b820191906000526020600020905b815481529060010190602001808311611cf257829003601f168201915b505050505081526020016005820154815250509050611d2c61424d565b600460008481526020019081526020016000206040518060a0016040529081600082015481526020016001820160009054906101000a900473ffffffffffffffffffffffffffffffffffffffff1673ffffffffffffffffffffffffffffffffffffffff1673ffffffffffffffffffffffffffffffffffffffff1681526020016002820160009054906101000a900473ffffffffffffffffffffffffffffffffffffffff1673ffffffffffffffffffffffffffffffffffffffff1673ffffffffffffffffffffffffffffffffffffffff1681526020016003820160009054906101000a900473ffffffffffffffffffffffffffffffffffffffff1673ffffffffffffffffffffffffffffffffffffffff1673ffffffffffffffffffffffffffffffffffffffff1681526020016004820154815250509050806020015173ffffffffffffffffffffffffffffffffffffffff163373ffffffffffffffffffffffffffffffffffffffff1614611eea576040517f08c379a00000000000000000000000000000000000000000000000000000000081526004018080602001828103825260278152602001806144d86027913960400191505060405180910390fd5b600083118015611efc57506001548311155b611f6e576040517f08c379a00000000000000000000000000000000000000000000000000000000081526004018080602001828103825260188152602001807f4f726465722073686f756c64206265206372656174656421000000000000000081525060200191505060405180910390fd5b6065816080015114611fe8576040517f08c379a000000000000000000000000000000000000000000000000000000000815260040180806020018281038252601d8152602001807f4f7264657220636f756c64206e6f742062652063616e63656c6c65642100000081525060200191505060405180910390fd5b606981608001818152505080600460008581526020019081526020016000206000820151816000015560208201518160010160006101000a81548173ffffffffffffffffffffffffffffffffffffffff021916908373ffffffffffffffffffffffffffffffffffffffff16021790555060408201518160020160006101000a81548173ffffffffffffffffffffffffffffffffffffffff021916908373ffffffffffffffffffffffffffffffffffffffff16021790555060608201518160030160006101000a81548173ffffffffffffffffffffffffffffffffffffffff021916908373ffffffffffffffffffffffffffffffffffffffff16021790555060808201518160040155905050806020015173ffffffffffffffffffffffffffffffffffffffff166108fc8360a001519081150290604051600060405180830381858888f19350505050158015612141573d6000803e3d6000fd5b507f17cbccfc367faa7a7a693dd8d72cafc83df479daa4b3826497cdce04a3b7f06a8160000151826020015183606001518460800151604051808581526020018473ffffffffffffffffffffffffffffffffffffffff1673ffffffffffffffffffffffffffffffffffffffff1681526020018373ffffffffffffffffffffffffffffffffffffffff1673ffffffffffffffffffffffffffffffffffffffff16815260200182815260200194505050505060405180910390a1505050565b6729a2241af62c000081565b600154811115612282576040517f08c379a00000000000000000000000000000000000000000000000000000000081526004018080602001828103825260168152602001807f4f726465724964206973206e6f6e2d657869737465640000000000000000000081525060200191505060405180910390fd5b61228a614217565b600360008381526020019081526020016000206040518060c001604052908160008201548152602001600182015481526020016002820154815260200160038201548152602001600482018054600181600116156101000203166002900480601f0160208091040260200160405190810160405280929190818152602001828054600181600116156101000203166002900480156123695780601f1061233e57610100808354040283529160200191612369565b820191906000526020600020905b81548152906001019060200180831161234c57829003601f168201915b50505050508152602001600582015481525050905061238661424d565b600460008481526020019081526020016000206040518060a0016040529081600082015481526020016001820160009054906101000a900473ffffffffffffffffffffffffffffffffffffffff1673ffffffffffffffffffffffffffffffffffffffff1673ffffffffffffffffffffffffffffffffffffffff1681526020016002820160009054906101000a900473ffffffffffffffffffffffffffffffffffffffff1673ffffffffffffffffffffffffffffffffffffffff1673ffffffffffffffffffffffffffffffffffffffff1681526020016003820160009054906101000a900473ffffffffffffffffffffffffffffffffffffffff1673ffffffffffffffffffffffffffffffffffffffff1673ffffffffffffffffffffffffffffffffffffffff16815260200160048201548152505090506067816080015114612519576040517f08c379a000000000000000000000000000000000000000000000000000000000815260040180806020018281038252602a8152602001806143eb602a913960400191505060405180910390fd5b3373ffffffffffffffffffffffffffffffffffffffff16816060015173ffffffffffffffffffffffffffffffffffffffff16146125be576040517f08c379a000000000000000000000000000000000000000000000000000000000815260040180806020018281038252601f8152602001807f4f6e6c792072656365697665722063616e20636f6e6669726d206f726465720081525060200191505060405180910390fd5b606881608001818152505080600460008581526020019081526020016000206000820151816000015560208201518160010160006101000a81548173ffffffffffffffffffffffffffffffffffffffff021916908373ffffffffffffffffffffffffffffffffffffffff16021790555060408201518160020160006101000a81548173ffffffffffffffffffffffffffffffffffffffff021916908373ffffffffffffffffffffffffffffffffffffffff16021790555060608201518160030160006101000a81548173ffffffffffffffffffffffffffffffffffffffff021916908373ffffffffffffffffffffffffffffffffffffffff160217905550608082015181600401559050507ff49fd70241c9c37ec11b833f6e9522a1a557fc01bdbc404c60f36a114503f59381600001518260200151836040015184606001518560800151604051808681526020018573ffffffffffffffffffffffffffffffffffffffff1673ffffffffffffffffffffffffffffffffffffffff1681526020018473ffffffffffffffffffffffffffffffffffffffff1673ffffffffffffffffffffffffffffffffffffffff1681526020018373ffffffffffffffffffffffffffffffffffffffff1673ffffffffffffffffffffffffffffffffffffffff1681526020018281526020019550505050505060405180910390a1806040015173ffffffffffffffffffffffffffffffffffffffff166108fc8360a001519081150290604051600060405180830381858888f19350505050158015612806573d6000803e3d6000fd5b50505050565b606881565b606981565b6003602052806000526040600020600091509050806000015490806001015490806002015490806003015490806004018054600181600116156101000203166002900480601f0160208091040260200160405190810160405280929190818152602001828054600181600116156101000203166002900480156128da5780601f106128af576101008083540402835291602001916128da565b820191906000526020600020905b8154815290600101906020018083116128bd57829003601f168201915b5050505050908060050154905086565b60015481565b600281565b60056020528060005260406000206000915090508060000154908060020154908060030154905083565b606681565b676124fee993bc000081565b60008b51116129a7576040517f08c379a00000000000000000000000000000000000000000000000000000000081526004018080602001828103825260178152602001807f73656e6465724e616d652069732072657175697265642100000000000000000081525060200191505060405180910390fd5b633b9aca008a1180156129be57506402540be3ff8a105b612a13576040517f08c379a000000000000000000000000000000000000000000000000000000000815260040180806020018281038252602281526020018061443c6022913960400191505060405180910390fd5b6000895111612a8a576040517f08c379a000000000000000000000000000000000000000000000000000000000815260040180806020018281038252601c8152602001807f5069636b2075702061646472657373206973207265717569726564210000000081525060200191505060405180910390fd5b6000885111612b01576040517f08c379a000000000000000000000000000000000000000000000000000000000815260040180806020018281038252601d8152602001807f5368697070696e6720616464726573732069732072657175697265642100000081525060200191505060405180910390fd5b6000875111612b78576040517f08c379a00000000000000000000000000000000000000000000000000000000081526004018080602001828103825260198152602001807f72656365697665724e616d65206973207265717569726564210000000000000081525060200191505060405180910390fd5b633b9aca0086118015612b8e575063773593ff86105b612be3576040517f08c379a000000000000000000000000000000000000000000000000000000000815260040180806020018281038252602281526020018061443c6022913960400191505060405180910390fd5b828410612c3b576040517f08c379a000000000000000000000000000000000000000000000000000000000815260040180806020018281038252602b815260200180614480602b913960400191505060405180910390fd5b600082118015612c4c575060328211155b612ca1576040517f08c379a00000000000000000000000000000000000000000000000000000000081526004018080602001828103825260278152602001806144156027913960400191505060405180910390fd5b6001805401600181905550600082118015612cbd5750600a8211155b15612cec576729a2241af62c000060036000600154815260200190815260200160002060050181905550612d6a565b600a82118015612cfd5750601e8211155b15612d2c57674563918244f4000060036000600154815260200190815260200160002060050181905550612d69565b601e82118015612d3d575060328211155b15612d6857676124fee993bc0000600360006001548152602001908152602001600020600501819055505b5b5b60036000600154815260200190815260200160002060050154341015612df8576040517f08c379a00000000000000000000000000000000000000000000000000000000081526004018080602001828103825260208152602001807f4e6f7420656e6f75676820657468657220746f20637265617465206f7264657281525060200191505060405180910390fd5b600154600260006001548152602001908152602001600020600001819055508a6002600060015481526020019081526020016000206001019080519060200190612e439291906142e6565b508960026000600154815260200190815260200160002060020181905550886002600060015481526020019081526020016000206003019080519060200190612e8d9291906142e6565b50876002600060015481526020019081526020016000206004019080519060200190612eba9291906142e6565b50866002600060015481526020019081526020016000206005019080519060200190612ee79291906142e6565b50856002600060015481526020019081526020016000206006018190555060015460036000600154815260200190815260200160002060000181905550836003600060015481526020019081526020016000206001018190555082600360006001548152602001908152602001600020600201819055508160036000600154815260200190815260200160002060030181905550806003600060015481526020019081526020016000206004019080519060200190612fa79291906142e6565b50600154600460006001548152602001908152602001600020600001819055503360046000600154815260200190815260200160002060010160006101000a81548173ffffffffffffffffffffffffffffffffffffffff021916908373ffffffffffffffffffffffffffffffffffffffff1602179055508460046000600154815260200190815260200160002060030160006101000a81548173ffffffffffffffffffffffffffffffffffffffff021916908373ffffffffffffffffffffffffffffffffffffffff16021790555060656004600060015481526020019081526020016000206004018190555061309b614366565b6002600060015481526020019081526020016000206040518060e001604052908160008201548152602001600182018054600181600116156101000203166002900480601f01602080910402602001604051908101604052809291908181526020018280546001816001161561010002031660029004801561315e5780601f106131335761010080835404028352916020019161315e565b820191906000526020600020905b81548152906001019060200180831161314157829003601f168201915b5050505050815260200160028201548152602001600382018054600181600116156101000203166002900480601f01602080910402602001604051908101604052809291908181526020018280546001816001161561010002031660029004801561320a5780601f106131df5761010080835404028352916020019161320a565b820191906000526020600020905b8154815290600101906020018083116131ed57829003601f168201915b50505050508152602001600482018054600181600116156101000203166002900480601f0160208091040260200160405190810160405280929190818152602001828054600181600116156101000203166002900480156132ac5780601f10613281576101008083540402835291602001916132ac565b820191906000526020600020905b81548152906001019060200180831161328f57829003601f168201915b50505050508152602001600582018054600181600116156101000203166002900480601f01602080910402602001604051908101604052809291908181526020018280546001816001161561010002031660029004801561334e5780601f106133235761010080835404028352916020019161334e565b820191906000526020600020905b81548152906001019060200180831161333157829003601f168201915b5050505050815260200160068201548152505090507f2e690a37ae9d503abae2b970ec5cb3dcb3f08a7111e4541d37282e14290e157c816000015182602001518360400151846060015185608001518660a001518760c00151604051808881526020018060200187815260200180602001806020018060200186815260200185810385528b818151815260200191508051906020019080838360005b838110156134055780820151818401526020810190506133ea565b50505050905090810190601f1680156134325780820380516001836020036101000a031916815260200191505b50858103845289818151815260200191508051906020019080838360005b8381101561346b578082015181840152602081019050613450565b50505050905090810190601f1680156134985780820380516001836020036101000a031916815260200191505b50858103835288818151815260200191508051906020019080838360005b838110156134d15780820151818401526020810190506134b6565b50505050905090810190601f1680156134fe5780820380516001836020036101000a031916815260200191505b50858103825287818151815260200191508051906020019080838360005b8381101561353757808201518184015260208101905061351c565b50505050905090810190601f1680156135645780820380516001836020036101000a031916815260200191505b509b50505050505050505050505060405180910390a1613582614217565b6003600060015481526020019081526020016000206040518060c001604052908160008201548152602001600182015481526020016002820154815260200160038201548152602001600482018054600181600116156101000203166002900480601f0160208091040260200160405190810160405280929190818152602001828054600181600116156101000203166002900480156136635780601f1061363857610100808354040283529160200191613663565b820191906000526020600020905b81548152906001019060200180831161364657829003601f168201915b5050505050815260200160058201548152505090507f790906e8e7cd1ed19a0b1102e6343037b8d9074d8addc2fa09e65d21ec86041d816000015182602001518360400151846060015185608001518660a001516040518087815260200186815260200185815260200184815260200180602001838152602001828103825284818151815260200191508051906020019080838360005b838110156137155780820151818401526020810190506136fa565b50505050905090810190601f1680156137425780820380516001836020036101000a031916815260200191505b5097505050505050505060405180910390a161375c61424d565b6004600060015481526020019081526020016000206040518060a0016040529081600082015481526020016001820160009054906101000a900473ffffffffffffffffffffffffffffffffffffffff1673ffffffffffffffffffffffffffffffffffffffff1673ffffffffffffffffffffffffffffffffffffffff1681526020016002820160009054906101000a900473ffffffffffffffffffffffffffffffffffffffff1673ffffffffffffffffffffffffffffffffffffffff1673ffffffffffffffffffffffffffffffffffffffff1681526020016003820160009054906101000a900473ffffffffffffffffffffffffffffffffffffffff1673ffffffffffffffffffffffffffffffffffffffff1673ffffffffffffffffffffffffffffffffffffffff16815260200160048201548152505090507fb4d1b81b3477bfd574da643fa8c9e482d38e638a5bcef88e089eb7003bf7db80816020015182606001518360800151604051808473ffffffffffffffffffffffffffffffffffffffff1673ffffffffffffffffffffffffffffffffffffffff1681526020018373ffffffffffffffffffffffffffffffffffffffff1673ffffffffffffffffffffffffffffffffffffffff168152602001828152602001935050505060405180910390a15050505050505050505050505050565b606581565b6001548211156139cc576040517f08c379a00000000000000000000000000000000000000000000000000000000081526004018080602001828103825260168152602001807f4f726465724964206973206e6f6e2d657869737465640000000000000000000081525060200191505060405180910390fd5b6139d4614366565b600260008481526020019081526020016000206040518060e001604052908160008201548152602001600182018054600181600116156101000203166002900480601f016020809104026020016040519081016040528092919081815260200182805460018160011615610100020316600290048015613a955780601f10613a6a57610100808354040283529160200191613a95565b820191906000526020600020905b815481529060010190602001808311613a7857829003601f168201915b5050505050815260200160028201548152602001600382018054600181600116156101000203166002900480601f016020809104026020016040519081016040528092919081815260200182805460018160011615610100020316600290048015613b415780601f10613b1657610100808354040283529160200191613b41565b820191906000526020600020905b815481529060010190602001808311613b2457829003601f168201915b50505050508152602001600482018054600181600116156101000203166002900480601f016020809104026020016040519081016040528092919081815260200182805460018160011615610100020316600290048015613be35780601f10613bb857610100808354040283529160200191613be3565b820191906000526020600020905b815481529060010190602001808311613bc657829003601f168201915b50505050508152602001600582018054600181600116156101000203166002900480601f016020809104026020016040519081016040528092919081815260200182805460018160011615610100020316600290048015613c855780601f10613c5a57610100808354040283529160200191613c85565b820191906000526020600020905b815481529060010190602001808311613c6857829003601f168201915b505050505081526020016006820154815250509050613ca261424d565b600460008581526020019081526020016000206040518060a0016040529081600082015481526020016001820160009054906101000a900473ffffffffffffffffffffffffffffffffffffffff1673ffffffffffffffffffffffffffffffffffffffff1673ffffffffffffffffffffffffffffffffffffffff1681526020016002820160009054906101000a900473ffffffffffffffffffffffffffffffffffffffff1673ffffffffffffffffffffffffffffffffffffffff1673ffffffffffffffffffffffffffffffffffffffff1681526020016003820160009054906101000a900473ffffffffffffffffffffffffffffffffffffffff1673ffffffffffffffffffffffffffffffffffffffff1673ffffffffffffffffffffffffffffffffffffffff168152602001600482015481525050905060008090505b600560003373ffffffffffffffffffffffffffffffffffffffff1673ffffffffffffffffffffffffffffffffffffffff16815260200190815260200160002060010180549050811015613ef75784600560003373ffffffffffffffffffffffffffffffffffffffff1673ffffffffffffffffffffffffffffffffffffffff1681526020019081526020016000206001018281548110613e7957fe5b90600052602060002001541415613eea57600560003373ffffffffffffffffffffffffffffffffffffffff1673ffffffffffffffffffffffffffffffffffffffff1681526020019081526020016000206001018181548110613ed757fe5b9060005260206000200160009055613ef7565b8080600101915050613dde565b50606781608001818152505080600460008681526020019081526020016000206000820151816000015560208201518160010160006101000a81548173ffffffffffffffffffffffffffffffffffffffff021916908373ffffffffffffffffffffffffffffffffffffffff16021790555060408201518160020160006101000a81548173ffffffffffffffffffffffffffffffffffffffff021916908373ffffffffffffffffffffffffffffffffffffffff16021790555060608201518160030160006101000a81548173ffffffffffffffffffffffffffffffffffffffff021916908373ffffffffffffffffffffffffffffffffffffffff16021790555060808201518160040155905050600560003373ffffffffffffffffffffffffffffffffffffffff1673ffffffffffffffffffffffffffffffffffffffff16815260200190815260200160002060020160008154809291906001900391905055507ffc4fa943e68392aac9a89ef49a51b3e57ac6e555dc46abbf03327f42bcf5d82f8260000151338360600151846080015187604051808681526020018573ffffffffffffffffffffffffffffffffffffffff1673ffffffffffffffffffffffffffffffffffffffff1681526020018473ffffffffffffffffffffffffffffffffffffffff1673ffffffffffffffffffffffffffffffffffffffff1681526020018381526020018281526020019550505050505060405180910390a17f3928366714139c620e5b298330b82e11478d3ca2a25fad785a8867599812c775600560003373ffffffffffffffffffffffffffffffffffffffff1673ffffffffffffffffffffffffffffffffffffffff168152602001908152602001600020600101600560003373ffffffffffffffffffffffffffffffffffffffff1673ffffffffffffffffffffffffffffffffffffffff168152602001908152602001600020600201546040518080602001838152602001828103825284818154815260200191508054801561420257602002820191906000526020600020905b8154815260200190600101908083116141ee575b5050935050505060405180910390a150505050565b6040518060c001604052806000815260200160008152602001600081526020016000815260200160608152602001600081525090565b6040518060a0016040528060008152602001600073ffffffffffffffffffffffffffffffffffffffff168152602001600073ffffffffffffffffffffffffffffffffffffffff168152602001600073ffffffffffffffffffffffffffffffffffffffff168152602001600081525090565b6040518060800160405280600081526020016060815260200160008152602001600081525090565b828054600181600116156101000203166002900490600052602060002090601f016020900481019282601f1061432757805160ff1916838001178555614355565b82800160010185558215614355579182015b82811115614354578251825591602001919060010190614339565b5b50905061436291906143a3565b5090565b6040518060e00160405280600081526020016060815260200160008152602001606081526020016060815260200160608152602001600081525090565b6143c591905b808211156143c15760008160009055506001016143a9565b5090565b9056fe4f726465722073686f756c6420626520726561647920746f2062652074616b656e214f726465722073686f756c642062652077616974696e6720666f72206120636f6e6669726d6174696f6e6f72646572207765696768742073686f756c642062652077697468696e207468652072616e6765506c6561736520696e70757420636f72726563742070686f6e65206e756d6265722143757272656e7454696d6520657863656564206f72646572277320656e6454696d6573746172742074696d652073686f756c6420626520736d616c6c6572207468616e20656e642074696d65214e756d626572206f6620636f757269657227732070617263656c732073686f756c64206e6f74206578636565644f6e6c792070617263656c53656e6465722063616e2063616e63656c2074686973206f72646572a265627a7a72315820cb9d40591417a2904ca0ac81ed27bde3cbfa35075dde4f12a7a293632a006db164736f6c63430005100032",
  "source": "pragma solidity >=0.4.21 <0.7.0;\r\n\r\ncontract Express {\r\n    string public expressName;\r\n    uint256 public totalNumber = 0;\r\n    uint256 public constant price1 = 3 ether;\r\n    uint256 public constant price2 = 5 ether;\r\n    uint256 public constant price3 = 7 ether;\r\n    uint256 public constant status1 = 101; //Waiting to be taken\r\n    uint256 public constant status2 = 102; //Waiting for delivery\r\n    uint256 public constant status3 = 103; //Delivered waiting confirmation\r\n    uint256 public constant status4 = 104; //Complete\r\n    uint256 public constant status5 = 105; //Cancelled\r\n    uint256 public constant parcelNumPerHour = 2;\r\n    struct Order1 {\r\n        uint256 orderId;\r\n        string senderName;\r\n        uint256 senderPhone;\r\n        string pickupAddr;\r\n        string shippingAddr;\r\n        string receiverName;\r\n        uint256 receiverPhone;\r\n    }\r\n\r\n    struct Order2 {\r\n        uint256 orderId;\r\n        uint256 startTime;\r\n        uint256 endTime;\r\n        uint256 orderWeight;\r\n        string orderType;\r\n        uint256 orderPrice;\r\n    }\r\n\r\n    struct Order3 {\r\n        uint256 orderId;\r\n        address payable parcelSender;\r\n        address payable courier;\r\n        address receiver;\r\n        uint256 orderStatus;\r\n    }\r\n\r\n    struct Courier {\r\n        uint256 courierGrade;\r\n        uint256[] courierOrders;\r\n        uint256 curOrdersNum; //\r\n        uint256 totalGradesNum;\r\n    }\r\n\r\n    mapping(uint256 => Order1) public orders1;\r\n    mapping(uint256 => Order2) public orders2;\r\n    mapping(uint256 => Order3) public orders3;\r\n    mapping(address => Courier) public couriers;\r\n    //event\r\n    event orderCreated1(\r\n        uint256 orderId,\r\n        string senderName,\r\n        uint256 senderPhone,\r\n        string pickupAddr,\r\n        string shippingAddr,\r\n        string receiverName,\r\n        uint256 receiverPhone\r\n    );\r\n\r\n    event orderCreated2(\r\n        uint256 orderId,\r\n        uint256 startTime,\r\n        uint256 endTime,\r\n        uint256 orderWeight,\r\n        string orderType,\r\n        uint256 orderPrice\r\n    );\r\n    event orderCreated3(\r\n          address payable parcelSender,\r\n          address receiver,\r\n           uint256 orderStatus\r\n        );\r\n\r\n    event orderCancelled(\r\n        uint256 orderId,\r\n        address payable parcelSender,\r\n        address receiver,\r\n        uint256 orderStatus\r\n    );\r\n\r\n\r\n    event orderTaken(\r\n        uint256 orderId,\r\n        address payable courier,\r\n        uint256 orderStatus\r\n    );\r\n\r\n    event courierTaken(uint256[] courierOrders, uint256 curOrdersNum);\r\n\r\n    event orderDelivered(\r\n        uint256 orderId,\r\n        address courier,\r\n        address receiver,\r\n        uint256 orderStatus,\r\n        uint256 currentTime\r\n    );\r\n\r\n    event courierDelivered(uint256[] courierOrders, uint256 curOrdersNum);\r\n\r\n    event orderConfirmed(\r\n        uint256 orderId,\r\n        address payable parcelSender,\r\n        address payable courier,\r\n        address receiver,\r\n        uint256 orderStatus\r\n    );\r\n\r\n    event orderComplete(\r\n        uint256 orderId,\r\n        address payable parcelSender,\r\n        address payable courier,\r\n        address receiver,\r\n        uint256 orderStatus,\r\n        uint256 grade\r\n    );\r\n\r\n    constructor() public {\r\n        expressName = \"Ethereum Express.com\";\r\n    }\r\n\r\n    //make orders\r\n    function createOrder(\r\n        string memory _senderName,\r\n        uint256 _senderPhone,\r\n        string memory _pickupAddr,\r\n        string memory _shippingAddr,\r\n        string memory _receiverName,\r\n        uint256 _receiverPhone,\r\n        address _receiver,\r\n        uint256 _startTime,\r\n        uint256 _endTime,\r\n        uint256 _orderWeight,\r\n        string memory _orderType\r\n\r\n    ) public payable{\r\n        require(bytes(_senderName).length > 0, \"senderName is required!\");\r\n        require(\r\n            _senderPhone > 1000000000 && _senderPhone < 9999999999,\r\n            \"Please input correct phone number!\"\r\n        );\r\n        require(bytes(_pickupAddr).length > 0, \"Pick up address is required!\");\r\n        require(\r\n            bytes(_shippingAddr).length > 0,\r\n            \"Shipping address is required!\"\r\n        );\r\n        require(bytes(_receiverName).length > 0, \"receiverName is required!\");\r\n        require(\r\n            _receiverPhone > 1000000000 && _receiverPhone < 1999999999,\r\n            \"Please input correct phone number!\"\r\n        );\r\n        require(\r\n            _startTime < _endTime,\r\n            \"start time should be smaller than end time!\"\r\n        );\r\n        require(\r\n            _orderWeight > 0 && _orderWeight <= 50,\r\n            \"order weight should be within the range\"\r\n        );\r\n        \r\n        totalNumber = totalNumber + 1;\r\n         if (_orderWeight > 0 && _orderWeight <= 10) {\r\n            orders2[totalNumber].orderPrice = price1;\r\n        } else if (_orderWeight > 10 && _orderWeight <= 30) {\r\n            orders2[totalNumber].orderPrice = price2;\r\n        } else if (_orderWeight > 30 && _orderWeight <= 50) {\r\n            orders2[totalNumber].orderPrice = price3;\r\n        }\r\n        require(\r\n            msg.value >= orders2[totalNumber].orderPrice,\r\n            \"Not enough ether to create order\"\r\n        );\r\n        orders1[totalNumber].orderId = totalNumber;\r\n        orders1[totalNumber].senderName = _senderName;\r\n        orders1[totalNumber].senderPhone = _senderPhone;\r\n        orders1[totalNumber].pickupAddr = _pickupAddr;\r\n        orders1[totalNumber].shippingAddr = _shippingAddr;\r\n        orders1[totalNumber].receiverName = _receiverName;\r\n        orders1[totalNumber].receiverPhone = _receiverPhone;\r\n        orders2[totalNumber].orderId = totalNumber;\r\n        orders2[totalNumber].startTime = _startTime;\r\n        orders2[totalNumber].endTime = _endTime;\r\n        orders2[totalNumber].orderWeight = _orderWeight;\r\n        orders2[totalNumber].orderType = _orderType;\r\n\r\n         orders3[totalNumber].orderId = totalNumber;\r\n        orders3[totalNumber].parcelSender = msg.sender;\r\n        orders3[totalNumber].receiver = _receiver;\r\n        orders3[totalNumber].orderStatus = status1;\r\n\r\n        Order1 memory _order1 = orders1[totalNumber];\r\n        emit orderCreated1(\r\n            _order1.orderId,\r\n            _order1.senderName,\r\n            _order1.senderPhone,\r\n            _order1.pickupAddr,\r\n            _order1.shippingAddr,\r\n            _order1.receiverName,\r\n            _order1.receiverPhone\r\n        );\r\n        Order2 memory _order2 = orders2[totalNumber];\r\n        emit orderCreated2(\r\n            _order2.orderId,\r\n            _order2.startTime,\r\n            _order2.endTime,\r\n            _order2.orderWeight,\r\n            _order2.orderType,\r\n            _order2.orderPrice\r\n        );\r\n\r\n        Order3 memory _order3 = orders3[totalNumber];\r\n        emit orderCreated3(\r\n            _order3.parcelSender,\r\n            _order3.receiver,\r\n            _order3.orderStatus\r\n        );\r\n    }\r\n\r\n\r\n\r\n    //cancel order\r\n    function cancelOrder(uint256 _orderId) public {\r\n        Order2 memory _order2 = orders2[_orderId];\r\n        Order3 memory _order3 = orders3[_orderId];\r\n        require(\r\n            msg.sender == _order3.parcelSender,\r\n            \"Only parcelSender can cancel this order\"\r\n        );\r\n\r\n        require(\r\n            _orderId > 0 && _orderId <= totalNumber,\r\n            \"Order should be created!\"\r\n        );\r\n        require(\r\n            _order3.orderStatus == status1,\r\n            \"Order could not be cancelled!\"\r\n        );\r\n        _order3.orderStatus = status5;\r\n        orders3[_orderId] = _order3;\r\n        _order3.parcelSender.transfer(_order2.orderPrice);\r\n        emit orderCancelled(\r\n            _order3.orderId,\r\n            _order3.parcelSender,\r\n            _order3.receiver,\r\n            _order3.orderStatus\r\n        );\r\n    }\r\n\r\n\r\n    //Courier takes order\r\n    function takeOrder(uint256 _orderId, uint256 _currentTime) public {\r\n        Order2 memory _order2 = orders2[_orderId];\r\n        Order3 memory _order3 = orders3[_orderId];\r\n         require(\r\n            msg.sender != _order3.parcelSender,\r\n            \"Cannot be taken by him/herself\"\r\n        );\r\n         require(\r\n            msg.sender != _order3.receiver,\r\n            \"Cannot be taken by receiver\"\r\n        );\r\n        require(\r\n            _orderId > 0 && _orderId <= totalNumber,\r\n            \"Order should be ready to be taken!\"\r\n        );\r\n        require(\r\n            _order3.orderStatus == status1,\r\n            \"Order should not be taken yet!\"\r\n        );\r\n        require(\r\n            _currentTime < _order2.endTime,\r\n            \"CurrentTime exceed order's endTime\"\r\n        );\r\n\r\n        uint256 limitTime = _order2.endTime - _currentTime;\r\n        require(\r\n            couriers[msg.sender].curOrdersNum < limitTime * parcelNumPerHour,\r\n            \"Number of courier's parcels should not exceed\"\r\n        );\r\n        _order3.courier = msg.sender;\r\n        _order3.orderStatus = status2;\r\n        orders3[_orderId] = _order3;\r\n        couriers[msg.sender].courierOrders.push(_orderId);\r\n        couriers[msg.sender].curOrdersNum++;\r\n        emit orderTaken(_order3.orderId, _order3.courier, _order3.orderStatus);\r\n        emit courierTaken(\r\n            couriers[msg.sender].courierOrders,\r\n            couriers[msg.sender].curOrdersNum\r\n        );\r\n    }\r\n\r\n    function deliverOrder(uint256 _orderId, uint256 _currentTime) public {\r\n        require(\r\n            _orderId <= totalNumber,\r\n            \"OrderId is non-existed\"\r\n        );\r\n        Order1 memory _order1 = orders1[_orderId];\r\n        Order3 memory _order3 = orders3[_orderId];\r\n        for (\r\n            uint256 i = 0;\r\n            i < couriers[msg.sender].courierOrders.length;\r\n            i++\r\n        ) {\r\n            if (couriers[msg.sender].courierOrders[i] == _orderId) {\r\n                delete couriers[msg.sender].courierOrders[i];\r\n                break;\r\n            }\r\n        }\r\n        _order3.orderStatus = status3;\r\n        orders3[_orderId] = _order3;\r\n        couriers[msg.sender].curOrdersNum--;\r\n        emit orderDelivered(\r\n            _order1.orderId,\r\n            msg.sender,\r\n            _order3.receiver,\r\n            _order3.orderStatus,\r\n            _currentTime\r\n        );\r\n        emit courierDelivered(\r\n            couriers[msg.sender].courierOrders,\r\n            couriers[msg.sender].curOrdersNum\r\n        );\r\n    }\r\n\r\n    function confirmOrder(uint256 _orderId) public {\r\n        require(\r\n            _orderId <= totalNumber,\r\n            \"OrderId is non-existed\"\r\n        );\r\n        Order2 memory _order2 = orders2[_orderId];\r\n        Order3 memory _order3 = orders3[_orderId];\r\n        require(\r\n            _order3.orderStatus == status3,\r\n            \"Order should be waiting for a confirmation\"\r\n        );\r\n        require(\r\n            _order3.receiver == msg.sender,\r\n            \"Only receiver can confirm order\"\r\n        );\r\n        _order3.orderStatus = status4;\r\n        orders3[_orderId] = _order3;\r\n        emit orderConfirmed(\r\n            _order3.orderId,\r\n            _order3.parcelSender,\r\n            _order3.courier,\r\n            _order3.receiver,\r\n            _order3.orderStatus\r\n        );\r\n       _order3.courier.transfer(_order2.orderPrice);\r\n    }\r\n\r\n    function makeGrade(uint256 _orderId, uint256 _grade) public view {\r\n        Order3 memory _order3 = orders3[_orderId];\r\n        require(\r\n            _order3.receiver == msg.sender,\r\n            \"Only receiver can confirm order\"\r\n        );\r\n        Courier memory _courier = couriers[_order3.courier];\r\n        _courier.totalGradesNum++;\r\n        //?cannot support float type\r\n        _courier.courierGrade = (_grade + _courier.courierGrade * (_courier.totalGradesNum - 1)) /\r\n            (_courier.totalGradesNum);\r\n\r\n    }\r\n\r\n}\r\n",
  "sourcePath": "C:\\571G\\ExpressProject\\src\\contracts\\express.sol",
  "compiler": {
    "name": "solc",
    "version": "0.5.16+commit.9c3226ce.Emscripten.clang"
  },
  "schemaVersion": "3.0.23",
  "updatedAt": "2020-03-30T17:39:12.977Z",
  "networkType": "ethereum",
  "devdoc": {
    "methods": {}
  },
  "userdoc": {
    "methods": {}
  }
}