{
  "contractName": "Express",
  "abi": [
    {
      "inputs": [],
      "payable": false,
      "stateMutability": "nonpayable",
      "type": "constructor"
    },
    {
      "anonymous": false,
      "inputs": [
        {
          "indexed": false,
          "internalType": "uint256[]",
          "name": "courierOrders",
          "type": "uint256[]"
        },
        {
          "indexed": false,
          "internalType": "uint256",
          "name": "curOrdersNum",
          "type": "uint256"
        }
      ],
      "name": "courierDelivered",
      "type": "event"
    },
    {
      "anonymous": false,
      "inputs": [
        {
          "indexed": false,
          "internalType": "uint256[]",
          "name": "courierOrders",
          "type": "uint256[]"
        },
        {
          "indexed": false,
          "internalType": "uint256",
          "name": "curOrdersNum",
          "type": "uint256"
        }
      ],
      "name": "courierTaken",
      "type": "event"
    },
    {
      "anonymous": false,
      "inputs": [
        {
          "indexed": false,
          "internalType": "uint256",
          "name": "orderId",
          "type": "uint256"
        },
        {
          "indexed": false,
          "internalType": "address payable",
          "name": "parcelSender",
          "type": "address"
        },
        {
          "indexed": false,
          "internalType": "address payable",
          "name": "receiver",
          "type": "address"
        },
        {
          "indexed": false,
          "internalType": "uint256",
          "name": "orderStatus",
          "type": "uint256"
        }
      ],
      "name": "orderCancelled",
      "type": "event"
    },
    {
      "anonymous": false,
      "inputs": [
        {
          "indexed": false,
          "internalType": "uint256",
          "name": "orderId",
          "type": "uint256"
        },
        {
          "indexed": false,
          "internalType": "address payable",
          "name": "parcelSender",
          "type": "address"
        },
        {
          "indexed": false,
          "internalType": "address payable",
          "name": "courier",
          "type": "address"
        },
        {
          "indexed": false,
          "internalType": "address payable",
          "name": "receiver",
          "type": "address"
        },
        {
          "indexed": false,
          "internalType": "uint256",
          "name": "orderStatus",
          "type": "uint256"
        },
        {
          "indexed": false,
          "internalType": "uint256",
          "name": "grade",
          "type": "uint256"
        }
      ],
      "name": "orderComplete",
      "type": "event"
    },
    {
      "anonymous": false,
      "inputs": [
        {
          "indexed": false,
          "internalType": "uint256",
          "name": "orderId",
          "type": "uint256"
        },
        {
          "indexed": false,
          "internalType": "address payable",
          "name": "parcelSender",
          "type": "address"
        },
        {
          "indexed": false,
          "internalType": "address payable",
          "name": "courier",
          "type": "address"
        },
        {
          "indexed": false,
          "internalType": "address payable",
          "name": "receiver",
          "type": "address"
        },
        {
          "indexed": false,
          "internalType": "uint256",
          "name": "orderStatus",
          "type": "uint256"
        }
      ],
      "name": "orderConfirmed",
      "type": "event"
    },
    {
      "anonymous": false,
      "inputs": [
        {
          "indexed": false,
          "internalType": "uint256",
          "name": "orderId",
          "type": "uint256"
        },
        {
          "indexed": false,
          "internalType": "string",
          "name": "senderName",
          "type": "string"
        },
        {
          "indexed": false,
          "internalType": "uint256",
          "name": "senderPhone",
          "type": "uint256"
        },
        {
          "indexed": false,
          "internalType": "string",
          "name": "pickupAddr",
          "type": "string"
        },
        {
          "indexed": false,
          "internalType": "string",
          "name": "shippingAddr",
          "type": "string"
        },
        {
          "indexed": false,
          "internalType": "string",
          "name": "receiverName",
          "type": "string"
        },
        {
          "indexed": false,
          "internalType": "uint256",
          "name": "receiverPhone",
          "type": "uint256"
        }
      ],
      "name": "orderCreated1",
      "type": "event"
    },
    {
      "anonymous": false,
      "inputs": [
        {
          "indexed": false,
          "internalType": "uint256",
          "name": "orderId",
          "type": "uint256"
        },
        {
          "indexed": false,
          "internalType": "uint256",
          "name": "startTime",
          "type": "uint256"
        },
        {
          "indexed": false,
          "internalType": "uint256",
          "name": "endTime",
          "type": "uint256"
        },
        {
          "indexed": false,
          "internalType": "uint256",
          "name": "orderWeight",
          "type": "uint256"
        },
        {
          "indexed": false,
          "internalType": "string",
          "name": "orderType",
          "type": "string"
        },
        {
          "indexed": false,
          "internalType": "uint256",
          "name": "orderPrice",
          "type": "uint256"
        }
      ],
      "name": "orderCreated2",
      "type": "event"
    },
    {
      "anonymous": false,
      "inputs": [
        {
          "indexed": false,
          "internalType": "address payable",
          "name": "parcelSender",
          "type": "address"
        },
        {
          "indexed": false,
          "internalType": "address payable",
          "name": "receiver",
          "type": "address"
        },
        {
          "indexed": false,
          "internalType": "uint256",
          "name": "orderStatus",
          "type": "uint256"
        }
      ],
      "name": "orderCreated3",
      "type": "event"
    },
    {
      "anonymous": false,
      "inputs": [
        {
          "indexed": false,
          "internalType": "uint256",
          "name": "orderId",
          "type": "uint256"
        },
        {
          "indexed": false,
          "internalType": "address payable",
          "name": "receiver",
          "type": "address"
        },
        {
          "indexed": false,
          "internalType": "uint256",
          "name": "orderStatus",
          "type": "uint256"
        },
        {
          "indexed": false,
          "internalType": "uint256",
          "name": "currentTime",
          "type": "uint256"
        }
      ],
      "name": "orderDelivered",
      "type": "event"
    },
    {
      "anonymous": false,
      "inputs": [
        {
          "indexed": false,
          "internalType": "uint256",
          "name": "orderId",
          "type": "uint256"
        },
        {
          "indexed": false,
          "internalType": "address payable",
          "name": "courier",
          "type": "address"
        },
        {
          "indexed": false,
          "internalType": "uint256",
          "name": "orderStatus",
          "type": "uint256"
        }
      ],
      "name": "orderTaken",
      "type": "event"
    },
    {
      "constant": true,
      "inputs": [
        {
          "internalType": "address",
          "name": "",
          "type": "address"
        }
      ],
      "name": "couriers",
      "outputs": [
        {
          "internalType": "uint256",
          "name": "courierGrade",
          "type": "uint256"
        },
        {
          "internalType": "uint256",
          "name": "curOrdersNum",
          "type": "uint256"
        },
        {
          "internalType": "uint256",
          "name": "totalGradesNum",
          "type": "uint256"
        }
      ],
      "payable": false,
      "stateMutability": "view",
      "type": "function"
    },
    {
      "constant": true,
      "inputs": [],
      "name": "expressName",
      "outputs": [
        {
          "internalType": "string",
          "name": "",
          "type": "string"
        }
      ],
      "payable": false,
      "stateMutability": "view",
      "type": "function"
    },
    {
      "constant": true,
      "inputs": [
        {
          "internalType": "uint256",
          "name": "",
          "type": "uint256"
        }
      ],
      "name": "orders1",
      "outputs": [
        {
          "internalType": "uint256",
          "name": "orderId",
          "type": "uint256"
        },
        {
          "internalType": "string",
          "name": "senderName",
          "type": "string"
        },
        {
          "internalType": "uint256",
          "name": "senderPhone",
          "type": "uint256"
        },
        {
          "internalType": "string",
          "name": "pickupAddr",
          "type": "string"
        },
        {
          "internalType": "string",
          "name": "shippingAddr",
          "type": "string"
        },
        {
          "internalType": "string",
          "name": "receiverName",
          "type": "string"
        },
        {
          "internalType": "uint256",
          "name": "receiverPhone",
          "type": "uint256"
        }
      ],
      "payable": false,
      "stateMutability": "view",
      "type": "function"
    },
    {
      "constant": true,
      "inputs": [
        {
          "internalType": "uint256",
          "name": "",
          "type": "uint256"
        }
      ],
      "name": "orders2",
      "outputs": [
        {
          "internalType": "uint256",
          "name": "orderId",
          "type": "uint256"
        },
        {
          "internalType": "uint256",
          "name": "startTime",
          "type": "uint256"
        },
        {
          "internalType": "uint256",
          "name": "endTime",
          "type": "uint256"
        },
        {
          "internalType": "uint256",
          "name": "orderWeight",
          "type": "uint256"
        },
        {
          "internalType": "string",
          "name": "orderType",
          "type": "string"
        },
        {
          "internalType": "uint256",
          "name": "orderPrice",
          "type": "uint256"
        }
      ],
      "payable": false,
      "stateMutability": "view",
      "type": "function"
    },
    {
      "constant": true,
      "inputs": [
        {
          "internalType": "uint256",
          "name": "",
          "type": "uint256"
        }
      ],
      "name": "orders3",
      "outputs": [
        {
          "internalType": "uint256",
          "name": "orderId",
          "type": "uint256"
        },
        {
          "internalType": "address payable",
          "name": "parcelSender",
          "type": "address"
        },
        {
          "internalType": "address payable",
          "name": "courier",
          "type": "address"
        },
        {
          "internalType": "address payable",
          "name": "receiver",
          "type": "address"
        },
        {
          "internalType": "uint256",
          "name": "orderStatus",
          "type": "uint256"
        }
      ],
      "payable": false,
      "stateMutability": "view",
      "type": "function"
    },
    {
      "constant": true,
      "inputs": [],
      "name": "parcelNumPerHour",
      "outputs": [
        {
          "internalType": "uint256",
          "name": "",
          "type": "uint256"
        }
      ],
      "payable": false,
      "stateMutability": "view",
      "type": "function"
    },
    {
      "constant": true,
      "inputs": [],
      "name": "price1",
      "outputs": [
        {
          "internalType": "uint256",
          "name": "",
          "type": "uint256"
        }
      ],
      "payable": false,
      "stateMutability": "view",
      "type": "function"
    },
    {
      "constant": true,
      "inputs": [],
      "name": "price2",
      "outputs": [
        {
          "internalType": "uint256",
          "name": "",
          "type": "uint256"
        }
      ],
      "payable": false,
      "stateMutability": "view",
      "type": "function"
    },
    {
      "constant": true,
      "inputs": [],
      "name": "price3",
      "outputs": [
        {
          "internalType": "uint256",
          "name": "",
          "type": "uint256"
        }
      ],
      "payable": false,
      "stateMutability": "view",
      "type": "function"
    },
    {
      "constant": true,
      "inputs": [],
      "name": "status1",
      "outputs": [
        {
          "internalType": "uint256",
          "name": "",
          "type": "uint256"
        }
      ],
      "payable": false,
      "stateMutability": "view",
      "type": "function"
    },
    {
      "constant": true,
      "inputs": [],
      "name": "status2",
      "outputs": [
        {
          "internalType": "uint256",
          "name": "",
          "type": "uint256"
        }
      ],
      "payable": false,
      "stateMutability": "view",
      "type": "function"
    },
    {
      "constant": true,
      "inputs": [],
      "name": "status3",
      "outputs": [
        {
          "internalType": "uint256",
          "name": "",
          "type": "uint256"
        }
      ],
      "payable": false,
      "stateMutability": "view",
      "type": "function"
    },
    {
      "constant": true,
      "inputs": [],
      "name": "status4",
      "outputs": [
        {
          "internalType": "uint256",
          "name": "",
          "type": "uint256"
        }
      ],
      "payable": false,
      "stateMutability": "view",
      "type": "function"
    },
    {
      "constant": true,
      "inputs": [],
      "name": "status5",
      "outputs": [
        {
          "internalType": "uint256",
          "name": "",
          "type": "uint256"
        }
      ],
      "payable": false,
      "stateMutability": "view",
      "type": "function"
    },
    {
      "constant": true,
      "inputs": [],
      "name": "totalNumber",
      "outputs": [
        {
          "internalType": "uint256",
          "name": "",
          "type": "uint256"
        }
      ],
      "payable": false,
      "stateMutability": "view",
      "type": "function"
    },
    {
      "constant": false,
      "inputs": [
        {
          "internalType": "string",
          "name": "_senderName",
          "type": "string"
        },
        {
          "internalType": "uint256",
          "name": "_senderPhone",
          "type": "uint256"
        },
        {
          "internalType": "string",
          "name": "_pickupAddr",
          "type": "string"
        },
        {
          "internalType": "string",
          "name": "_shippingAddr",
          "type": "string"
        },
        {
          "internalType": "string",
          "name": "_receiverName",
          "type": "string"
        },
        {
          "internalType": "uint256",
          "name": "_receiverPhone",
          "type": "uint256"
        }
      ],
      "name": "createOrder1",
      "outputs": [],
      "payable": false,
      "stateMutability": "nonpayable",
      "type": "function"
    },
    {
      "constant": false,
      "inputs": [
        {
          "internalType": "uint256",
          "name": "_startTime",
          "type": "uint256"
        },
        {
          "internalType": "uint256",
          "name": "_endTime",
          "type": "uint256"
        },
        {
          "internalType": "uint256",
          "name": "_orderWeight",
          "type": "uint256"
        },
        {
          "internalType": "string",
          "name": "_orderType",
          "type": "string"
        },
        {
          "internalType": "address payable",
          "name": "_receiver",
          "type": "address"
        }
      ],
      "name": "createOrder2",
      "outputs": [],
      "payable": true,
      "stateMutability": "payable",
      "type": "function"
    },
    {
      "constant": false,
      "inputs": [
        {
          "internalType": "uint256",
          "name": "_orderId",
          "type": "uint256"
        }
      ],
      "name": "cancelOrder",
      "outputs": [],
      "payable": false,
      "stateMutability": "nonpayable",
      "type": "function"
    },
    {
      "constant": false,
      "inputs": [
        {
          "internalType": "uint256",
          "name": "_orderId",
          "type": "uint256"
        },
        {
          "internalType": "uint256",
          "name": "_currentTime",
          "type": "uint256"
        }
      ],
      "name": "takeOrder",
      "outputs": [],
      "payable": false,
      "stateMutability": "nonpayable",
      "type": "function"
    },
    {
      "constant": false,
      "inputs": [
        {
          "internalType": "uint256",
          "name": "_orderId",
          "type": "uint256"
        },
        {
          "internalType": "uint256",
          "name": "_currentTime",
          "type": "uint256"
        }
      ],
      "name": "deliverOrder",
      "outputs": [],
      "payable": false,
      "stateMutability": "nonpayable",
      "type": "function"
    },
    {
      "constant": false,
      "inputs": [
        {
          "internalType": "uint256",
          "name": "_orderId",
          "type": "uint256"
        }
      ],
      "name": "confirmOrder",
      "outputs": [],
      "payable": false,
      "stateMutability": "nonpayable",
      "type": "function"
    },
    {
      "constant": true,
      "inputs": [
        {
          "internalType": "uint256",
          "name": "_orderId",
          "type": "uint256"
        },
        {
          "internalType": "uint256",
          "name": "_grade",
          "type": "uint256"
        }
      ],
      "name": "makeGrade",
      "outputs": [],
      "payable": false,
      "stateMutability": "view",
      "type": "function"
    }
  ],
  "bytecode": "0x608060405260006001553480156200001657600080fd5b506040518060400160405280601481526020017f457468657265756d20457870726573732e636f6d00000000000000000000000081525060009080519060200190620000649291906200006b565b506200011a565b828054600181600116156101000203166002900490600052602060002090601f016020900481019282601f10620000ae57805160ff1916838001178555620000df565b82800160010185558215620000df579182015b82811115620000de578251825591602001919060010190620000c1565b5b509050620000ee9190620000f2565b5090565b6200011791905b8082111562000113576000816000905550600101620000f9565b5090565b90565b614300806200012a6000396000f3fe6080604052600436106101355760003560e01c8063b5570f83116100ab578063cc01c9631161006f578063cc01c96314610b39578063ccd5fcb914610b64578063d5da6a2b14610bd7578063d778c91114610c02578063e589d58214610c2d578063e6e110ce14610c5857610135565b8063b5570f8314610740578063b7c5a7311461076b578063b9ae731314610796578063c06b4dec1461086d578063c0daddfd14610b0e57610135565b80633db5b7ec116100fd5780633db5b7ec146104d1578063418cb9b614610561578063514fcac7146105a65780636caf25ce146105e15780638ac7d79c1461060c578063ab41872f1461064757610135565b80631dac85be1461013a57806327a3181d146101655780632eab93cb1461019057806334f0ef8b146101d5578063356f9a21146103e2575b600080fd5b34801561014657600080fd5b5061014f610c9d565b6040518082815260200191505060405180910390f35b34801561017157600080fd5b5061017a610ca2565b6040518082815260200191505060405180910390f35b34801561019c57600080fd5b506101d3600480360360408110156101b357600080fd5b810190808035906020019092919080359060200190929190505050610cae565b005b3480156101e157600080fd5b5061020e600480360360208110156101f857600080fd5b8101908080359060200190929190505050611454565b604051808881526020018060200187815260200180602001806020018060200186815260200185810385528b818151815260200191508051906020019080838360005b8381101561026c578082015181840152602081019050610251565b50505050905090810190601f1680156102995780820380516001836020036101000a031916815260200191505b50858103845289818151815260200191508051906020019080838360005b838110156102d25780820151818401526020810190506102b7565b50505050905090810190601f1680156102ff5780820380516001836020036101000a031916815260200191505b50858103835288818151815260200191508051906020019080838360005b8381101561033857808201518184015260208101905061031d565b50505050905090810190601f1680156103655780820380516001836020036101000a031916815260200191505b50858103825287818151815260200191508051906020019080838360005b8381101561039e578082015181840152602081019050610383565b50505050905090810190601f1680156103cb5780820380516001836020036101000a031916815260200191505b509b50505050505050505050505060405180910390f35b3480156103ee57600080fd5b5061041b6004803603602081101561040557600080fd5b81019080803590602001909291905050506116f6565b604051808681526020018573ffffffffffffffffffffffffffffffffffffffff1673ffffffffffffffffffffffffffffffffffffffff1681526020018473ffffffffffffffffffffffffffffffffffffffff1673ffffffffffffffffffffffffffffffffffffffff1681526020018373ffffffffffffffffffffffffffffffffffffffff1673ffffffffffffffffffffffffffffffffffffffff1681526020018281526020019550505050505060405180910390f35b3480156104dd57600080fd5b506104e661178c565b6040518080602001828103825283818151815260200191508051906020019080838360005b8381101561052657808201518184015260208101905061050b565b50505050905090810190601f1680156105535780820380516001836020036101000a031916815260200191505b509250505060405180910390f35b34801561056d57600080fd5b506105a46004803603604081101561058457600080fd5b81019080803590602001909291908035906020019092919050505061182a565b005b3480156105b257600080fd5b506105df600480360360208110156105c957600080fd5b8101908080359060200190929190505050611b17565b005b3480156105ed57600080fd5b506105f66120ed565b6040518082815260200191505060405180910390f35b34801561061857600080fd5b506106456004803603602081101561062f57600080fd5b81019080803590602001909291905050506120f9565b005b61073e600480360360a081101561065d57600080fd5b810190808035906020019092919080359060200190929190803590602001909291908035906020019064010000000081111561069857600080fd5b8201836020820111156106aa57600080fd5b803590602001918460018302840111640100000000831117156106cc57600080fd5b91908080601f016020809104026020016040519081016040528093929190818152602001838380828437600081840152601f19601f820116905080830192505050505050509192919290803573ffffffffffffffffffffffffffffffffffffffff169060200190929190505050612683565b005b34801561074c57600080fd5b50610755612de9565b6040518082815260200191505060405180910390f35b34801561077757600080fd5b50610780612dee565b6040518082815260200191505060405180910390f35b3480156107a257600080fd5b506107cf600480360360208110156107b957600080fd5b8101908080359060200190929190505050612df3565b6040518087815260200186815260200185815260200184815260200180602001838152602001828103825284818151815260200191508051906020019080838360005b8381101561082d578082015181840152602081019050610812565b50505050905090810190601f16801561085a5780820380516001836020036101000a031916815260200191505b5097505050505050505060405180910390f35b34801561087957600080fd5b50610b0c600480360360c081101561089057600080fd5b81019080803590602001906401000000008111156108ad57600080fd5b8201836020820111156108bf57600080fd5b803590602001918460018302840111640100000000831117156108e157600080fd5b91908080601f016020809104026020016040519081016040528093929190818152602001838380828437600081840152601f19601f820116905080830192505050505050509192919290803590602001909291908035906020019064010000000081111561094e57600080fd5b82018360208201111561096057600080fd5b8035906020019184600183028401116401000000008311171561098257600080fd5b91908080601f016020809104026020016040519081016040528093929190818152602001838380828437600081840152601f19601f820116905080830192505050505050509192919290803590602001906401000000008111156109e557600080fd5b8201836020820111156109f757600080fd5b80359060200191846001830284011164010000000083111715610a1957600080fd5b91908080601f016020809104026020016040519081016040528093929190818152602001838380828437600081840152601f19601f82011690508083019250505050505050919291929080359060200190640100000000811115610a7c57600080fd5b820183602082011115610a8e57600080fd5b80359060200191846001830284011164010000000083111715610ab057600080fd5b91908080601f016020809104026020016040519081016040528093929190818152602001838380828437600081840152601f19601f82011690508083019250505050505050919291929080359060200190929190505050612ec7565b005b348015610b1a57600080fd5b50610b23613782565b6040518082815260200191505060405180910390f35b348015610b4557600080fd5b50610b4e613788565b6040518082815260200191505060405180910390f35b348015610b7057600080fd5b50610bb360048036036020811015610b8757600080fd5b81019080803573ffffffffffffffffffffffffffffffffffffffff16906020019092919050505061378d565b60405180848152602001838152602001828152602001935050505060405180910390f35b348015610be357600080fd5b50610bec6137b7565b6040518082815260200191505060405180910390f35b348015610c0e57600080fd5b50610c176137bc565b6040518082815260200191505060405180910390f35b348015610c3957600080fd5b50610c426137c8565b6040518082815260200191505060405180910390f35b348015610c6457600080fd5b50610c9b60048036036040811015610c7b57600080fd5b8101908080359060200190929190803590602001909291905050506137cd565b005b606781565b674563918244f4000081565b610cb6613fe4565b600360008481526020019081526020016000206040518060c001604052908160008201548152602001600182015481526020016002820154815260200160038201548152602001600482018054600181600116156101000203166002900480601f016020809104026020016040519081016040528092919081815260200182805460018160011615610100020316600290048015610d955780601f10610d6a57610100808354040283529160200191610d95565b820191906000526020600020905b815481529060010190602001808311610d7857829003601f168201915b505050505081526020016005820154815250509050610db261401a565b600460008581526020019081526020016000206040518060a0016040529081600082015481526020016001820160009054906101000a900473ffffffffffffffffffffffffffffffffffffffff1673ffffffffffffffffffffffffffffffffffffffff1673ffffffffffffffffffffffffffffffffffffffff1681526020016002820160009054906101000a900473ffffffffffffffffffffffffffffffffffffffff1673ffffffffffffffffffffffffffffffffffffffff1673ffffffffffffffffffffffffffffffffffffffff1681526020016003820160009054906101000a900473ffffffffffffffffffffffffffffffffffffffff1673ffffffffffffffffffffffffffffffffffffffff1673ffffffffffffffffffffffffffffffffffffffff1681526020016004820154815250509050600084118015610efa57506001548411155b610f4f576040517f08c379a00000000000000000000000000000000000000000000000000000000081526004018080602001828103825260228152602001806141966022913960400191505060405180910390fd5b6065816080015114610fc9576040517f08c379a000000000000000000000000000000000000000000000000000000000815260040180806020018281038252601e8152602001807f4f726465722073686f756c64206e6f742062652074616b656e2079657421000081525060200191505060405180910390fd5b81604001518310611025576040517f08c379a000000000000000000000000000000000000000000000000000000000815260040180806020018281038252602281526020018061422b6022913960400191505060405180910390fd5b600083836040015103905060028102600560003373ffffffffffffffffffffffffffffffffffffffff1673ffffffffffffffffffffffffffffffffffffffff16815260200190815260200160002060020154106110cd576040517f08c379a000000000000000000000000000000000000000000000000000000000815260040180806020018281038252602d815260200180614278602d913960400191505060405180910390fd5b33826040019073ffffffffffffffffffffffffffffffffffffffff16908173ffffffffffffffffffffffffffffffffffffffff1681525050606682608001818152505081600460008781526020019081526020016000206000820151816000015560208201518160010160006101000a81548173ffffffffffffffffffffffffffffffffffffffff021916908373ffffffffffffffffffffffffffffffffffffffff16021790555060408201518160020160006101000a81548173ffffffffffffffffffffffffffffffffffffffff021916908373ffffffffffffffffffffffffffffffffffffffff16021790555060608201518160030160006101000a81548173ffffffffffffffffffffffffffffffffffffffff021916908373ffffffffffffffffffffffffffffffffffffffff16021790555060808201518160040155905050600560003373ffffffffffffffffffffffffffffffffffffffff1673ffffffffffffffffffffffffffffffffffffffff168152602001908152602001600020600101859080600181540180825580915050906001820390600052602060002001600090919290919091505550600560003373ffffffffffffffffffffffffffffffffffffffff1673ffffffffffffffffffffffffffffffffffffffff168152602001908152602001600020600201600081548092919060010191905055507f6254819b6fa5128d32574b63c9afecb477e4ea58d0deb49261a95c8b1f1199e4826000015183604001518460800151604051808481526020018373ffffffffffffffffffffffffffffffffffffffff1673ffffffffffffffffffffffffffffffffffffffff168152602001828152602001935050505060405180910390a17fa481c9acdf5c01e811dac2edbcce239f5864bdc8a7fff221227ddca98bb054b5600560003373ffffffffffffffffffffffffffffffffffffffff1673ffffffffffffffffffffffffffffffffffffffff168152602001908152602001600020600101600560003373ffffffffffffffffffffffffffffffffffffffff1673ffffffffffffffffffffffffffffffffffffffff168152602001908152602001600020600201546040518080602001838152602001828103825284818154815260200191508054801561143e57602002820191906000526020600020905b81548152602001906001019080831161142a575b5050935050505060405180910390a15050505050565b6002602052806000526040600020600091509050806000015490806001018054600181600116156101000203166002900480601f0160208091040260200160405190810160405280929190818152602001828054600181600116156101000203166002900480156115065780601f106114db57610100808354040283529160200191611506565b820191906000526020600020905b8154815290600101906020018083116114e957829003601f168201915b505050505090806002015490806003018054600181600116156101000203166002900480601f0160208091040260200160405190810160405280929190818152602001828054600181600116156101000203166002900480156115aa5780601f1061157f576101008083540402835291602001916115aa565b820191906000526020600020905b81548152906001019060200180831161158d57829003601f168201915b505050505090806004018054600181600116156101000203166002900480601f0160208091040260200160405190810160405280929190818152602001828054600181600116156101000203166002900480156116485780601f1061161d57610100808354040283529160200191611648565b820191906000526020600020905b81548152906001019060200180831161162b57829003601f168201915b505050505090806005018054600181600116156101000203166002900480601f0160208091040260200160405190810160405280929190818152602001828054600181600116156101000203166002900480156116e65780601f106116bb576101008083540402835291602001916116e6565b820191906000526020600020905b8154815290600101906020018083116116c957829003601f168201915b5050505050908060060154905087565b60046020528060005260406000206000915090508060000154908060010160009054906101000a900473ffffffffffffffffffffffffffffffffffffffff16908060020160009054906101000a900473ffffffffffffffffffffffffffffffffffffffff16908060030160009054906101000a900473ffffffffffffffffffffffffffffffffffffffff16908060040154905085565b60008054600181600116156101000203166002900480601f0160208091040260200160405190810160405280929190818152602001828054600181600116156101000203166002900480156118225780601f106117f757610100808354040283529160200191611822565b820191906000526020600020905b81548152906001019060200180831161180557829003601f168201915b505050505081565b61183261401a565b600460008481526020019081526020016000206040518060a0016040529081600082015481526020016001820160009054906101000a900473ffffffffffffffffffffffffffffffffffffffff1673ffffffffffffffffffffffffffffffffffffffff1673ffffffffffffffffffffffffffffffffffffffff1681526020016002820160009054906101000a900473ffffffffffffffffffffffffffffffffffffffff1673ffffffffffffffffffffffffffffffffffffffff1673ffffffffffffffffffffffffffffffffffffffff1681526020016003820160009054906101000a900473ffffffffffffffffffffffffffffffffffffffff1673ffffffffffffffffffffffffffffffffffffffff1673ffffffffffffffffffffffffffffffffffffffff16815260200160048201548152505090503373ffffffffffffffffffffffffffffffffffffffff16816060015173ffffffffffffffffffffffffffffffffffffffff1614611a0d576040517f08c379a000000000000000000000000000000000000000000000000000000000815260040180806020018281038252601f8152602001807f4f6e6c792072656365697665722063616e20636f6e6669726d206f726465720081525060200191505060405180910390fd5b611a1561408b565b60056000836040015173ffffffffffffffffffffffffffffffffffffffff1673ffffffffffffffffffffffffffffffffffffffff1681526020019081526020016000206040518060800160405290816000820154815260200160018201805480602002602001604051908101604052809291908181526020018280548015611abc57602002820191906000526020600020905b815481526020019060010190808311611aa8575b505050505081526020016002820154815260200160038201548152505090508060600180518091906001018152505080606001516001826060015103826000015102840181611b0757fe5b0481600001818152505050505050565b611b1f613fe4565b600360008381526020019081526020016000206040518060c001604052908160008201548152602001600182015481526020016002820154815260200160038201548152602001600482018054600181600116156101000203166002900480601f016020809104026020016040519081016040528092919081815260200182805460018160011615610100020316600290048015611bfe5780601f10611bd357610100808354040283529160200191611bfe565b820191906000526020600020905b815481529060010190602001808311611be157829003601f168201915b505050505081526020016005820154815250509050611c1b61401a565b600460008481526020019081526020016000206040518060a0016040529081600082015481526020016001820160009054906101000a900473ffffffffffffffffffffffffffffffffffffffff1673ffffffffffffffffffffffffffffffffffffffff1673ffffffffffffffffffffffffffffffffffffffff1681526020016002820160009054906101000a900473ffffffffffffffffffffffffffffffffffffffff1673ffffffffffffffffffffffffffffffffffffffff1673ffffffffffffffffffffffffffffffffffffffff1681526020016003820160009054906101000a900473ffffffffffffffffffffffffffffffffffffffff1673ffffffffffffffffffffffffffffffffffffffff1673ffffffffffffffffffffffffffffffffffffffff1681526020016004820154815250509050806020015173ffffffffffffffffffffffffffffffffffffffff163373ffffffffffffffffffffffffffffffffffffffff1614611dd9576040517f08c379a00000000000000000000000000000000000000000000000000000000081526004018080602001828103825260278152602001806142a56027913960400191505060405180910390fd5b600083118015611deb57506001548311155b611e5d576040517f08c379a00000000000000000000000000000000000000000000000000000000081526004018080602001828103825260188152602001807f4f726465722073686f756c64206265206372656174656421000000000000000081525060200191505060405180910390fd5b6065816080015114611ed7576040517f08c379a000000000000000000000000000000000000000000000000000000000815260040180806020018281038252601d8152602001807f4f7264657220636f756c64206e6f742062652063616e63656c6c65642100000081525060200191505060405180910390fd5b606981608001818152505080600460008581526020019081526020016000206000820151816000015560208201518160010160006101000a81548173ffffffffffffffffffffffffffffffffffffffff021916908373ffffffffffffffffffffffffffffffffffffffff16021790555060408201518160020160006101000a81548173ffffffffffffffffffffffffffffffffffffffff021916908373ffffffffffffffffffffffffffffffffffffffff16021790555060608201518160030160006101000a81548173ffffffffffffffffffffffffffffffffffffffff021916908373ffffffffffffffffffffffffffffffffffffffff16021790555060808201518160040155905050806020015173ffffffffffffffffffffffffffffffffffffffff166108fc8360a001519081150290604051600060405180830381858888f19350505050158015612030573d6000803e3d6000fd5b507f17cbccfc367faa7a7a693dd8d72cafc83df479daa4b3826497cdce04a3b7f06a8160000151826020015183606001518460800151604051808581526020018473ffffffffffffffffffffffffffffffffffffffff1673ffffffffffffffffffffffffffffffffffffffff1681526020018373ffffffffffffffffffffffffffffffffffffffff1673ffffffffffffffffffffffffffffffffffffffff16815260200182815260200194505050505060405180910390a1505050565b6729a2241af62c000081565b612101613fe4565b600360008381526020019081526020016000206040518060c001604052908160008201548152602001600182015481526020016002820154815260200160038201548152602001600482018054600181600116156101000203166002900480601f0160208091040260200160405190810160405280929190818152602001828054600181600116156101000203166002900480156121e05780601f106121b5576101008083540402835291602001916121e0565b820191906000526020600020905b8154815290600101906020018083116121c357829003601f168201915b5050505050815260200160058201548152505090506121fd61401a565b600460008481526020019081526020016000206040518060a0016040529081600082015481526020016001820160009054906101000a900473ffffffffffffffffffffffffffffffffffffffff1673ffffffffffffffffffffffffffffffffffffffff1673ffffffffffffffffffffffffffffffffffffffff1681526020016002820160009054906101000a900473ffffffffffffffffffffffffffffffffffffffff1673ffffffffffffffffffffffffffffffffffffffff1673ffffffffffffffffffffffffffffffffffffffff1681526020016003820160009054906101000a900473ffffffffffffffffffffffffffffffffffffffff1673ffffffffffffffffffffffffffffffffffffffff1673ffffffffffffffffffffffffffffffffffffffff16815260200160048201548152505090506066816080015114612390576040517f08c379a000000000000000000000000000000000000000000000000000000000815260040180806020018281038252602a8152602001806141b8602a913960400191505060405180910390fd5b3373ffffffffffffffffffffffffffffffffffffffff16816060015173ffffffffffffffffffffffffffffffffffffffff1614612435576040517f08c379a000000000000000000000000000000000000000000000000000000000815260040180806020018281038252601f8152602001807f4f6e6c792072656365697665722063616e20636f6e6669726d206f726465720081525060200191505060405180910390fd5b606781608001818152505080600460008581526020019081526020016000206000820151816000015560208201518160010160006101000a81548173ffffffffffffffffffffffffffffffffffffffff021916908373ffffffffffffffffffffffffffffffffffffffff16021790555060408201518160020160006101000a81548173ffffffffffffffffffffffffffffffffffffffff021916908373ffffffffffffffffffffffffffffffffffffffff16021790555060608201518160030160006101000a81548173ffffffffffffffffffffffffffffffffffffffff021916908373ffffffffffffffffffffffffffffffffffffffff160217905550608082015181600401559050507ff49fd70241c9c37ec11b833f6e9522a1a557fc01bdbc404c60f36a114503f59381600001518260200151836040015184606001518560800151604051808681526020018573ffffffffffffffffffffffffffffffffffffffff1673ffffffffffffffffffffffffffffffffffffffff1681526020018473ffffffffffffffffffffffffffffffffffffffff1673ffffffffffffffffffffffffffffffffffffffff1681526020018373ffffffffffffffffffffffffffffffffffffffff1673ffffffffffffffffffffffffffffffffffffffff1681526020018281526020019550505050505060405180910390a1806040015173ffffffffffffffffffffffffffffffffffffffff166108fc8360a001519081150290604051600060405180830381858888f1935050505015801561267d573d6000803e3d6000fd5b50505050565b8385106126db576040517f08c379a000000000000000000000000000000000000000000000000000000000815260040180806020018281038252602b81526020018061424d602b913960400191505060405180910390fd5b6000831180156126ec575060328311155b612741576040517f08c379a00000000000000000000000000000000000000000000000000000000081526004018080602001828103825260278152602001806141e26027913960400191505060405180910390fd5b600154600360006001548152602001908152602001600020600001819055508460036000600154815260200190815260200160002060010181905550836003600060015481526020019081526020016000206002018190555082600360006001548152602001908152602001600020600301819055508160036000600154815260200190815260200160002060040190805190602001906127e39291906140b3565b506000831180156127f55750600a8311155b15612824576729a2241af62c0000600360006001548152602001908152602001600020600501819055506128a2565b600a831180156128355750601e8311155b1561286457674563918244f40000600360006001548152602001908152602001600020600501819055506128a1565b601e83118015612875575060328311155b156128a057676124fee993bc0000600360006001548152602001908152602001600020600501819055505b5b5b60036000600154815260200190815260200160002060050154341015612930576040517f08c379a00000000000000000000000000000000000000000000000000000000081526004018080602001828103825260208152602001807f4e6f7420656e6f75676820657468657220746f20637265617465206f7264657281525060200191505060405180910390fd5b612938613fe4565b6003600060015481526020019081526020016000206040518060c001604052908160008201548152602001600182015481526020016002820154815260200160038201548152602001600482018054600181600116156101000203166002900480601f016020809104026020016040519081016040528092919081815260200182805460018160011615610100020316600290048015612a195780601f106129ee57610100808354040283529160200191612a19565b820191906000526020600020905b8154815290600101906020018083116129fc57829003601f168201915b5050505050815260200160058201548152505090507f790906e8e7cd1ed19a0b1102e6343037b8d9074d8addc2fa09e65d21ec86041d816000015182602001518360400151846060015185608001518660a001516040518087815260200186815260200185815260200184815260200180602001838152602001828103825284818151815260200191508051906020019080838360005b83811015612acb578082015181840152602081019050612ab0565b50505050905090810190601f168015612af85780820380516001836020036101000a031916815260200191505b5097505050505050505060405180910390a1600154600460006001548152602001908152602001600020600001819055503360046000600154815260200190815260200160002060010160006101000a81548173ffffffffffffffffffffffffffffffffffffffff021916908373ffffffffffffffffffffffffffffffffffffffff1602179055508160046000600154815260200190815260200160002060030160006101000a81548173ffffffffffffffffffffffffffffffffffffffff021916908373ffffffffffffffffffffffffffffffffffffffff160217905550606560046000600154815260200190815260200160002060040181905550612bfd61401a565b6004600060015481526020019081526020016000206040518060a0016040529081600082015481526020016001820160009054906101000a900473ffffffffffffffffffffffffffffffffffffffff1673ffffffffffffffffffffffffffffffffffffffff1673ffffffffffffffffffffffffffffffffffffffff1681526020016002820160009054906101000a900473ffffffffffffffffffffffffffffffffffffffff1673ffffffffffffffffffffffffffffffffffffffff1673ffffffffffffffffffffffffffffffffffffffff1681526020016003820160009054906101000a900473ffffffffffffffffffffffffffffffffffffffff1673ffffffffffffffffffffffffffffffffffffffff1673ffffffffffffffffffffffffffffffffffffffff16815260200160048201548152505090507fb4d1b81b3477bfd574da643fa8c9e482d38e638a5bcef88e089eb7003bf7db80816020015182606001518360800151604051808473ffffffffffffffffffffffffffffffffffffffff1673ffffffffffffffffffffffffffffffffffffffff1681526020018373ffffffffffffffffffffffffffffffffffffffff1673ffffffffffffffffffffffffffffffffffffffff168152602001828152602001935050505060405180910390a150505050505050565b606881565b606981565b6003602052806000526040600020600091509050806000015490806001015490806002015490806003015490806004018054600181600116156101000203166002900480601f016020809104026020016040519081016040528092919081815260200182805460018160011615610100020316600290048015612eb75780601f10612e8c57610100808354040283529160200191612eb7565b820191906000526020600020905b815481529060010190602001808311612e9a57829003601f168201915b5050505050908060050154905086565b6000865111612f3e576040517f08c379a00000000000000000000000000000000000000000000000000000000081526004018080602001828103825260178152602001807f73656e6465724e616d652069732072657175697265642100000000000000000081525060200191505060405180910390fd5b633b9aca0085118015612f5557506402540be3ff85105b612faa576040517f08c379a00000000000000000000000000000000000000000000000000000000081526004018080602001828103825260228152602001806142096022913960400191505060405180910390fd5b6000845111613021576040517f08c379a000000000000000000000000000000000000000000000000000000000815260040180806020018281038252601c8152602001807f5069636b2075702061646472657373206973207265717569726564210000000081525060200191505060405180910390fd5b6000835111613098576040517f08c379a000000000000000000000000000000000000000000000000000000000815260040180806020018281038252601d8152602001807f5368697070696e6720616464726573732069732072657175697265642100000081525060200191505060405180910390fd5b600082511161310f576040517f08c379a00000000000000000000000000000000000000000000000000000000081526004018080602001828103825260198152602001807f72656365697665724e616d65206973207265717569726564210000000000000081525060200191505060405180910390fd5b633b9aca0081118015613125575063773593ff81105b61317a576040517f08c379a00000000000000000000000000000000000000000000000000000000081526004018080602001828103825260228152602001806142096022913960400191505060405180910390fd5b6001805401600181905550600154600260006001548152602001908152602001600020600001819055508560026000600154815260200190815260200160002060010190805190602001906131d09291906140b3565b50846002600060015481526020019081526020016000206002018190555083600260006001548152602001908152602001600020600301908051906020019061321a9291906140b3565b508260026000600154815260200190815260200160002060040190805190602001906132479291906140b3565b508160026000600154815260200190815260200160002060050190805190602001906132749291906140b3565b50806002600060015481526020019081526020016000206006018190555061329a614133565b6002600060015481526020019081526020016000206040518060e001604052908160008201548152602001600182018054600181600116156101000203166002900480601f01602080910402602001604051908101604052809291908181526020018280546001816001161561010002031660029004801561335d5780601f106133325761010080835404028352916020019161335d565b820191906000526020600020905b81548152906001019060200180831161334057829003601f168201915b5050505050815260200160028201548152602001600382018054600181600116156101000203166002900480601f0160208091040260200160405190810160405280929190818152602001828054600181600116156101000203166002900480156134095780601f106133de57610100808354040283529160200191613409565b820191906000526020600020905b8154815290600101906020018083116133ec57829003601f168201915b50505050508152602001600482018054600181600116156101000203166002900480601f0160208091040260200160405190810160405280929190818152602001828054600181600116156101000203166002900480156134ab5780601f10613480576101008083540402835291602001916134ab565b820191906000526020600020905b81548152906001019060200180831161348e57829003601f168201915b50505050508152602001600582018054600181600116156101000203166002900480601f01602080910402602001604051908101604052809291908181526020018280546001816001161561010002031660029004801561354d5780601f106135225761010080835404028352916020019161354d565b820191906000526020600020905b81548152906001019060200180831161353057829003601f168201915b5050505050815260200160068201548152505090507f2e690a37ae9d503abae2b970ec5cb3dcb3f08a7111e4541d37282e14290e157c816000015182602001518360400151846060015185608001518660a001518760c00151604051808881526020018060200187815260200180602001806020018060200186815260200185810385528b818151815260200191508051906020019080838360005b838110156136045780820151818401526020810190506135e9565b50505050905090810190601f1680156136315780820380516001836020036101000a031916815260200191505b50858103845289818151815260200191508051906020019080838360005b8381101561366a57808201518184015260208101905061364f565b50505050905090810190601f1680156136975780820380516001836020036101000a031916815260200191505b50858103835288818151815260200191508051906020019080838360005b838110156136d05780820151818401526020810190506136b5565b50505050905090810190601f1680156136fd5780820380516001836020036101000a031916815260200191505b50858103825287818151815260200191508051906020019080838360005b8381101561373657808201518184015260208101905061371b565b50505050905090810190601f1680156137635780820380516001836020036101000a031916815260200191505b509b50505050505050505050505060405180910390a150505050505050565b60015481565b600281565b60056020528060005260406000206000915090508060000154908060020154908060030154905083565b606681565b676124fee993bc000081565b606581565b6137d5614133565b600260008481526020019081526020016000206040518060e001604052908160008201548152602001600182018054600181600116156101000203166002900480601f0160208091040260200160405190810160405280929190818152602001828054600181600116156101000203166002900480156138965780601f1061386b57610100808354040283529160200191613896565b820191906000526020600020905b81548152906001019060200180831161387957829003601f168201915b5050505050815260200160028201548152602001600382018054600181600116156101000203166002900480601f0160208091040260200160405190810160405280929190818152602001828054600181600116156101000203166002900480156139425780601f1061391757610100808354040283529160200191613942565b820191906000526020600020905b81548152906001019060200180831161392557829003601f168201915b50505050508152602001600482018054600181600116156101000203166002900480601f0160208091040260200160405190810160405280929190818152602001828054600181600116156101000203166002900480156139e45780601f106139b9576101008083540402835291602001916139e4565b820191906000526020600020905b8154815290600101906020018083116139c757829003601f168201915b50505050508152602001600582018054600181600116156101000203166002900480601f016020809104026020016040519081016040528092919081815260200182805460018160011615610100020316600290048015613a865780601f10613a5b57610100808354040283529160200191613a86565b820191906000526020600020905b815481529060010190602001808311613a6957829003601f168201915b505050505081526020016006820154815250509050613aa361401a565b600460008581526020019081526020016000206040518060a0016040529081600082015481526020016001820160009054906101000a900473ffffffffffffffffffffffffffffffffffffffff1673ffffffffffffffffffffffffffffffffffffffff1673ffffffffffffffffffffffffffffffffffffffff1681526020016002820160009054906101000a900473ffffffffffffffffffffffffffffffffffffffff1673ffffffffffffffffffffffffffffffffffffffff1673ffffffffffffffffffffffffffffffffffffffff1681526020016003820160009054906101000a900473ffffffffffffffffffffffffffffffffffffffff1673ffffffffffffffffffffffffffffffffffffffff1673ffffffffffffffffffffffffffffffffffffffff168152602001600482015481525050905060008090505b600560003373ffffffffffffffffffffffffffffffffffffffff1673ffffffffffffffffffffffffffffffffffffffff16815260200190815260200160002060010180549050811015613cf85784600560003373ffffffffffffffffffffffffffffffffffffffff1673ffffffffffffffffffffffffffffffffffffffff1681526020019081526020016000206001018281548110613c7a57fe5b90600052602060002001541415613ceb57600560003373ffffffffffffffffffffffffffffffffffffffff1673ffffffffffffffffffffffffffffffffffffffff1681526020019081526020016000206001018181548110613cd857fe5b9060005260206000200160009055613cf8565b8080600101915050613bdf565b50606781608001818152505080600460008681526020019081526020016000206000820151816000015560208201518160010160006101000a81548173ffffffffffffffffffffffffffffffffffffffff021916908373ffffffffffffffffffffffffffffffffffffffff16021790555060408201518160020160006101000a81548173ffffffffffffffffffffffffffffffffffffffff021916908373ffffffffffffffffffffffffffffffffffffffff16021790555060608201518160030160006101000a81548173ffffffffffffffffffffffffffffffffffffffff021916908373ffffffffffffffffffffffffffffffffffffffff16021790555060808201518160040155905050600560003373ffffffffffffffffffffffffffffffffffffffff1673ffffffffffffffffffffffffffffffffffffffff16815260200190815260200160002060020160008154809291906001900391905055507f60fc335a5ebb36d40ca84e5cec5ad730cb09141babcc04de930f7a07570daf1c82600001518260600151836080015186604051808581526020018473ffffffffffffffffffffffffffffffffffffffff1673ffffffffffffffffffffffffffffffffffffffff16815260200183815260200182815260200194505050505060405180910390a17f3928366714139c620e5b298330b82e11478d3ca2a25fad785a8867599812c775600560003373ffffffffffffffffffffffffffffffffffffffff1673ffffffffffffffffffffffffffffffffffffffff168152602001908152602001600020600101600560003373ffffffffffffffffffffffffffffffffffffffff1673ffffffffffffffffffffffffffffffffffffffff1681526020019081526020016000206002015460405180806020018381526020018281038252848181548152602001915080548015613fcf57602002820191906000526020600020905b815481526020019060010190808311613fbb575b5050935050505060405180910390a150505050565b6040518060c001604052806000815260200160008152602001600081526020016000815260200160608152602001600081525090565b6040518060a0016040528060008152602001600073ffffffffffffffffffffffffffffffffffffffff168152602001600073ffffffffffffffffffffffffffffffffffffffff168152602001600073ffffffffffffffffffffffffffffffffffffffff168152602001600081525090565b6040518060800160405280600081526020016060815260200160008152602001600081525090565b828054600181600116156101000203166002900490600052602060002090601f016020900481019282601f106140f457805160ff1916838001178555614122565b82800160010185558215614122579182015b82811115614121578251825591602001919060010190614106565b5b50905061412f9190614170565b5090565b6040518060e00160405280600081526020016060815260200160008152602001606081526020016060815260200160608152602001600081525090565b61419291905b8082111561418e576000816000905550600101614176565b5090565b9056fe4f726465722073686f756c6420626520726561647920746f2062652074616b656e214f726465722073686f756c642062652077616974696e6720666f72206120636f6e6669726d6174696f6e6f72646572207765696768742073686f756c642062652077697468696e207468652072616e6765506c6561736520696e70757420636f72726563742070686f6e65206e756d6265722143757272656e7454696d6520657863656564206f72646572277320656e6454696d6573746172742074696d652073686f756c6420626520736d616c6c6572207468616e20656e642074696d65214e756d626572206f6620636f757269657227732070617263656c732073686f756c64206e6f74206578636565644f6e6c792070617263656c53656e6465722063616e2063616e63656c2074686973206f72646572a265627a7a72315820842543e1c809637d1e82c6fe0f4a92d7fb55eb0999d4425f2a04162d427ab07764736f6c63430005100032",
  "source": "pragma solidity >=0.4.21 <0.7.0;\r\n\r\ncontract Express {\r\n    string public expressName;\r\n    uint256 public totalNumber = 0;\r\n    uint256 public constant price1 = 3 ether;\r\n    uint256 public constant price2 = 5 ether;\r\n    uint256 public constant price3 = 7 ether;\r\n    uint256 public constant status1 = 101; //Waiting to be taken\r\n    uint256 public constant status2 = 102; //Waiting for delivery\r\n    uint256 public constant status3 = 103; //Delivered waiting confirmation\r\n    uint256 public constant status4 = 104; //Complete\r\n    uint256 public constant status5 = 105; //Cancelled\r\n    uint256 public constant parcelNumPerHour = 2;\r\n    struct Order1 {\r\n        uint256 orderId;\r\n        string senderName;\r\n        uint256 senderPhone;\r\n        string pickupAddr;\r\n        string shippingAddr;\r\n        string receiverName;\r\n        uint256 receiverPhone;\r\n    }\r\n\r\n    struct Order2 {\r\n        uint256 orderId;\r\n        uint256 startTime;\r\n        uint256 endTime;\r\n        uint256 orderWeight;\r\n        string orderType;\r\n        uint256 orderPrice;\r\n    }\r\n\r\n    struct Order3 {\r\n        uint256 orderId;\r\n        address payable parcelSender;\r\n        address payable courier;\r\n        address payable receiver;\r\n        uint256 orderStatus;\r\n    }\r\n\r\n    struct Courier {\r\n        uint256 courierGrade;\r\n        uint256[] courierOrders;\r\n        uint256 curOrdersNum; //\r\n        uint256 totalGradesNum;\r\n    }\r\n\r\n    mapping(uint256 => Order1) public orders1;\r\n    mapping(uint256 => Order2) public orders2;\r\n    mapping(uint256 => Order3) public orders3;\r\n    mapping(address => Courier) public couriers;\r\n    //event\r\n    event orderCreated1(\r\n        uint256 orderId,\r\n        string senderName,\r\n        uint256 senderPhone,\r\n        string pickupAddr,\r\n        string shippingAddr,\r\n        string receiverName,\r\n        uint256 receiverPhone\r\n    );\r\n\r\n    event orderCreated2(\r\n        uint256 orderId,\r\n        uint256 startTime,\r\n        uint256 endTime,\r\n        uint256 orderWeight,\r\n        string orderType,\r\n        uint256 orderPrice\r\n    );\r\n    event orderCreated3(\r\n          address payable parcelSender,\r\n        address payable receiver,\r\n           uint256 orderStatus\r\n        );\r\n\r\n    event orderCancelled(\r\n        uint256 orderId,\r\n        address payable parcelSender,\r\n        address payable receiver,\r\n        uint256 orderStatus\r\n    );\r\n\r\n\r\n    event orderTaken(\r\n        uint256 orderId,\r\n        address payable courier,\r\n        uint256 orderStatus\r\n    );\r\n\r\n    event courierTaken(uint256[] courierOrders, uint256 curOrdersNum);\r\n\r\n    event orderDelivered(\r\n        uint256 orderId,\r\n        address payable receiver,\r\n        uint256 orderStatus,\r\n        uint256 currentTime\r\n    );\r\n\r\n    event courierDelivered(uint256[] courierOrders, uint256 curOrdersNum);\r\n\r\n    event orderConfirmed(\r\n        uint256 orderId,\r\n        address payable parcelSender,\r\n        address payable courier,\r\n        address payable receiver,\r\n        uint256 orderStatus\r\n    );\r\n\r\n    event orderComplete(\r\n        uint256 orderId,\r\n        address payable parcelSender,\r\n        address payable courier,\r\n        address payable receiver,\r\n        uint256 orderStatus,\r\n        uint256 grade\r\n    );\r\n\r\n    constructor() public {\r\n        expressName = \"Ethereum Express.com\";\r\n    }\r\n\r\n    //make orders\r\n    function createOrder1(\r\n        string memory _senderName,\r\n        uint256 _senderPhone,\r\n        string memory _pickupAddr,\r\n        string memory _shippingAddr,\r\n        string memory _receiverName,\r\n        uint256 _receiverPhone\r\n    ) public {\r\n        require(bytes(_senderName).length > 0, \"senderName is required!\");\r\n        require(\r\n            _senderPhone > 1000000000 && _senderPhone < 9999999999,\r\n            \"Please input correct phone number!\"\r\n        );\r\n        require(bytes(_pickupAddr).length > 0, \"Pick up address is required!\");\r\n        require(\r\n            bytes(_shippingAddr).length > 0,\r\n            \"Shipping address is required!\"\r\n        );\r\n        require(bytes(_receiverName).length > 0, \"receiverName is required!\");\r\n        require(\r\n            _receiverPhone > 1000000000 && _receiverPhone < 1999999999,\r\n            \"Please input correct phone number!\"\r\n        );\r\n        totalNumber = totalNumber + 1;\r\n        orders1[totalNumber].orderId = totalNumber;\r\n        orders1[totalNumber].senderName = _senderName;\r\n        orders1[totalNumber].senderPhone = _senderPhone;\r\n        orders1[totalNumber].pickupAddr = _pickupAddr;\r\n        orders1[totalNumber].shippingAddr = _shippingAddr;\r\n        orders1[totalNumber].receiverName = _receiverName;\r\n        orders1[totalNumber].receiverPhone = _receiverPhone;\r\n        Order1 memory _order1 = orders1[totalNumber];\r\n        emit orderCreated1(\r\n            _order1.orderId,\r\n            _order1.senderName,\r\n            _order1.senderPhone,\r\n            _order1.pickupAddr,\r\n            _order1.shippingAddr,\r\n            _order1.receiverName,\r\n            _order1.receiverPhone\r\n        );\r\n    }\r\n\r\n    //make orders\r\n    function createOrder2(\r\n        uint256 _startTime,\r\n        uint256 _endTime,\r\n        uint256 _orderWeight,\r\n        string memory _orderType,\r\n        address payable _receiver\r\n    ) public payable {\r\n        require(\r\n            _startTime < _endTime,\r\n            \"start time should be smaller than end time!\"\r\n        );\r\n        require(\r\n            _orderWeight > 0 && _orderWeight <= 50,\r\n            \"order weight should be within the range\"\r\n        );\r\n        orders2[totalNumber].orderId = totalNumber;\r\n        orders2[totalNumber].startTime = _startTime;\r\n        orders2[totalNumber].endTime = _endTime;\r\n        orders2[totalNumber].orderWeight = _orderWeight;\r\n        orders2[totalNumber].orderType = _orderType;\r\n        if (_orderWeight > 0 && _orderWeight <= 10) {\r\n            orders2[totalNumber].orderPrice = price1;\r\n        } else if (_orderWeight > 10 && _orderWeight <= 30) {\r\n            orders2[totalNumber].orderPrice = price2;\r\n        } else if (_orderWeight > 30 && _orderWeight <= 50) {\r\n            orders2[totalNumber].orderPrice = price3;\r\n        }\r\n        require(\r\n            msg.value >= orders2[totalNumber].orderPrice,\r\n            \"Not enough ether to create order\"\r\n        );\r\n        Order2 memory _order2 = orders2[totalNumber];\r\n        emit orderCreated2(\r\n            _order2.orderId,\r\n            _order2.startTime,\r\n            _order2.endTime,\r\n            _order2.orderWeight,\r\n            _order2.orderType,\r\n            _order2.orderPrice\r\n        );\r\n        orders3[totalNumber].orderId = totalNumber;\r\n        orders3[totalNumber].parcelSender = msg.sender;\r\n        orders3[totalNumber].receiver = _receiver;\r\n        orders3[totalNumber].orderStatus = status1;\r\n        Order3 memory _order3 = orders3[totalNumber];\r\n        emit orderCreated3(\r\n            _order3.parcelSender,\r\n            _order3.receiver,\r\n            _order3.orderStatus\r\n        );\r\n    }\r\n\r\n\r\n    //cancel order\r\n    function cancelOrder(uint256 _orderId) public {\r\n        Order2 memory _order2 = orders2[_orderId];\r\n        Order3 memory _order3 = orders3[_orderId];\r\n        require(\r\n            msg.sender == _order3.parcelSender,\r\n            \"Only parcelSender can cancel this order\"\r\n        );\r\n\r\n        require(\r\n            _orderId > 0 && _orderId <= totalNumber,\r\n            \"Order should be created!\"\r\n        );\r\n        require(\r\n            _order3.orderStatus == status1,\r\n            \"Order could not be cancelled!\"\r\n        );\r\n        _order3.orderStatus = status5;\r\n        orders3[_orderId] = _order3;\r\n        _order3.parcelSender.transfer(_order2.orderPrice);\r\n        emit orderCancelled(\r\n            _order3.orderId,\r\n            _order3.parcelSender,\r\n            _order3.receiver,\r\n            _order3.orderStatus\r\n        );\r\n    }\r\n\r\n\r\n    //Courier takes order\r\n    function takeOrder(uint256 _orderId, uint256 _currentTime) public {\r\n        Order2 memory _order2 = orders2[_orderId];\r\n        Order3 memory _order3 = orders3[_orderId];\r\n        require(\r\n            _orderId > 0 && _orderId <= totalNumber,\r\n            \"Order should be ready to be taken!\"\r\n        );\r\n        require(\r\n            _order3.orderStatus == status1,\r\n            \"Order should not be taken yet!\"\r\n        );\r\n        require(\r\n            _currentTime < _order2.endTime,\r\n            \"CurrentTime exceed order's endTime\"\r\n        );\r\n\r\n        uint256 limitTime = _order2.endTime - _currentTime;\r\n        require(\r\n            couriers[msg.sender].curOrdersNum < limitTime * parcelNumPerHour,\r\n            \"Number of courier's parcels should not exceed\"\r\n        );\r\n        _order3.courier = msg.sender;\r\n        _order3.orderStatus = status2;\r\n        orders3[_orderId] = _order3;\r\n        couriers[msg.sender].courierOrders.push(_orderId);\r\n        couriers[msg.sender].curOrdersNum++;\r\n        emit orderTaken(_order3.orderId, _order3.courier, _order3.orderStatus);\r\n        emit courierTaken(\r\n            couriers[msg.sender].courierOrders,\r\n            couriers[msg.sender].curOrdersNum\r\n        );\r\n    }\r\n\r\n    function deliverOrder(uint256 _orderId, uint256 _currentTime) public {\r\n        Order1 memory _order1 = orders1[_orderId];\r\n        Order3 memory _order3 = orders3[_orderId];\r\n        for (\r\n            uint256 i = 0;\r\n            i < couriers[msg.sender].courierOrders.length;\r\n            i++\r\n        ) {\r\n            if (couriers[msg.sender].courierOrders[i] == _orderId) {\r\n                delete couriers[msg.sender].courierOrders[i];\r\n                break;\r\n            }\r\n        }\r\n        _order3.orderStatus = status3;\r\n        orders3[_orderId] = _order3;\r\n        couriers[msg.sender].curOrdersNum--;\r\n        emit orderDelivered(\r\n            _order1.orderId,\r\n            _order3.receiver,\r\n            _order3.orderStatus,\r\n            _currentTime\r\n        );\r\n        emit courierDelivered(\r\n            couriers[msg.sender].courierOrders,\r\n            couriers[msg.sender].curOrdersNum\r\n        );\r\n    }\r\n\r\n    function confirmOrder(uint256 _orderId) public {\r\n        Order2 memory _order2 = orders2[_orderId];\r\n        Order3 memory _order3 = orders3[_orderId];\r\n        require(\r\n            _order3.orderStatus == status2,\r\n            \"Order should be waiting for a confirmation\"\r\n        );\r\n        require(\r\n            _order3.receiver == msg.sender,\r\n            \"Only receiver can confirm order\"\r\n        );\r\n        _order3.orderStatus = status3;\r\n        orders3[_orderId] = _order3;\r\n        emit orderConfirmed(\r\n            _order3.orderId,\r\n            _order3.parcelSender,\r\n            _order3.courier,\r\n            _order3.receiver,\r\n            _order3.orderStatus\r\n        );\r\n       _order3.courier.transfer(_order2.orderPrice);\r\n    }\r\n\r\n    function makeGrade(uint256 _orderId, uint256 _grade) public view {\r\n        Order3 memory _order3 = orders3[_orderId];\r\n        require(\r\n            _order3.receiver == msg.sender,\r\n            \"Only receiver can confirm order\"\r\n        );\r\n        Courier memory _courier = couriers[_order3.courier];\r\n        _courier.totalGradesNum++;\r\n        //?cannot support float type\r\n        _courier.courierGrade = (_grade + _courier.courierGrade * (_courier.totalGradesNum - 1)) /\r\n            (_courier.totalGradesNum);\r\n\r\n    }\r\n\r\n}\r\n",
  "sourcePath": "C:\\571G\\ExpressDappReact\\src\\contracts\\Express.sol",
  "compiler": {
    "name": "solc",
    "version": "0.5.16+commit.9c3226ce.Emscripten.clang"
  },
  "schemaVersion": "3.0.23",
  "updatedAt": "2020-03-20T17:48:30.003Z",
  "devdoc": {
    "methods": {}
  },
  "userdoc": {
    "methods": {}
  }
}